{
  "_format": "hh-sol-artifact-1",
  "contractName": "MyBasicNFT",
  "sourceName": "contracts/MyBasicNFT.sol",
  "abi": [
    {
      "inputs": [
        {
          "internalType": "string",
          "name": "name",
          "type": "string"
        },
        {
          "internalType": "string",
          "name": "symbol",
          "type": "string"
        },
        {
          "internalType": "address",
          "name": "initialOwner",
          "type": "address"
        }
      ],
      "stateMutability": "nonpayable",
      "type": "constructor"
    },
    {
      "inputs": [
        {
          "internalType": "address",
          "name": "sender",
          "type": "address"
        },
        {
          "internalType": "uint256",
          "name": "tokenId",
          "type": "uint256"
        },
        {
          "internalType": "address",
          "name": "owner",
          "type": "address"
        }
      ],
      "name": "ERC721IncorrectOwner",
      "type": "error"
    },
    {
      "inputs": [
        {
          "internalType": "address",
          "name": "operator",
          "type": "address"
        },
        {
          "internalType": "uint256",
          "name": "tokenId",
          "type": "uint256"
        }
      ],
      "name": "ERC721InsufficientApproval",
      "type": "error"
    },
    {
      "inputs": [
        {
          "internalType": "address",
          "name": "approver",
          "type": "address"
        }
      ],
      "name": "ERC721InvalidApprover",
      "type": "error"
    },
    {
      "inputs": [
        {
          "internalType": "address",
          "name": "operator",
          "type": "address"
        }
      ],
      "name": "ERC721InvalidOperator",
      "type": "error"
    },
    {
      "inputs": [
        {
          "internalType": "address",
          "name": "owner",
          "type": "address"
        }
      ],
      "name": "ERC721InvalidOwner",
      "type": "error"
    },
    {
      "inputs": [
        {
          "internalType": "address",
          "name": "receiver",
          "type": "address"
        }
      ],
      "name": "ERC721InvalidReceiver",
      "type": "error"
    },
    {
      "inputs": [
        {
          "internalType": "address",
          "name": "sender",
          "type": "address"
        }
      ],
      "name": "ERC721InvalidSender",
      "type": "error"
    },
    {
      "inputs": [
        {
          "internalType": "uint256",
          "name": "tokenId",
          "type": "uint256"
        }
      ],
      "name": "ERC721NonexistentToken",
      "type": "error"
    },
    {
      "inputs": [
        {
          "internalType": "address",
          "name": "owner",
          "type": "address"
        }
      ],
      "name": "OwnableInvalidOwner",
      "type": "error"
    },
    {
      "inputs": [
        {
          "internalType": "address",
          "name": "account",
          "type": "address"
        }
      ],
      "name": "OwnableUnauthorizedAccount",
      "type": "error"
    },
    {
      "anonymous": false,
      "inputs": [
        {
          "indexed": true,
          "internalType": "address",
          "name": "owner",
          "type": "address"
        },
        {
          "indexed": true,
          "internalType": "address",
          "name": "approved",
          "type": "address"
        },
        {
          "indexed": true,
          "internalType": "uint256",
          "name": "tokenId",
          "type": "uint256"
        }
      ],
      "name": "Approval",
      "type": "event"
    },
    {
      "anonymous": false,
      "inputs": [
        {
          "indexed": true,
          "internalType": "address",
          "name": "owner",
          "type": "address"
        },
        {
          "indexed": true,
          "internalType": "address",
          "name": "operator",
          "type": "address"
        },
        {
          "indexed": false,
          "internalType": "bool",
          "name": "approved",
          "type": "bool"
        }
      ],
      "name": "ApprovalForAll",
      "type": "event"
    },
    {
      "anonymous": false,
      "inputs": [
        {
          "indexed": false,
          "internalType": "uint256",
          "name": "_fromTokenId",
          "type": "uint256"
        },
        {
          "indexed": false,
          "internalType": "uint256",
          "name": "_toTokenId",
          "type": "uint256"
        }
      ],
      "name": "BatchMetadataUpdate",
      "type": "event"
    },
    {
      "anonymous": false,
      "inputs": [
        {
          "indexed": false,
          "internalType": "uint256",
          "name": "_tokenId",
          "type": "uint256"
        }
      ],
      "name": "MetadataUpdate",
      "type": "event"
    },
    {
      "anonymous": false,
      "inputs": [
        {
          "indexed": true,
          "internalType": "address",
          "name": "previousOwner",
          "type": "address"
        },
        {
          "indexed": true,
          "internalType": "address",
          "name": "newOwner",
          "type": "address"
        }
      ],
      "name": "OwnershipTransferred",
      "type": "event"
    },
    {
      "anonymous": false,
      "inputs": [
        {
          "indexed": true,
          "internalType": "address",
          "name": "from",
          "type": "address"
        },
        {
          "indexed": true,
          "internalType": "address",
          "name": "to",
          "type": "address"
        },
        {
          "indexed": true,
          "internalType": "uint256",
          "name": "tokenId",
          "type": "uint256"
        }
      ],
      "name": "Transfer",
      "type": "event"
    },
    {
      "inputs": [
        {
          "internalType": "address",
          "name": "to",
          "type": "address"
        },
        {
          "internalType": "uint256",
          "name": "tokenId",
          "type": "uint256"
        }
      ],
      "name": "approve",
      "outputs": [],
      "stateMutability": "nonpayable",
      "type": "function"
    },
    {
      "inputs": [
        {
          "internalType": "address",
          "name": "owner",
          "type": "address"
        }
      ],
      "name": "balanceOf",
      "outputs": [
        {
          "internalType": "uint256",
          "name": "",
          "type": "uint256"
        }
      ],
      "stateMutability": "view",
      "type": "function"
    },
    {
      "inputs": [
        {
          "internalType": "uint256",
          "name": "tokenId",
          "type": "uint256"
        }
      ],
      "name": "burn",
      "outputs": [],
      "stateMutability": "nonpayable",
      "type": "function"
    },
    {
      "inputs": [
        {
          "internalType": "uint256",
          "name": "tokenId",
          "type": "uint256"
        }
      ],
      "name": "getApproved",
      "outputs": [
        {
          "internalType": "address",
          "name": "",
          "type": "address"
        }
      ],
      "stateMutability": "view",
      "type": "function"
    },
    {
      "inputs": [
        {
          "internalType": "address",
          "name": "owner",
          "type": "address"
        },
        {
          "internalType": "address",
          "name": "operator",
          "type": "address"
        }
      ],
      "name": "isApprovedForAll",
      "outputs": [
        {
          "internalType": "bool",
          "name": "",
          "type": "bool"
        }
      ],
      "stateMutability": "view",
      "type": "function"
    },
    {
      "inputs": [],
      "name": "name",
      "outputs": [
        {
          "internalType": "string",
          "name": "",
          "type": "string"
        }
      ],
      "stateMutability": "view",
      "type": "function"
    },
    {
      "inputs": [],
      "name": "owner",
      "outputs": [
        {
          "internalType": "address",
          "name": "",
          "type": "address"
        }
      ],
      "stateMutability": "view",
      "type": "function"
    },
    {
      "inputs": [
        {
          "internalType": "uint256",
          "name": "tokenId",
          "type": "uint256"
        }
      ],
      "name": "ownerOf",
      "outputs": [
        {
          "internalType": "address",
          "name": "",
          "type": "address"
        }
      ],
      "stateMutability": "view",
      "type": "function"
    },
    {
      "inputs": [],
      "name": "renounceOwnership",
      "outputs": [],
      "stateMutability": "nonpayable",
      "type": "function"
    },
    {
      "inputs": [
        {
          "internalType": "address",
          "name": "to",
          "type": "address"
        },
        {
          "internalType": "uint256",
          "name": "tokenId",
          "type": "uint256"
        },
        {
          "internalType": "string",
          "name": "uri",
          "type": "string"
        }
      ],
      "name": "safeMint",
      "outputs": [],
      "stateMutability": "nonpayable",
      "type": "function"
    },
    {
      "inputs": [
        {
          "internalType": "address",
          "name": "from",
          "type": "address"
        },
        {
          "internalType": "address",
          "name": "to",
          "type": "address"
        },
        {
          "internalType": "uint256",
          "name": "tokenId",
          "type": "uint256"
        }
      ],
      "name": "safeTransferFrom",
      "outputs": [],
      "stateMutability": "nonpayable",
      "type": "function"
    },
    {
      "inputs": [
        {
          "internalType": "address",
          "name": "from",
          "type": "address"
        },
        {
          "internalType": "address",
          "name": "to",
          "type": "address"
        },
        {
          "internalType": "uint256",
          "name": "tokenId",
          "type": "uint256"
        },
        {
          "internalType": "bytes",
          "name": "data",
          "type": "bytes"
        }
      ],
      "name": "safeTransferFrom",
      "outputs": [],
      "stateMutability": "nonpayable",
      "type": "function"
    },
    {
      "inputs": [
        {
          "internalType": "address",
          "name": "operator",
          "type": "address"
        },
        {
          "internalType": "bool",
          "name": "approved",
          "type": "bool"
        }
      ],
      "name": "setApprovalForAll",
      "outputs": [],
      "stateMutability": "nonpayable",
      "type": "function"
    },
    {
      "inputs": [
        {
          "internalType": "bytes4",
          "name": "interfaceId",
          "type": "bytes4"
        }
      ],
      "name": "supportsInterface",
      "outputs": [
        {
          "internalType": "bool",
          "name": "",
          "type": "bool"
        }
      ],
      "stateMutability": "view",
      "type": "function"
    },
    {
      "inputs": [],
      "name": "symbol",
      "outputs": [
        {
          "internalType": "string",
          "name": "",
          "type": "string"
        }
      ],
      "stateMutability": "view",
      "type": "function"
    },
    {
      "inputs": [
        {
          "internalType": "uint256",
          "name": "tokenId",
          "type": "uint256"
        }
      ],
      "name": "tokenURI",
      "outputs": [
        {
          "internalType": "string",
          "name": "",
          "type": "string"
        }
      ],
      "stateMutability": "view",
      "type": "function"
    },
    {
      "inputs": [
        {
          "internalType": "address",
          "name": "from",
          "type": "address"
        },
        {
          "internalType": "address",
          "name": "to",
          "type": "address"
        },
        {
          "internalType": "uint256",
          "name": "tokenId",
          "type": "uint256"
        }
      ],
      "name": "transferFrom",
      "outputs": [],
      "stateMutability": "nonpayable",
      "type": "function"
    },
    {
      "inputs": [
        {
          "internalType": "address",
          "name": "newOwner",
          "type": "address"
        }
      ],
      "name": "transferOwnership",
      "outputs": [],
      "stateMutability": "nonpayable",
      "type": "function"
    }
  ],
  "bytecode": "0x60806040523480156200001157600080fd5b5060405162002dff38038062002dff8339818101604052810190620000379190620003ae565b80838381600090816200004b919062000693565b5080600190816200005d919062000693565b505050600073ffffffffffffffffffffffffffffffffffffffff168173ffffffffffffffffffffffffffffffffffffffff1603620000d55760006040517f1e4fbdf7000000000000000000000000000000000000000000000000000000008152600401620000cc91906200078b565b60405180910390fd5b620000e681620000f060201b60201c565b50505050620007a8565b6000600760009054906101000a900473ffffffffffffffffffffffffffffffffffffffff16905081600760006101000a81548173ffffffffffffffffffffffffffffffffffffffff021916908373ffffffffffffffffffffffffffffffffffffffff1602179055508173ffffffffffffffffffffffffffffffffffffffff168173ffffffffffffffffffffffffffffffffffffffff167f8be0079c531659141344cd1fd0a4f28419497f9722a3daafe3b4186f6b6457e060405160405180910390a35050565b6000604051905090565b600080fd5b600080fd5b600080fd5b600080fd5b6000601f19601f8301169050919050565b7f4e487b7100000000000000000000000000000000000000000000000000000000600052604160045260246000fd5b6200021f82620001d4565b810181811067ffffffffffffffff82111715620002415762000240620001e5565b5b80604052505050565b600062000256620001b6565b905062000264828262000214565b919050565b600067ffffffffffffffff821115620002875762000286620001e5565b5b6200029282620001d4565b9050602081019050919050565b60005b83811015620002bf578082015181840152602081019050620002a2565b60008484015250505050565b6000620002e2620002dc8462000269565b6200024a565b905082815260208101848484011115620003015762000300620001cf565b5b6200030e8482856200029f565b509392505050565b600082601f8301126200032e576200032d620001ca565b5b815162000340848260208601620002cb565b91505092915050565b600073ffffffffffffffffffffffffffffffffffffffff82169050919050565b6000620003768262000349565b9050919050565b620003888162000369565b81146200039457600080fd5b50565b600081519050620003a8816200037d565b92915050565b600080600060608486031215620003ca57620003c9620001c0565b5b600084015167ffffffffffffffff811115620003eb57620003ea620001c5565b5b620003f98682870162000316565b935050602084015167ffffffffffffffff8111156200041d576200041c620001c5565b5b6200042b8682870162000316565b92505060406200043e8682870162000397565b9150509250925092565b600081519050919050565b7f4e487b7100000000000000000000000000000000000000000000000000000000600052602260045260246000fd5b600060028204905060018216806200049b57607f821691505b602082108103620004b157620004b062000453565b5b50919050565b60008190508160005260206000209050919050565b60006020601f8301049050919050565b600082821b905092915050565b6000600883026200051b7fffffffffffffffffffffffffffffffffffffffffffffffffffffffffffffffff82620004dc565b620005278683620004dc565b95508019841693508086168417925050509392505050565b6000819050919050565b6000819050919050565b6000620005746200056e62000568846200053f565b62000549565b6200053f565b9050919050565b6000819050919050565b620005908362000553565b620005a86200059f826200057b565b848454620004e9565b825550505050565b600090565b620005bf620005b0565b620005cc81848462000585565b505050565b5b81811015620005f457620005e8600082620005b5565b600181019050620005d2565b5050565b601f82111562000643576200060d81620004b7565b6200061884620004cc565b8101602085101562000628578190505b620006406200063785620004cc565b830182620005d1565b50505b505050565b600082821c905092915050565b6000620006686000198460080262000648565b1980831691505092915050565b600062000683838362000655565b9150826002028217905092915050565b6200069e8262000448565b67ffffffffffffffff811115620006ba57620006b9620001e5565b5b620006c6825462000482565b620006d3828285620005f8565b600060209050601f8311600181146200070b5760008415620006f6578287015190505b62000702858262000675565b86555062000772565b601f1984166200071b86620004b7565b60005b8281101562000745578489015182556001820191506020850194506020810190506200071e565b8683101562000765578489015162000761601f89168262000655565b8355505b6001600288020188555050505b505050505050565b620007858162000369565b82525050565b6000602082019050620007a260008301846200077a565b92915050565b61264780620007b86000396000f3fe608060405234801561001057600080fd5b50600436106101165760003560e01c8063715018a6116100a2578063b88d4fde11610071578063b88d4fde146102cb578063c87b56dd146102e7578063cd279c7c14610317578063e985e9c514610333578063f2fde38b1461036357610116565b8063715018a6146102695780638da5cb5b1461027357806395d89b4114610291578063a22cb465146102af57610116565b806323b872dd116100e957806323b872dd146101b557806342842e0e146101d157806342966c68146101ed5780636352211e1461020957806370a082311461023957610116565b806301ffc9a71461011b57806306fdde031461014b578063081812fc14610169578063095ea7b314610199575b600080fd5b61013560048036038101906101309190611b03565b61037f565b6040516101429190611b4b565b60405180910390f35b610153610391565b6040516101609190611bf6565b60405180910390f35b610183600480360381019061017e9190611c4e565b610423565b6040516101909190611cbc565b60405180910390f35b6101b360048036038101906101ae9190611d03565b61043f565b005b6101cf60048036038101906101ca9190611d43565b610455565b005b6101eb60048036038101906101e69190611d43565b610557565b005b61020760048036038101906102029190611c4e565b610577565b005b610223600480360381019061021e9190611c4e565b61058e565b6040516102309190611cbc565b60405180910390f35b610253600480360381019061024e9190611d96565b6105a0565b6040516102609190611dd2565b60405180910390f35b61027161065a565b005b61027b61066e565b6040516102889190611cbc565b60405180910390f35b610299610698565b6040516102a69190611bf6565b60405180910390f35b6102c960048036038101906102c49190611e19565b61072a565b005b6102e560048036038101906102e09190611f8e565b610740565b005b61030160048036038101906102fc9190611c4e565b610765565b60405161030e9190611bf6565b60405180910390f35b610331600480360381019061032c91906120b2565b610777565b005b61034d60048036038101906103489190612121565b610798565b60405161035a9190611b4b565b60405180910390f35b61037d60048036038101906103789190611d96565b61082c565b005b600061038a826108b2565b9050919050565b6060600080546103a090612190565b80601f01602080910402602001604051908101604052809291908181526020018280546103cc90612190565b80156104195780601f106103ee57610100808354040283529160200191610419565b820191906000526020600020905b8154815290600101906020018083116103fc57829003601f168201915b5050505050905090565b600061042e82610913565b506104388261099b565b9050919050565b610451828261044c6109d8565b6109e0565b5050565b600073ffffffffffffffffffffffffffffffffffffffff168273ffffffffffffffffffffffffffffffffffffffff16036104c75760006040517f64a0ae920000000000000000000000000000000000000000000000000000000081526004016104be9190611cbc565b60405180910390fd5b60006104db83836104d66109d8565b6109f2565b90508373ffffffffffffffffffffffffffffffffffffffff168173ffffffffffffffffffffffffffffffffffffffff1614610551578382826040517f64283d7b000000000000000000000000000000000000000000000000000000008152600401610548939291906121c1565b60405180910390fd5b50505050565b61057283838360405180602001604052806000815250610740565b505050565b61058a6000826105856109d8565b6109f2565b5050565b600061059982610913565b9050919050565b60008073ffffffffffffffffffffffffffffffffffffffff168273ffffffffffffffffffffffffffffffffffffffff16036106135760006040517f89c62b6400000000000000000000000000000000000000000000000000000000815260040161060a9190611cbc565b60405180910390fd5b600360008373ffffffffffffffffffffffffffffffffffffffff1673ffffffffffffffffffffffffffffffffffffffff168152602001908152602001600020549050919050565b610662610c0c565b61066c6000610c93565b565b6000600760009054906101000a900473ffffffffffffffffffffffffffffffffffffffff16905090565b6060600180546106a790612190565b80601f01602080910402602001604051908101604052809291908181526020018280546106d390612190565b80156107205780601f106106f557610100808354040283529160200191610720565b820191906000526020600020905b81548152906001019060200180831161070357829003601f168201915b5050505050905090565b61073c6107356109d8565b8383610d59565b5050565b61074b848484610455565b61075f6107566109d8565b85858585610ec8565b50505050565b606061077082611079565b9050919050565b61077f610c0c565b610789838361118c565b61079382826111aa565b505050565b6000600560008473ffffffffffffffffffffffffffffffffffffffff1673ffffffffffffffffffffffffffffffffffffffff16815260200190815260200160002060008373ffffffffffffffffffffffffffffffffffffffff1673ffffffffffffffffffffffffffffffffffffffff16815260200190815260200160002060009054906101000a900460ff16905092915050565b610834610c0c565b600073ffffffffffffffffffffffffffffffffffffffff168173ffffffffffffffffffffffffffffffffffffffff16036108a65760006040517f1e4fbdf700000000000000000000000000000000000000000000000000000000815260040161089d9190611cbc565b60405180910390fd5b6108af81610c93565b50565b6000634906490660e01b7bffffffffffffffffffffffffffffffffffffffffffffffffffffffff1916827bffffffffffffffffffffffffffffffffffffffffffffffffffffffff1916148061090c575061090b82611206565b5b9050919050565b60008061091f836112e8565b9050600073ffffffffffffffffffffffffffffffffffffffff168173ffffffffffffffffffffffffffffffffffffffff160361099257826040517f7e2732890000000000000000000000000000000000000000000000000000000081526004016109899190611dd2565b60405180910390fd5b80915050919050565b60006004600083815260200190815260200160002060009054906101000a900473ffffffffffffffffffffffffffffffffffffffff169050919050565b600033905090565b6109ed8383836001611325565b505050565b6000806109fe846112e8565b9050600073ffffffffffffffffffffffffffffffffffffffff168373ffffffffffffffffffffffffffffffffffffffff1614610a4057610a3f8184866114ea565b5b600073ffffffffffffffffffffffffffffffffffffffff168173ffffffffffffffffffffffffffffffffffffffff1614610ad157610a82600085600080611325565b6001600360008373ffffffffffffffffffffffffffffffffffffffff1673ffffffffffffffffffffffffffffffffffffffff168152602001908152602001600020600082825403925050819055505b600073ffffffffffffffffffffffffffffffffffffffff168573ffffffffffffffffffffffffffffffffffffffff1614610b54576001600360008773ffffffffffffffffffffffffffffffffffffffff1673ffffffffffffffffffffffffffffffffffffffff168152602001908152602001600020600082825401925050819055505b846002600086815260200190815260200160002060006101000a81548173ffffffffffffffffffffffffffffffffffffffff021916908373ffffffffffffffffffffffffffffffffffffffff160217905550838573ffffffffffffffffffffffffffffffffffffffff168273ffffffffffffffffffffffffffffffffffffffff167fddf252ad1be2c89b69c2b068fc378daa952ba7f163c4a11628f55a4df523b3ef60405160405180910390a4809150509392505050565b610c146109d8565b73ffffffffffffffffffffffffffffffffffffffff16610c3261066e565b73ffffffffffffffffffffffffffffffffffffffff1614610c9157610c556109d8565b6040517f118cdaa7000000000000000000000000000000000000000000000000000000008152600401610c889190611cbc565b60405180910390fd5b565b6000600760009054906101000a900473ffffffffffffffffffffffffffffffffffffffff16905081600760006101000a81548173ffffffffffffffffffffffffffffffffffffffff021916908373ffffffffffffffffffffffffffffffffffffffff1602179055508173ffffffffffffffffffffffffffffffffffffffff168173ffffffffffffffffffffffffffffffffffffffff167f8be0079c531659141344cd1fd0a4f28419497f9722a3daafe3b4186f6b6457e060405160405180910390a35050565b600073ffffffffffffffffffffffffffffffffffffffff168273ffffffffffffffffffffffffffffffffffffffff1603610dca57816040517f5b08ba18000000000000000000000000000000000000000000000000000000008152600401610dc19190611cbc565b60405180910390fd5b80600560008573ffffffffffffffffffffffffffffffffffffffff1673ffffffffffffffffffffffffffffffffffffffff16815260200190815260200160002060008473ffffffffffffffffffffffffffffffffffffffff1673ffffffffffffffffffffffffffffffffffffffff16815260200190815260200160002060006101000a81548160ff0219169083151502179055508173ffffffffffffffffffffffffffffffffffffffff168373ffffffffffffffffffffffffffffffffffffffff167f17307eab39ab6107e8899845ad3d59bd9653f200f220920489ca2b5937696c3183604051610ebb9190611b4b565b60405180910390a3505050565b60008373ffffffffffffffffffffffffffffffffffffffff163b1115611072578273ffffffffffffffffffffffffffffffffffffffff1663150b7a02868685856040518563ffffffff1660e01b8152600401610f27949392919061224d565b6020604051808303816000875af1925050508015610f6357506040513d601f19601f82011682018060405250810190610f6091906122ae565b60015b610fe7573d8060008114610f93576040519150601f19603f3d011682016040523d82523d6000602084013e610f98565b606091505b506000815103610fdf57836040517f64a0ae92000000000000000000000000000000000000000000000000000000008152600401610fd69190611cbc565b60405180910390fd5b805181602001fd5b63150b7a0260e01b7bffffffffffffffffffffffffffffffffffffffffffffffffffffffff1916817bffffffffffffffffffffffffffffffffffffffffffffffffffffffff19161461107057836040517f64a0ae920000000000000000000000000000000000000000000000000000000081526004016110679190611cbc565b60405180910390fd5b505b5050505050565b606061108482610913565b5060006006600084815260200190815260200160002080546110a590612190565b80601f01602080910402602001604051908101604052809291908181526020018280546110d190612190565b801561111e5780601f106110f35761010080835404028352916020019161111e565b820191906000526020600020905b81548152906001019060200180831161110157829003601f168201915b50505050509050600061112f6115ae565b90506000815103611144578192505050611187565b600082511115611179578082604051602001611161929190612317565b60405160208183030381529060405292505050611187565b611182846115c5565b925050505b919050565b6111a682826040518060200160405280600081525061162e565b5050565b806006600084815260200190815260200160002090816111ca91906124e7565b507ff8e1a15aba9398e019f0b49df1a4fde98ee17ae345cb5f6b5e2c27f5033e8ce7826040516111fa9190611dd2565b60405180910390a15050565b60007f80ac58cd000000000000000000000000000000000000000000000000000000007bffffffffffffffffffffffffffffffffffffffffffffffffffffffff1916827bffffffffffffffffffffffffffffffffffffffffffffffffffffffff191614806112d157507f5b5e139f000000000000000000000000000000000000000000000000000000007bffffffffffffffffffffffffffffffffffffffffffffffffffffffff1916827bffffffffffffffffffffffffffffffffffffffffffffffffffffffff1916145b806112e157506112e082611652565b5b9050919050565b60006002600083815260200190815260200160002060009054906101000a900473ffffffffffffffffffffffffffffffffffffffff169050919050565b808061135e5750600073ffffffffffffffffffffffffffffffffffffffff168273ffffffffffffffffffffffffffffffffffffffff1614155b1561149257600061136e84610913565b9050600073ffffffffffffffffffffffffffffffffffffffff168373ffffffffffffffffffffffffffffffffffffffff16141580156113d957508273ffffffffffffffffffffffffffffffffffffffff168173ffffffffffffffffffffffffffffffffffffffff1614155b80156113ec57506113ea8184610798565b155b1561142e57826040517fa9fbf51f0000000000000000000000000000000000000000000000000000000081526004016114259190611cbc565b60405180910390fd5b811561149057838573ffffffffffffffffffffffffffffffffffffffff168273ffffffffffffffffffffffffffffffffffffffff167f8c5be1e5ebec7d5bd14f71427d1e84f3dd0314c0f7b2291e5b200ac8c7c3b92560405160405180910390a45b505b836004600085815260200190815260200160002060006101000a81548173ffffffffffffffffffffffffffffffffffffffff021916908373ffffffffffffffffffffffffffffffffffffffff16021790555050505050565b6114f58383836116bc565b6115a957600073ffffffffffffffffffffffffffffffffffffffff168373ffffffffffffffffffffffffffffffffffffffff160361156a57806040517f7e2732890000000000000000000000000000000000000000000000000000000081526004016115619190611dd2565b60405180910390fd5b81816040517f177e802f0000000000000000000000000000000000000000000000000000000081526004016115a09291906125b9565b60405180910390fd5b505050565b606060405180602001604052806000815250905090565b60606115d082610913565b5060006115db6115ae565b905060008151116115fb5760405180602001604052806000815250611626565b806116058461177d565b604051602001611616929190612317565b6040516020818303038152906040525b915050919050565b611638838361184b565b61164d6116436109d8565b6000858585610ec8565b505050565b60007f01ffc9a7000000000000000000000000000000000000000000000000000000007bffffffffffffffffffffffffffffffffffffffffffffffffffffffff1916827bffffffffffffffffffffffffffffffffffffffffffffffffffffffff1916149050919050565b60008073ffffffffffffffffffffffffffffffffffffffff168373ffffffffffffffffffffffffffffffffffffffff161415801561177457508273ffffffffffffffffffffffffffffffffffffffff168473ffffffffffffffffffffffffffffffffffffffff16148061173557506117348484610798565b5b8061177357508273ffffffffffffffffffffffffffffffffffffffff1661175b8361099b565b73ffffffffffffffffffffffffffffffffffffffff16145b5b90509392505050565b60606000600161178c84611944565b01905060008167ffffffffffffffff8111156117ab576117aa611e63565b5b6040519080825280601f01601f1916602001820160405280156117dd5781602001600182028036833780820191505090505b509050600082602001820190505b600115611840578080600190039150507f3031323334353637383961626364656600000000000000000000000000000000600a86061a8153600a8581611834576118336125e2565b5b049450600085036117eb575b819350505050919050565b600073ffffffffffffffffffffffffffffffffffffffff168273ffffffffffffffffffffffffffffffffffffffff16036118bd5760006040517f64a0ae920000000000000000000000000000000000000000000000000000000081526004016118b49190611cbc565b60405180910390fd5b60006118cb838360006109f2565b9050600073ffffffffffffffffffffffffffffffffffffffff168173ffffffffffffffffffffffffffffffffffffffff161461193f5760006040517f73c6ac6e0000000000000000000000000000000000000000000000000000000081526004016119369190611cbc565b60405180910390fd5b505050565b600080600090507a184f03e93ff9f4daa797ed6e38ed64bf6a1f01000000000000000083106119a2577a184f03e93ff9f4daa797ed6e38ed64bf6a1f0100000000000000008381611998576119976125e2565b5b0492506040810190505b6d04ee2d6d415b85acef810000000083106119df576d04ee2d6d415b85acef810000000083816119d5576119d46125e2565b5b0492506020810190505b662386f26fc100008310611a0e57662386f26fc100008381611a0457611a036125e2565b5b0492506010810190505b6305f5e1008310611a37576305f5e1008381611a2d57611a2c6125e2565b5b0492506008810190505b6127108310611a5c576127108381611a5257611a516125e2565b5b0492506004810190505b60648310611a7f5760648381611a7557611a746125e2565b5b0492506002810190505b600a8310611a8e576001810190505b80915050919050565b6000604051905090565b600080fd5b600080fd5b60007fffffffff0000000000000000000000000000000000000000000000000000000082169050919050565b611ae081611aab565b8114611aeb57600080fd5b50565b600081359050611afd81611ad7565b92915050565b600060208284031215611b1957611b18611aa1565b5b6000611b2784828501611aee565b91505092915050565b60008115159050919050565b611b4581611b30565b82525050565b6000602082019050611b606000830184611b3c565b92915050565b600081519050919050565b600082825260208201905092915050565b60005b83811015611ba0578082015181840152602081019050611b85565b60008484015250505050565b6000601f19601f8301169050919050565b6000611bc882611b66565b611bd28185611b71565b9350611be2818560208601611b82565b611beb81611bac565b840191505092915050565b60006020820190508181036000830152611c108184611bbd565b905092915050565b6000819050919050565b611c2b81611c18565b8114611c3657600080fd5b50565b600081359050611c4881611c22565b92915050565b600060208284031215611c6457611c63611aa1565b5b6000611c7284828501611c39565b91505092915050565b600073ffffffffffffffffffffffffffffffffffffffff82169050919050565b6000611ca682611c7b565b9050919050565b611cb681611c9b565b82525050565b6000602082019050611cd16000830184611cad565b92915050565b611ce081611c9b565b8114611ceb57600080fd5b50565b600081359050611cfd81611cd7565b92915050565b60008060408385031215611d1a57611d19611aa1565b5b6000611d2885828601611cee565b9250506020611d3985828601611c39565b9150509250929050565b600080600060608486031215611d5c57611d5b611aa1565b5b6000611d6a86828701611cee565b9350506020611d7b86828701611cee565b9250506040611d8c86828701611c39565b9150509250925092565b600060208284031215611dac57611dab611aa1565b5b6000611dba84828501611cee565b91505092915050565b611dcc81611c18565b82525050565b6000602082019050611de76000830184611dc3565b92915050565b611df681611b30565b8114611e0157600080fd5b50565b600081359050611e1381611ded565b92915050565b60008060408385031215611e3057611e2f611aa1565b5b6000611e3e85828601611cee565b9250506020611e4f85828601611e04565b9150509250929050565b600080fd5b600080fd5b7f4e487b7100000000000000000000000000000000000000000000000000000000600052604160045260246000fd5b611e9b82611bac565b810181811067ffffffffffffffff82111715611eba57611eb9611e63565b5b80604052505050565b6000611ecd611a97565b9050611ed98282611e92565b919050565b600067ffffffffffffffff821115611ef957611ef8611e63565b5b611f0282611bac565b9050602081019050919050565b82818337600083830152505050565b6000611f31611f2c84611ede565b611ec3565b905082815260208101848484011115611f4d57611f4c611e5e565b5b611f58848285611f0f565b509392505050565b600082601f830112611f7557611f74611e59565b5b8135611f85848260208601611f1e565b91505092915050565b60008060008060808587031215611fa857611fa7611aa1565b5b6000611fb687828801611cee565b9450506020611fc787828801611cee565b9350506040611fd887828801611c39565b925050606085013567ffffffffffffffff811115611ff957611ff8611aa6565b5b61200587828801611f60565b91505092959194509250565b600067ffffffffffffffff82111561202c5761202b611e63565b5b61203582611bac565b9050602081019050919050565b600061205561205084612011565b611ec3565b90508281526020810184848401111561207157612070611e5e565b5b61207c848285611f0f565b509392505050565b600082601f83011261209957612098611e59565b5b81356120a9848260208601612042565b91505092915050565b6000806000606084860312156120cb576120ca611aa1565b5b60006120d986828701611cee565b93505060206120ea86828701611c39565b925050604084013567ffffffffffffffff81111561210b5761210a611aa6565b5b61211786828701612084565b9150509250925092565b6000806040838503121561213857612137611aa1565b5b600061214685828601611cee565b925050602061215785828601611cee565b9150509250929050565b7f4e487b7100000000000000000000000000000000000000000000000000000000600052602260045260246000fd5b600060028204905060018216806121a857607f821691505b6020821081036121bb576121ba612161565b5b50919050565b60006060820190506121d66000830186611cad565b6121e36020830185611dc3565b6121f06040830184611cad565b949350505050565b600081519050919050565b600082825260208201905092915050565b600061221f826121f8565b6122298185612203565b9350612239818560208601611b82565b61224281611bac565b840191505092915050565b60006080820190506122626000830187611cad565b61226f6020830186611cad565b61227c6040830185611dc3565b818103606083015261228e8184612214565b905095945050505050565b6000815190506122a881611ad7565b92915050565b6000602082840312156122c4576122c3611aa1565b5b60006122d284828501612299565b91505092915050565b600081905092915050565b60006122f182611b66565b6122fb81856122db565b935061230b818560208601611b82565b80840191505092915050565b600061232382856122e6565b915061232f82846122e6565b91508190509392505050565b60008190508160005260206000209050919050565b60006020601f8301049050919050565b600082821b905092915050565b60006008830261239d7fffffffffffffffffffffffffffffffffffffffffffffffffffffffffffffffff82612360565b6123a78683612360565b95508019841693508086168417925050509392505050565b6000819050919050565b60006123e46123df6123da84611c18565b6123bf565b611c18565b9050919050565b6000819050919050565b6123fe836123c9565b61241261240a826123eb565b84845461236d565b825550505050565b600090565b61242761241a565b6124328184846123f5565b505050565b5b818110156124565761244b60008261241f565b600181019050612438565b5050565b601f82111561249b5761246c8161233b565b61247584612350565b81016020851015612484578190505b61249861249085612350565b830182612437565b50505b505050565b600082821c905092915050565b60006124be600019846008026124a0565b1980831691505092915050565b60006124d783836124ad565b9150826002028217905092915050565b6124f082611b66565b67ffffffffffffffff81111561250957612508611e63565b5b6125138254612190565b61251e82828561245a565b600060209050601f831160018114612551576000841561253f578287015190505b61254985826124cb565b8655506125b1565b601f19841661255f8661233b565b60005b8281101561258757848901518255600182019150602085019450602081019050612562565b868310156125a457848901516125a0601f8916826124ad565b8355505b6001600288020188555050505b505050505050565b60006040820190506125ce6000830185611cad565b6125db6020830184611dc3565b9392505050565b7f4e487b7100000000000000000000000000000000000000000000000000000000600052601260045260246000fdfea264697066735822122072018b08a59ec61e552fbe089f6ff5b1765fff519fdce4b8f647a92a47a1f2d664736f6c63430008140033",
  "linkReferences": {},
  "deployedLinkReferences": {}
}