{
  "_format": "hh-sol-artifact-1",
  "contractName": "PersonalAgreement",
  "sourceName": "contracts/PersonalAgreement.sol",
  "abi": [
    {
      "anonymous": false,
      "inputs": [
        {
          "indexed": false,
          "internalType": "uint256",
          "name": "agreementId",
          "type": "uint256"
        },
        {
          "indexed": false,
          "internalType": "address",
          "name": "party1",
          "type": "address"
        },
        {
          "indexed": false,
          "internalType": "address",
          "name": "party2",
          "type": "address"
        },
        {
          "indexed": false,
          "internalType": "string",
          "name": "terms",
          "type": "string"
        }
      ],
      "name": "AgreementCreated",
      "type": "event"
    },
    {
      "anonymous": false,
      "inputs": [
        {
          "indexed": false,
          "internalType": "uint256",
          "name": "agreementId",
          "type": "uint256"
        },
        {
          "indexed": false,
          "internalType": "address",
          "name": "party",
          "type": "address"
        }
      ],
      "name": "AgreementSigned",
      "type": "event"
    },
    {
      "inputs": [
        {
          "internalType": "uint256",
          "name": "",
          "type": "uint256"
        }
      ],
      "name": "agreements",
      "outputs": [
        {
          "internalType": "address",
          "name": "party1",
          "type": "address"
        },
        {
          "internalType": "address",
          "name": "party2",
          "type": "address"
        },
        {
          "internalType": "string",
          "name": "terms",
          "type": "string"
        },
        {
          "internalType": "bool",
          "name": "signedByParty1",
          "type": "bool"
        },
        {
          "internalType": "bool",
          "name": "signedByParty2",
          "type": "bool"
        }
      ],
      "stateMutability": "view",
      "type": "function"
    },
    {
      "inputs": [
        {
          "internalType": "address",
          "name": "_party2",
          "type": "address"
        },
        {
          "internalType": "string",
          "name": "_terms",
          "type": "string"
        }
      ],
      "name": "createAgreement",
      "outputs": [],
      "stateMutability": "nonpayable",
      "type": "function"
    },
    {
      "inputs": [
        {
          "internalType": "uint256",
          "name": "_agreementId",
          "type": "uint256"
        }
      ],
      "name": "getAgreement",
      "outputs": [
        {
          "components": [
            {
              "internalType": "address",
              "name": "party1",
              "type": "address"
            },
            {
              "internalType": "address",
              "name": "party2",
              "type": "address"
            },
            {
              "internalType": "string",
              "name": "terms",
              "type": "string"
            },
            {
              "internalType": "bool",
              "name": "signedByParty1",
              "type": "bool"
            },
            {
              "internalType": "bool",
              "name": "signedByParty2",
              "type": "bool"
            }
          ],
          "internalType": "struct PersonalAgreement.Agreement",
          "name": "",
          "type": "tuple"
        }
      ],
      "stateMutability": "view",
      "type": "function"
    },
    {
      "inputs": [
        {
          "internalType": "uint256",
          "name": "_agreementId",
          "type": "uint256"
        }
      ],
      "name": "signAgreement",
      "outputs": [],
      "stateMutability": "nonpayable",
      "type": "function"
    }
  ],
  "bytecode": "0x608060405234801561001057600080fd5b5061112d806100206000396000f3fe608060405234801561001057600080fd5b506004361061004c5760003560e01c806303742de01461005157806344ff2b921461006d5780634f9f6fe614610089578063bd14de96146100b9575b600080fd5b61006b60048036038101906100669190610867565b6100ed565b005b61008760048036038101906100829190610a38565b61032a565b005b6100a3600480360381019061009e9190610867565b6104e6565b6040516100b09190610bb3565b60405180910390f35b6100d360048036038101906100ce9190610867565b610696565b6040516100e4959493929190610c3d565b60405180910390f35b600080828154811061010257610101610c97565b5b906000526020600020906004020190508060000160009054906101000a900473ffffffffffffffffffffffffffffffffffffffff1673ffffffffffffffffffffffffffffffffffffffff163373ffffffffffffffffffffffffffffffffffffffff1614806101bf57508060010160009054906101000a900473ffffffffffffffffffffffffffffffffffffffff1673ffffffffffffffffffffffffffffffffffffffff163373ffffffffffffffffffffffffffffffffffffffff16145b6101fe576040517f08c379a00000000000000000000000000000000000000000000000000000000081526004016101f590610d12565b60405180910390fd5b8060000160009054906101000a900473ffffffffffffffffffffffffffffffffffffffff1673ffffffffffffffffffffffffffffffffffffffff163373ffffffffffffffffffffffffffffffffffffffff16036102775760018160030160006101000a81548160ff0219169083151502179055506102ed565b8060010160009054906101000a900473ffffffffffffffffffffffffffffffffffffffff1673ffffffffffffffffffffffffffffffffffffffff163373ffffffffffffffffffffffffffffffffffffffff16036102ec5760018160030160016101000a81548160ff0219169083151502179055505b5b7f8627d1daa39d8946525ef5ff641bab4fa900fccf251de0a3094390b09f96d720823360405161031e929190610d41565b60405180910390a15050565b60006040518060a001604052803373ffffffffffffffffffffffffffffffffffffffff1681526020018473ffffffffffffffffffffffffffffffffffffffff16815260200183815260200160001515815260200160001515815250908060018154018082558091505060019003906000526020600020906004020160009091909190915060008201518160000160006101000a81548173ffffffffffffffffffffffffffffffffffffffff021916908373ffffffffffffffffffffffffffffffffffffffff16021790555060208201518160010160006101000a81548173ffffffffffffffffffffffffffffffffffffffff021916908373ffffffffffffffffffffffffffffffffffffffff16021790555060408201518160020190816104519190610f76565b5060608201518160030160006101000a81548160ff02191690831515021790555060808201518160030160016101000a81548160ff02191690831515021790555050507f2e3706ae722bcec59a721285f7eb3714e2cac0f97c8d2ba4b1b138046262132160016000805490506104c79190611077565b3384846040516104da94939291906110ab565b60405180910390a15050565b6104ee6107be565b6000828154811061050257610501610c97565b5b90600052602060002090600402016040518060a00160405290816000820160009054906101000a900473ffffffffffffffffffffffffffffffffffffffff1673ffffffffffffffffffffffffffffffffffffffff1673ffffffffffffffffffffffffffffffffffffffff1681526020016001820160009054906101000a900473ffffffffffffffffffffffffffffffffffffffff1673ffffffffffffffffffffffffffffffffffffffff1673ffffffffffffffffffffffffffffffffffffffff1681526020016002820180546105d790610d99565b80601f016020809104026020016040519081016040528092919081815260200182805461060390610d99565b80156106505780601f1061062557610100808354040283529160200191610650565b820191906000526020600020905b81548152906001019060200180831161063357829003601f168201915b505050505081526020016003820160009054906101000a900460ff161515151581526020016003820160019054906101000a900460ff1615151515815250509050919050565b600081815481106106a657600080fd5b90600052602060002090600402016000915090508060000160009054906101000a900473ffffffffffffffffffffffffffffffffffffffff16908060010160009054906101000a900473ffffffffffffffffffffffffffffffffffffffff169080600201805461071590610d99565b80601f016020809104026020016040519081016040528092919081815260200182805461074190610d99565b801561078e5780601f106107635761010080835404028352916020019161078e565b820191906000526020600020905b81548152906001019060200180831161077157829003601f168201915b5050505050908060030160009054906101000a900460ff16908060030160019054906101000a900460ff16905085565b6040518060a00160405280600073ffffffffffffffffffffffffffffffffffffffff168152602001600073ffffffffffffffffffffffffffffffffffffffff168152602001606081526020016000151581526020016000151581525090565b6000604051905090565b600080fd5b600080fd5b6000819050919050565b61084481610831565b811461084f57600080fd5b50565b6000813590506108618161083b565b92915050565b60006020828403121561087d5761087c610827565b5b600061088b84828501610852565b91505092915050565b600073ffffffffffffffffffffffffffffffffffffffff82169050919050565b60006108bf82610894565b9050919050565b6108cf816108b4565b81146108da57600080fd5b50565b6000813590506108ec816108c6565b92915050565b600080fd5b600080fd5b6000601f19601f8301169050919050565b7f4e487b7100000000000000000000000000000000000000000000000000000000600052604160045260246000fd5b610945826108fc565b810181811067ffffffffffffffff821117156109645761096361090d565b5b80604052505050565b600061097761081d565b9050610983828261093c565b919050565b600067ffffffffffffffff8211156109a3576109a261090d565b5b6109ac826108fc565b9050602081019050919050565b82818337600083830152505050565b60006109db6109d684610988565b61096d565b9050828152602081018484840111156109f7576109f66108f7565b5b610a028482856109b9565b509392505050565b600082601f830112610a1f57610a1e6108f2565b5b8135610a2f8482602086016109c8565b91505092915050565b60008060408385031215610a4f57610a4e610827565b5b6000610a5d858286016108dd565b925050602083013567ffffffffffffffff811115610a7e57610a7d61082c565b5b610a8a85828601610a0a565b9150509250929050565b610a9d816108b4565b82525050565b600081519050919050565b600082825260208201905092915050565b60005b83811015610add578082015181840152602081019050610ac2565b60008484015250505050565b6000610af482610aa3565b610afe8185610aae565b9350610b0e818560208601610abf565b610b17816108fc565b840191505092915050565b60008115159050919050565b610b3781610b22565b82525050565b600060a083016000830151610b556000860182610a94565b506020830151610b686020860182610a94565b5060408301518482036040860152610b808282610ae9565b9150506060830151610b956060860182610b2e565b506080830151610ba86080860182610b2e565b508091505092915050565b60006020820190508181036000830152610bcd8184610b3d565b905092915050565b610bde816108b4565b82525050565b600082825260208201905092915050565b6000610c0082610aa3565b610c0a8185610be4565b9350610c1a818560208601610abf565b610c23816108fc565b840191505092915050565b610c3781610b22565b82525050565b600060a082019050610c526000830188610bd5565b610c5f6020830187610bd5565b8181036040830152610c718186610bf5565b9050610c806060830185610c2e565b610c8d6080830184610c2e565b9695505050505050565b7f4e487b7100000000000000000000000000000000000000000000000000000000600052603260045260246000fd5b7f4e6f74206120706172747920746f20746869732061677265656d656e74000000600082015250565b6000610cfc601d83610be4565b9150610d0782610cc6565b602082019050919050565b60006020820190508181036000830152610d2b81610cef565b9050919050565b610d3b81610831565b82525050565b6000604082019050610d566000830185610d32565b610d636020830184610bd5565b9392505050565b7f4e487b7100000000000000000000000000000000000000000000000000000000600052602260045260246000fd5b60006002820490506001821680610db157607f821691505b602082108103610dc457610dc3610d6a565b5b50919050565b60008190508160005260206000209050919050565b60006020601f8301049050919050565b600082821b905092915050565b600060088302610e2c7fffffffffffffffffffffffffffffffffffffffffffffffffffffffffffffffff82610def565b610e368683610def565b95508019841693508086168417925050509392505050565b6000819050919050565b6000610e73610e6e610e6984610831565b610e4e565b610831565b9050919050565b6000819050919050565b610e8d83610e58565b610ea1610e9982610e7a565b848454610dfc565b825550505050565b600090565b610eb6610ea9565b610ec1818484610e84565b505050565b5b81811015610ee557610eda600082610eae565b600181019050610ec7565b5050565b601f821115610f2a57610efb81610dca565b610f0484610ddf565b81016020851015610f13578190505b610f27610f1f85610ddf565b830182610ec6565b50505b505050565b600082821c905092915050565b6000610f4d60001984600802610f2f565b1980831691505092915050565b6000610f668383610f3c565b9150826002028217905092915050565b610f7f82610aa3565b67ffffffffffffffff811115610f9857610f9761090d565b5b610fa28254610d99565b610fad828285610ee9565b600060209050601f831160018114610fe05760008415610fce578287015190505b610fd88582610f5a565b865550611040565b601f198416610fee86610dca565b60005b8281101561101657848901518255600182019150602085019450602081019050610ff1565b86831015611033578489015161102f601f891682610f3c565b8355505b6001600288020188555050505b505050505050565b7f4e487b7100000000000000000000000000000000000000000000000000000000600052601160045260246000fd5b600061108282610831565b915061108d83610831565b92508282039050818111156110a5576110a4611048565b5b92915050565b60006080820190506110c06000830187610d32565b6110cd6020830186610bd5565b6110da6040830185610bd5565b81810360608301526110ec8184610bf5565b90509594505050505056fea26469706673582212201c77d0522473bd0951a954cb631a6ff8ce8cd34d5767b5458d52647c5120371064736f6c63430008140033",
  "linkReferences": {},
  "deployedLinkReferences": {}
}