{
  "_format": "hh-sol-artifact-1",
  "contractName": "MyNFT",
  "sourceName": "contracts/MyNFT.sol",
  "abi": [
    {
      "inputs": [
        {
          "internalType": "address",
          "name": "initialOwner",
          "type": "address"
        }
      ],
      "stateMutability": "nonpayable",
      "type": "constructor"
    },
    {
      "inputs": [
        {
          "internalType": "address",
          "name": "sender",
          "type": "address"
        },
        {
          "internalType": "uint256",
          "name": "tokenId",
          "type": "uint256"
        },
        {
          "internalType": "address",
          "name": "owner",
          "type": "address"
        }
      ],
      "name": "ERC721IncorrectOwner",
      "type": "error"
    },
    {
      "inputs": [
        {
          "internalType": "address",
          "name": "operator",
          "type": "address"
        },
        {
          "internalType": "uint256",
          "name": "tokenId",
          "type": "uint256"
        }
      ],
      "name": "ERC721InsufficientApproval",
      "type": "error"
    },
    {
      "inputs": [
        {
          "internalType": "address",
          "name": "approver",
          "type": "address"
        }
      ],
      "name": "ERC721InvalidApprover",
      "type": "error"
    },
    {
      "inputs": [
        {
          "internalType": "address",
          "name": "operator",
          "type": "address"
        }
      ],
      "name": "ERC721InvalidOperator",
      "type": "error"
    },
    {
      "inputs": [
        {
          "internalType": "address",
          "name": "owner",
          "type": "address"
        }
      ],
      "name": "ERC721InvalidOwner",
      "type": "error"
    },
    {
      "inputs": [
        {
          "internalType": "address",
          "name": "receiver",
          "type": "address"
        }
      ],
      "name": "ERC721InvalidReceiver",
      "type": "error"
    },
    {
      "inputs": [
        {
          "internalType": "address",
          "name": "sender",
          "type": "address"
        }
      ],
      "name": "ERC721InvalidSender",
      "type": "error"
    },
    {
      "inputs": [
        {
          "internalType": "uint256",
          "name": "tokenId",
          "type": "uint256"
        }
      ],
      "name": "ERC721NonexistentToken",
      "type": "error"
    },
    {
      "inputs": [
        {
          "internalType": "address",
          "name": "owner",
          "type": "address"
        }
      ],
      "name": "OwnableInvalidOwner",
      "type": "error"
    },
    {
      "inputs": [
        {
          "internalType": "address",
          "name": "account",
          "type": "address"
        }
      ],
      "name": "OwnableUnauthorizedAccount",
      "type": "error"
    },
    {
      "anonymous": false,
      "inputs": [
        {
          "indexed": true,
          "internalType": "address",
          "name": "owner",
          "type": "address"
        },
        {
          "indexed": true,
          "internalType": "address",
          "name": "approved",
          "type": "address"
        },
        {
          "indexed": true,
          "internalType": "uint256",
          "name": "tokenId",
          "type": "uint256"
        }
      ],
      "name": "Approval",
      "type": "event"
    },
    {
      "anonymous": false,
      "inputs": [
        {
          "indexed": true,
          "internalType": "address",
          "name": "owner",
          "type": "address"
        },
        {
          "indexed": true,
          "internalType": "address",
          "name": "operator",
          "type": "address"
        },
        {
          "indexed": false,
          "internalType": "bool",
          "name": "approved",
          "type": "bool"
        }
      ],
      "name": "ApprovalForAll",
      "type": "event"
    },
    {
      "anonymous": false,
      "inputs": [
        {
          "indexed": false,
          "internalType": "uint256",
          "name": "_fromTokenId",
          "type": "uint256"
        },
        {
          "indexed": false,
          "internalType": "uint256",
          "name": "_toTokenId",
          "type": "uint256"
        }
      ],
      "name": "BatchMetadataUpdate",
      "type": "event"
    },
    {
      "anonymous": false,
      "inputs": [
        {
          "indexed": false,
          "internalType": "uint256",
          "name": "_tokenId",
          "type": "uint256"
        }
      ],
      "name": "MetadataUpdate",
      "type": "event"
    },
    {
      "anonymous": false,
      "inputs": [
        {
          "indexed": true,
          "internalType": "address",
          "name": "previousOwner",
          "type": "address"
        },
        {
          "indexed": true,
          "internalType": "address",
          "name": "newOwner",
          "type": "address"
        }
      ],
      "name": "OwnershipTransferred",
      "type": "event"
    },
    {
      "anonymous": false,
      "inputs": [
        {
          "indexed": true,
          "internalType": "address",
          "name": "from",
          "type": "address"
        },
        {
          "indexed": true,
          "internalType": "address",
          "name": "to",
          "type": "address"
        },
        {
          "indexed": true,
          "internalType": "uint256",
          "name": "tokenId",
          "type": "uint256"
        }
      ],
      "name": "Transfer",
      "type": "event"
    },
    {
      "inputs": [
        {
          "internalType": "address",
          "name": "to",
          "type": "address"
        },
        {
          "internalType": "uint256",
          "name": "tokenId",
          "type": "uint256"
        }
      ],
      "name": "approve",
      "outputs": [],
      "stateMutability": "nonpayable",
      "type": "function"
    },
    {
      "inputs": [
        {
          "internalType": "address",
          "name": "owner",
          "type": "address"
        }
      ],
      "name": "balanceOf",
      "outputs": [
        {
          "internalType": "uint256",
          "name": "",
          "type": "uint256"
        }
      ],
      "stateMutability": "view",
      "type": "function"
    },
    {
      "inputs": [
        {
          "internalType": "uint256",
          "name": "tokenId",
          "type": "uint256"
        }
      ],
      "name": "burn",
      "outputs": [],
      "stateMutability": "nonpayable",
      "type": "function"
    },
    {
      "inputs": [
        {
          "internalType": "uint256",
          "name": "tokenId",
          "type": "uint256"
        }
      ],
      "name": "getApproved",
      "outputs": [
        {
          "internalType": "address",
          "name": "",
          "type": "address"
        }
      ],
      "stateMutability": "view",
      "type": "function"
    },
    {
      "inputs": [
        {
          "internalType": "address",
          "name": "owner",
          "type": "address"
        },
        {
          "internalType": "address",
          "name": "operator",
          "type": "address"
        }
      ],
      "name": "isApprovedForAll",
      "outputs": [
        {
          "internalType": "bool",
          "name": "",
          "type": "bool"
        }
      ],
      "stateMutability": "view",
      "type": "function"
    },
    {
      "inputs": [],
      "name": "name",
      "outputs": [
        {
          "internalType": "string",
          "name": "",
          "type": "string"
        }
      ],
      "stateMutability": "view",
      "type": "function"
    },
    {
      "inputs": [],
      "name": "owner",
      "outputs": [
        {
          "internalType": "address",
          "name": "",
          "type": "address"
        }
      ],
      "stateMutability": "view",
      "type": "function"
    },
    {
      "inputs": [
        {
          "internalType": "uint256",
          "name": "tokenId",
          "type": "uint256"
        }
      ],
      "name": "ownerOf",
      "outputs": [
        {
          "internalType": "address",
          "name": "",
          "type": "address"
        }
      ],
      "stateMutability": "view",
      "type": "function"
    },
    {
      "inputs": [],
      "name": "renounceOwnership",
      "outputs": [],
      "stateMutability": "nonpayable",
      "type": "function"
    },
    {
      "inputs": [
        {
          "internalType": "address",
          "name": "to",
          "type": "address"
        },
        {
          "internalType": "string",
          "name": "tokenURI",
          "type": "string"
        }
      ],
      "name": "safeMint",
      "outputs": [],
      "stateMutability": "nonpayable",
      "type": "function"
    },
    {
      "inputs": [
        {
          "internalType": "address",
          "name": "from",
          "type": "address"
        },
        {
          "internalType": "address",
          "name": "to",
          "type": "address"
        },
        {
          "internalType": "uint256",
          "name": "tokenId",
          "type": "uint256"
        }
      ],
      "name": "safeTransferFrom",
      "outputs": [],
      "stateMutability": "nonpayable",
      "type": "function"
    },
    {
      "inputs": [
        {
          "internalType": "address",
          "name": "from",
          "type": "address"
        },
        {
          "internalType": "address",
          "name": "to",
          "type": "address"
        },
        {
          "internalType": "uint256",
          "name": "tokenId",
          "type": "uint256"
        },
        {
          "internalType": "bytes",
          "name": "data",
          "type": "bytes"
        }
      ],
      "name": "safeTransferFrom",
      "outputs": [],
      "stateMutability": "nonpayable",
      "type": "function"
    },
    {
      "inputs": [
        {
          "internalType": "address",
          "name": "operator",
          "type": "address"
        },
        {
          "internalType": "bool",
          "name": "approved",
          "type": "bool"
        }
      ],
      "name": "setApprovalForAll",
      "outputs": [],
      "stateMutability": "nonpayable",
      "type": "function"
    },
    {
      "inputs": [
        {
          "internalType": "bytes4",
          "name": "interfaceId",
          "type": "bytes4"
        }
      ],
      "name": "supportsInterface",
      "outputs": [
        {
          "internalType": "bool",
          "name": "",
          "type": "bool"
        }
      ],
      "stateMutability": "view",
      "type": "function"
    },
    {
      "inputs": [],
      "name": "symbol",
      "outputs": [
        {
          "internalType": "string",
          "name": "",
          "type": "string"
        }
      ],
      "stateMutability": "view",
      "type": "function"
    },
    {
      "inputs": [
        {
          "internalType": "uint256",
          "name": "tokenId",
          "type": "uint256"
        }
      ],
      "name": "tokenURI",
      "outputs": [
        {
          "internalType": "string",
          "name": "",
          "type": "string"
        }
      ],
      "stateMutability": "view",
      "type": "function"
    },
    {
      "inputs": [
        {
          "internalType": "address",
          "name": "from",
          "type": "address"
        },
        {
          "internalType": "address",
          "name": "to",
          "type": "address"
        },
        {
          "internalType": "uint256",
          "name": "tokenId",
          "type": "uint256"
        }
      ],
      "name": "transferFrom",
      "outputs": [],
      "stateMutability": "nonpayable",
      "type": "function"
    },
    {
      "inputs": [
        {
          "internalType": "address",
          "name": "newOwner",
          "type": "address"
        }
      ],
      "name": "transferOwnership",
      "outputs": [],
      "stateMutability": "nonpayable",
      "type": "function"
    }
  ],
  "bytecode": "0x60806040523480156200001157600080fd5b5060405162002ee138038062002ee1833981810160405281019062000037919062000290565b806040518060400160405280600581526020017f4d794e46540000000000000000000000000000000000000000000000000000008152506040518060400160405280600481526020017f4d4e4654000000000000000000000000000000000000000000000000000000008152508160009081620000b591906200053c565b508060019081620000c791906200053c565b505050600073ffffffffffffffffffffffffffffffffffffffff168173ffffffffffffffffffffffffffffffffffffffff16036200013f5760006040517f1e4fbdf700000000000000000000000000000000000000000000000000000000815260040162000136919062000634565b60405180910390fd5b62000150816200016060201b60201c565b5060016008819055505062000651565b6000600760009054906101000a900473ffffffffffffffffffffffffffffffffffffffff16905081600760006101000a81548173ffffffffffffffffffffffffffffffffffffffff021916908373ffffffffffffffffffffffffffffffffffffffff1602179055508173ffffffffffffffffffffffffffffffffffffffff168173ffffffffffffffffffffffffffffffffffffffff167f8be0079c531659141344cd1fd0a4f28419497f9722a3daafe3b4186f6b6457e060405160405180910390a35050565b600080fd5b600073ffffffffffffffffffffffffffffffffffffffff82169050919050565b600062000258826200022b565b9050919050565b6200026a816200024b565b81146200027657600080fd5b50565b6000815190506200028a816200025f565b92915050565b600060208284031215620002a957620002a862000226565b5b6000620002b98482850162000279565b91505092915050565b600081519050919050565b7f4e487b7100000000000000000000000000000000000000000000000000000000600052604160045260246000fd5b7f4e487b7100000000000000000000000000000000000000000000000000000000600052602260045260246000fd5b600060028204905060018216806200034457607f821691505b6020821081036200035a5762000359620002fc565b5b50919050565b60008190508160005260206000209050919050565b60006020601f8301049050919050565b600082821b905092915050565b600060088302620003c47fffffffffffffffffffffffffffffffffffffffffffffffffffffffffffffffff8262000385565b620003d0868362000385565b95508019841693508086168417925050509392505050565b6000819050919050565b6000819050919050565b60006200041d620004176200041184620003e8565b620003f2565b620003e8565b9050919050565b6000819050919050565b6200043983620003fc565b62000451620004488262000424565b84845462000392565b825550505050565b600090565b6200046862000459565b620004758184846200042e565b505050565b5b818110156200049d57620004916000826200045e565b6001810190506200047b565b5050565b601f821115620004ec57620004b68162000360565b620004c18462000375565b81016020851015620004d1578190505b620004e9620004e08562000375565b8301826200047a565b50505b505050565b600082821c905092915050565b60006200051160001984600802620004f1565b1980831691505092915050565b60006200052c8383620004fe565b9150826002028217905092915050565b6200054782620002c2565b67ffffffffffffffff811115620005635762000562620002cd565b5b6200056f82546200032b565b6200057c828285620004a1565b600060209050601f831160018114620005b457600084156200059f578287015190505b620005ab85826200051e565b8655506200061b565b601f198416620005c48662000360565b60005b82811015620005ee57848901518255600182019150602085019450602081019050620005c7565b868310156200060e57848901516200060a601f891682620004fe565b8355505b6001600288020188555050505b505050505050565b6200062e816200024b565b82525050565b60006020820190506200064b600083018462000623565b92915050565b61288080620006616000396000f3fe608060405234801561001057600080fd5b50600436106101165760003560e01c8063715018a6116100a2578063b88d4fde11610071578063b88d4fde146102cb578063c87b56dd146102e7578063d204c45e14610317578063e985e9c514610333578063f2fde38b1461036357610116565b8063715018a6146102695780638da5cb5b1461027357806395d89b4114610291578063a22cb465146102af57610116565b806323b872dd116100e957806323b872dd146101b557806342842e0e146101d157806342966c68146101ed5780636352211e1461020957806370a082311461023957610116565b806301ffc9a71461011b57806306fdde031461014b578063081812fc14610169578063095ea7b314610199575b600080fd5b61013560048036038101906101309190611c46565b61037f565b6040516101429190611c8e565b60405180910390f35b6101536103e0565b6040516101609190611d39565b60405180910390f35b610183600480360381019061017e9190611d91565b610472565b6040516101909190611dff565b60405180910390f35b6101b360048036038101906101ae9190611e46565b61048e565b005b6101cf60048036038101906101ca9190611e86565b6104a4565b005b6101eb60048036038101906101e69190611e86565b6105a6565b005b61020760048036038101906102029190611d91565b6105c6565b005b610223600480360381019061021e9190611d91565b61069f565b6040516102309190611dff565b60405180910390f35b610253600480360381019061024e9190611ed9565b6106b1565b6040516102609190611f15565b60405180910390f35b61027161076b565b005b61027b61077f565b6040516102889190611dff565b60405180910390f35b6102996107a9565b6040516102a69190611d39565b60405180910390f35b6102c960048036038101906102c49190611f5c565b61083b565b005b6102e560048036038101906102e091906120d1565b610851565b005b61030160048036038101906102fc9190611d91565b610876565b60405161030e9190611d39565b60405180910390f35b610331600480360381019061032c91906121f5565b610989565b005b61034d60048036038101906103489190612251565b6109c9565b60405161035a9190611c8e565b60405180910390f35b61037d60048036038101906103789190611ed9565b610a5d565b005b6000634906490660e01b7bffffffffffffffffffffffffffffffffffffffffffffffffffffffff1916827bffffffffffffffffffffffffffffffffffffffffffffffffffffffff191614806103d957506103d882610ae3565b5b9050919050565b6060600080546103ef906122c0565b80601f016020809104026020016040519081016040528092919081815260200182805461041b906122c0565b80156104685780601f1061043d57610100808354040283529160200191610468565b820191906000526020600020905b81548152906001019060200180831161044b57829003601f168201915b5050505050905090565b600061047d82610bc5565b5061048782610c4d565b9050919050565b6104a0828261049b610c8a565b610c92565b5050565b600073ffffffffffffffffffffffffffffffffffffffff168273ffffffffffffffffffffffffffffffffffffffff16036105165760006040517f64a0ae9200000000000000000000000000000000000000000000000000000000815260040161050d9190611dff565b60405180910390fd5b600061052a8383610525610c8a565b610ca4565b90508373ffffffffffffffffffffffffffffffffffffffff168173ffffffffffffffffffffffffffffffffffffffff16146105a0578382826040517f64283d7b000000000000000000000000000000000000000000000000000000008152600401610597939291906122f1565b60405180910390fd5b50505050565b6105c183838360405180602001604052806000815250610851565b505050565b3373ffffffffffffffffffffffffffffffffffffffff166105e68261069f565b73ffffffffffffffffffffffffffffffffffffffff16148061063b57503373ffffffffffffffffffffffffffffffffffffffff1661062382610472565b73ffffffffffffffffffffffffffffffffffffffff16145b80610654575061065361064d8261069f565b336109c9565b5b610693576040517f08c379a000000000000000000000000000000000000000000000000000000000815260040161068a9061239a565b60405180910390fd5b61069c81610ebe565b50565b60006106aa82610bc5565b9050919050565b60008073ffffffffffffffffffffffffffffffffffffffff168273ffffffffffffffffffffffffffffffffffffffff16036107245760006040517f89c62b6400000000000000000000000000000000000000000000000000000000815260040161071b9190611dff565b60405180910390fd5b600360008373ffffffffffffffffffffffffffffffffffffffff1673ffffffffffffffffffffffffffffffffffffffff168152602001908152602001600020549050919050565b610773610f44565b61077d6000610fcb565b565b6000600760009054906101000a900473ffffffffffffffffffffffffffffffffffffffff16905090565b6060600180546107b8906122c0565b80601f01602080910402602001604051908101604052809291908181526020018280546107e4906122c0565b80156108315780601f1061080657610100808354040283529160200191610831565b820191906000526020600020905b81548152906001019060200180831161081457829003601f168201915b5050505050905090565b61084d610846610c8a565b8383611091565b5050565b61085c8484846104a4565b610870610867610c8a565b85858585611200565b50505050565b606061088182610bc5565b5060006006600084815260200190815260200160002080546108a2906122c0565b80601f01602080910402602001604051908101604052809291908181526020018280546108ce906122c0565b801561091b5780601f106108f05761010080835404028352916020019161091b565b820191906000526020600020905b8154815290600101906020018083116108fe57829003601f168201915b50505050509050600061092c6113b1565b90506000815103610941578192505050610984565b60008251111561097657808260405160200161095e9291906123f6565b60405160208183030381529060405292505050610984565b61097f846113c8565b925050505b919050565b610991610f44565b60006008549050600860008154809291906109ab90612449565b91905055506109ba8382611431565b6109c4818361144f565b505050565b6000600560008473ffffffffffffffffffffffffffffffffffffffff1673ffffffffffffffffffffffffffffffffffffffff16815260200190815260200160002060008373ffffffffffffffffffffffffffffffffffffffff1673ffffffffffffffffffffffffffffffffffffffff16815260200190815260200160002060009054906101000a900460ff16905092915050565b610a65610f44565b600073ffffffffffffffffffffffffffffffffffffffff168173ffffffffffffffffffffffffffffffffffffffff1603610ad75760006040517f1e4fbdf7000000000000000000000000000000000000000000000000000000008152600401610ace9190611dff565b60405180910390fd5b610ae081610fcb565b50565b60007f80ac58cd000000000000000000000000000000000000000000000000000000007bffffffffffffffffffffffffffffffffffffffffffffffffffffffff1916827bffffffffffffffffffffffffffffffffffffffffffffffffffffffff19161480610bae57507f5b5e139f000000000000000000000000000000000000000000000000000000007bffffffffffffffffffffffffffffffffffffffffffffffffffffffff1916827bffffffffffffffffffffffffffffffffffffffffffffffffffffffff1916145b80610bbe5750610bbd826114ab565b5b9050919050565b600080610bd183611515565b9050600073ffffffffffffffffffffffffffffffffffffffff168173ffffffffffffffffffffffffffffffffffffffff1603610c4457826040517f7e273289000000000000000000000000000000000000000000000000000000008152600401610c3b9190611f15565b60405180910390fd5b80915050919050565b60006004600083815260200190815260200160002060009054906101000a900473ffffffffffffffffffffffffffffffffffffffff169050919050565b600033905090565b610c9f8383836001611552565b505050565b600080610cb084611515565b9050600073ffffffffffffffffffffffffffffffffffffffff168373ffffffffffffffffffffffffffffffffffffffff1614610cf257610cf1818486611717565b5b600073ffffffffffffffffffffffffffffffffffffffff168173ffffffffffffffffffffffffffffffffffffffff1614610d8357610d34600085600080611552565b6001600360008373ffffffffffffffffffffffffffffffffffffffff1673ffffffffffffffffffffffffffffffffffffffff168152602001908152602001600020600082825403925050819055505b600073ffffffffffffffffffffffffffffffffffffffff168573ffffffffffffffffffffffffffffffffffffffff1614610e06576001600360008773ffffffffffffffffffffffffffffffffffffffff1673ffffffffffffffffffffffffffffffffffffffff168152602001908152602001600020600082825401925050819055505b846002600086815260200190815260200160002060006101000a81548173ffffffffffffffffffffffffffffffffffffffff021916908373ffffffffffffffffffffffffffffffffffffffff160217905550838573ffffffffffffffffffffffffffffffffffffffff168273ffffffffffffffffffffffffffffffffffffffff167fddf252ad1be2c89b69c2b068fc378daa952ba7f163c4a11628f55a4df523b3ef60405160405180910390a4809150509392505050565b6000610ecd6000836000610ca4565b9050600073ffffffffffffffffffffffffffffffffffffffff168173ffffffffffffffffffffffffffffffffffffffff1603610f4057816040517f7e273289000000000000000000000000000000000000000000000000000000008152600401610f379190611f15565b60405180910390fd5b5050565b610f4c610c8a565b73ffffffffffffffffffffffffffffffffffffffff16610f6a61077f565b73ffffffffffffffffffffffffffffffffffffffff1614610fc957610f8d610c8a565b6040517f118cdaa7000000000000000000000000000000000000000000000000000000008152600401610fc09190611dff565b60405180910390fd5b565b6000600760009054906101000a900473ffffffffffffffffffffffffffffffffffffffff16905081600760006101000a81548173ffffffffffffffffffffffffffffffffffffffff021916908373ffffffffffffffffffffffffffffffffffffffff1602179055508173ffffffffffffffffffffffffffffffffffffffff168173ffffffffffffffffffffffffffffffffffffffff167f8be0079c531659141344cd1fd0a4f28419497f9722a3daafe3b4186f6b6457e060405160405180910390a35050565b600073ffffffffffffffffffffffffffffffffffffffff168273ffffffffffffffffffffffffffffffffffffffff160361110257816040517f5b08ba180000000000000000000000000000000000000000000000000000000081526004016110f99190611dff565b60405180910390fd5b80600560008573ffffffffffffffffffffffffffffffffffffffff1673ffffffffffffffffffffffffffffffffffffffff16815260200190815260200160002060008473ffffffffffffffffffffffffffffffffffffffff1673ffffffffffffffffffffffffffffffffffffffff16815260200190815260200160002060006101000a81548160ff0219169083151502179055508173ffffffffffffffffffffffffffffffffffffffff168373ffffffffffffffffffffffffffffffffffffffff167f17307eab39ab6107e8899845ad3d59bd9653f200f220920489ca2b5937696c31836040516111f39190611c8e565b60405180910390a3505050565b60008373ffffffffffffffffffffffffffffffffffffffff163b11156113aa578273ffffffffffffffffffffffffffffffffffffffff1663150b7a02868685856040518563ffffffff1660e01b815260040161125f94939291906124e6565b6020604051808303816000875af192505050801561129b57506040513d601f19601f820116820180604052508101906112989190612547565b60015b61131f573d80600081146112cb576040519150601f19603f3d011682016040523d82523d6000602084013e6112d0565b606091505b50600081510361131757836040517f64a0ae9200000000000000000000000000000000000000000000000000000000815260040161130e9190611dff565b60405180910390fd5b805181602001fd5b63150b7a0260e01b7bffffffffffffffffffffffffffffffffffffffffffffffffffffffff1916817bffffffffffffffffffffffffffffffffffffffffffffffffffffffff1916146113a857836040517f64a0ae9200000000000000000000000000000000000000000000000000000000815260040161139f9190611dff565b60405180910390fd5b505b5050505050565b606060405180602001604052806000815250905090565b60606113d382610bc5565b5060006113de6113b1565b905060008151116113fe5760405180602001604052806000815250611429565b80611408846117db565b6040516020016114199291906123f6565b6040516020818303038152906040525b915050919050565b61144b8282604051806020016040528060008152506118a9565b5050565b8060066000848152602001908152602001600020908161146f9190612720565b507ff8e1a15aba9398e019f0b49df1a4fde98ee17ae345cb5f6b5e2c27f5033e8ce78260405161149f9190611f15565b60405180910390a15050565b60007f01ffc9a7000000000000000000000000000000000000000000000000000000007bffffffffffffffffffffffffffffffffffffffffffffffffffffffff1916827bffffffffffffffffffffffffffffffffffffffffffffffffffffffff1916149050919050565b60006002600083815260200190815260200160002060009054906101000a900473ffffffffffffffffffffffffffffffffffffffff169050919050565b808061158b5750600073ffffffffffffffffffffffffffffffffffffffff168273ffffffffffffffffffffffffffffffffffffffff1614155b156116bf57600061159b84610bc5565b9050600073ffffffffffffffffffffffffffffffffffffffff168373ffffffffffffffffffffffffffffffffffffffff161415801561160657508273ffffffffffffffffffffffffffffffffffffffff168173ffffffffffffffffffffffffffffffffffffffff1614155b8015611619575061161781846109c9565b155b1561165b57826040517fa9fbf51f0000000000000000000000000000000000000000000000000000000081526004016116529190611dff565b60405180910390fd5b81156116bd57838573ffffffffffffffffffffffffffffffffffffffff168273ffffffffffffffffffffffffffffffffffffffff167f8c5be1e5ebec7d5bd14f71427d1e84f3dd0314c0f7b2291e5b200ac8c7c3b92560405160405180910390a45b505b836004600085815260200190815260200160002060006101000a81548173ffffffffffffffffffffffffffffffffffffffff021916908373ffffffffffffffffffffffffffffffffffffffff16021790555050505050565b6117228383836118cd565b6117d657600073ffffffffffffffffffffffffffffffffffffffff168373ffffffffffffffffffffffffffffffffffffffff160361179757806040517f7e27328900000000000000000000000000000000000000000000000000000000815260040161178e9190611f15565b60405180910390fd5b81816040517f177e802f0000000000000000000000000000000000000000000000000000000081526004016117cd9291906127f2565b60405180910390fd5b505050565b6060600060016117ea8461198e565b01905060008167ffffffffffffffff81111561180957611808611fa6565b5b6040519080825280601f01601f19166020018201604052801561183b5781602001600182028036833780820191505090505b509050600082602001820190505b60011561189e578080600190039150507f3031323334353637383961626364656600000000000000000000000000000000600a86061a8153600a85816118925761189161281b565b5b04945060008503611849575b819350505050919050565b6118b38383611ae1565b6118c86118be610c8a565b6000858585611200565b505050565b60008073ffffffffffffffffffffffffffffffffffffffff168373ffffffffffffffffffffffffffffffffffffffff161415801561198557508273ffffffffffffffffffffffffffffffffffffffff168473ffffffffffffffffffffffffffffffffffffffff161480611946575061194584846109c9565b5b8061198457508273ffffffffffffffffffffffffffffffffffffffff1661196c83610c4d565b73ffffffffffffffffffffffffffffffffffffffff16145b5b90509392505050565b600080600090507a184f03e93ff9f4daa797ed6e38ed64bf6a1f01000000000000000083106119ec577a184f03e93ff9f4daa797ed6e38ed64bf6a1f01000000000000000083816119e2576119e161281b565b5b0492506040810190505b6d04ee2d6d415b85acef81000000008310611a29576d04ee2d6d415b85acef81000000008381611a1f57611a1e61281b565b5b0492506020810190505b662386f26fc100008310611a5857662386f26fc100008381611a4e57611a4d61281b565b5b0492506010810190505b6305f5e1008310611a81576305f5e1008381611a7757611a7661281b565b5b0492506008810190505b6127108310611aa6576127108381611a9c57611a9b61281b565b5b0492506004810190505b60648310611ac95760648381611abf57611abe61281b565b5b0492506002810190505b600a8310611ad8576001810190505b80915050919050565b600073ffffffffffffffffffffffffffffffffffffffff168273ffffffffffffffffffffffffffffffffffffffff1603611b535760006040517f64a0ae92000000000000000000000000000000000000000000000000000000008152600401611b4a9190611dff565b60405180910390fd5b6000611b6183836000610ca4565b9050600073ffffffffffffffffffffffffffffffffffffffff168173ffffffffffffffffffffffffffffffffffffffff1614611bd55760006040517f73c6ac6e000000000000000000000000000000000000000000000000000000008152600401611bcc9190611dff565b60405180910390fd5b505050565b6000604051905090565b600080fd5b600080fd5b60007fffffffff0000000000000000000000000000000000000000000000000000000082169050919050565b611c2381611bee565b8114611c2e57600080fd5b50565b600081359050611c4081611c1a565b92915050565b600060208284031215611c5c57611c5b611be4565b5b6000611c6a84828501611c31565b91505092915050565b60008115159050919050565b611c8881611c73565b82525050565b6000602082019050611ca36000830184611c7f565b92915050565b600081519050919050565b600082825260208201905092915050565b60005b83811015611ce3578082015181840152602081019050611cc8565b60008484015250505050565b6000601f19601f8301169050919050565b6000611d0b82611ca9565b611d158185611cb4565b9350611d25818560208601611cc5565b611d2e81611cef565b840191505092915050565b60006020820190508181036000830152611d538184611d00565b905092915050565b6000819050919050565b611d6e81611d5b565b8114611d7957600080fd5b50565b600081359050611d8b81611d65565b92915050565b600060208284031215611da757611da6611be4565b5b6000611db584828501611d7c565b91505092915050565b600073ffffffffffffffffffffffffffffffffffffffff82169050919050565b6000611de982611dbe565b9050919050565b611df981611dde565b82525050565b6000602082019050611e146000830184611df0565b92915050565b611e2381611dde565b8114611e2e57600080fd5b50565b600081359050611e4081611e1a565b92915050565b60008060408385031215611e5d57611e5c611be4565b5b6000611e6b85828601611e31565b9250506020611e7c85828601611d7c565b9150509250929050565b600080600060608486031215611e9f57611e9e611be4565b5b6000611ead86828701611e31565b9350506020611ebe86828701611e31565b9250506040611ecf86828701611d7c565b9150509250925092565b600060208284031215611eef57611eee611be4565b5b6000611efd84828501611e31565b91505092915050565b611f0f81611d5b565b82525050565b6000602082019050611f2a6000830184611f06565b92915050565b611f3981611c73565b8114611f4457600080fd5b50565b600081359050611f5681611f30565b92915050565b60008060408385031215611f7357611f72611be4565b5b6000611f8185828601611e31565b9250506020611f9285828601611f47565b9150509250929050565b600080fd5b600080fd5b7f4e487b7100000000000000000000000000000000000000000000000000000000600052604160045260246000fd5b611fde82611cef565b810181811067ffffffffffffffff82111715611ffd57611ffc611fa6565b5b80604052505050565b6000612010611bda565b905061201c8282611fd5565b919050565b600067ffffffffffffffff82111561203c5761203b611fa6565b5b61204582611cef565b9050602081019050919050565b82818337600083830152505050565b600061207461206f84612021565b612006565b9050828152602081018484840111156120905761208f611fa1565b5b61209b848285612052565b509392505050565b600082601f8301126120b8576120b7611f9c565b5b81356120c8848260208601612061565b91505092915050565b600080600080608085870312156120eb576120ea611be4565b5b60006120f987828801611e31565b945050602061210a87828801611e31565b935050604061211b87828801611d7c565b925050606085013567ffffffffffffffff81111561213c5761213b611be9565b5b612148878288016120a3565b91505092959194509250565b600067ffffffffffffffff82111561216f5761216e611fa6565b5b61217882611cef565b9050602081019050919050565b600061219861219384612154565b612006565b9050828152602081018484840111156121b4576121b3611fa1565b5b6121bf848285612052565b509392505050565b600082601f8301126121dc576121db611f9c565b5b81356121ec848260208601612185565b91505092915050565b6000806040838503121561220c5761220b611be4565b5b600061221a85828601611e31565b925050602083013567ffffffffffffffff81111561223b5761223a611be9565b5b612247858286016121c7565b9150509250929050565b6000806040838503121561226857612267611be4565b5b600061227685828601611e31565b925050602061228785828601611e31565b9150509250929050565b7f4e487b7100000000000000000000000000000000000000000000000000000000600052602260045260246000fd5b600060028204905060018216806122d857607f821691505b6020821081036122eb576122ea612291565b5b50919050565b60006060820190506123066000830186611df0565b6123136020830185611f06565b6123206040830184611df0565b949350505050565b7f4e6f207469656e6573207065726d69736f2070617261207175656d617220657360008201527f746520746f6b656e000000000000000000000000000000000000000000000000602082015250565b6000612384602883611cb4565b915061238f82612328565b604082019050919050565b600060208201905081810360008301526123b381612377565b9050919050565b600081905092915050565b60006123d082611ca9565b6123da81856123ba565b93506123ea818560208601611cc5565b80840191505092915050565b600061240282856123c5565b915061240e82846123c5565b91508190509392505050565b7f4e487b7100000000000000000000000000000000000000000000000000000000600052601160045260246000fd5b600061245482611d5b565b91507fffffffffffffffffffffffffffffffffffffffffffffffffffffffffffffffff82036124865761248561241a565b5b600182019050919050565b600081519050919050565b600082825260208201905092915050565b60006124b882612491565b6124c2818561249c565b93506124d2818560208601611cc5565b6124db81611cef565b840191505092915050565b60006080820190506124fb6000830187611df0565b6125086020830186611df0565b6125156040830185611f06565b818103606083015261252781846124ad565b905095945050505050565b60008151905061254181611c1a565b92915050565b60006020828403121561255d5761255c611be4565b5b600061256b84828501612532565b91505092915050565b60008190508160005260206000209050919050565b60006020601f8301049050919050565b600082821b905092915050565b6000600883026125d67fffffffffffffffffffffffffffffffffffffffffffffffffffffffffffffffff82612599565b6125e08683612599565b95508019841693508086168417925050509392505050565b6000819050919050565b600061261d61261861261384611d5b565b6125f8565b611d5b565b9050919050565b6000819050919050565b61263783612602565b61264b61264382612624565b8484546125a6565b825550505050565b600090565b612660612653565b61266b81848461262e565b505050565b5b8181101561268f57612684600082612658565b600181019050612671565b5050565b601f8211156126d4576126a581612574565b6126ae84612589565b810160208510156126bd578190505b6126d16126c985612589565b830182612670565b50505b505050565b600082821c905092915050565b60006126f7600019846008026126d9565b1980831691505092915050565b600061271083836126e6565b9150826002028217905092915050565b61272982611ca9565b67ffffffffffffffff81111561274257612741611fa6565b5b61274c82546122c0565b612757828285612693565b600060209050601f83116001811461278a5760008415612778578287015190505b6127828582612704565b8655506127ea565b601f19841661279886612574565b60005b828110156127c05784890151825560018201915060208501945060208101905061279b565b868310156127dd57848901516127d9601f8916826126e6565b8355505b6001600288020188555050505b505050505050565b60006040820190506128076000830185611df0565b6128146020830184611f06565b9392505050565b7f4e487b7100000000000000000000000000000000000000000000000000000000600052601260045260246000fdfea2646970667358221220190b6309052a8892eedb1b6afd4298e56bc31d08778ccaecd44b02eac1de60d564736f6c63430008140033",
  "linkReferences": {},
  "deployedLinkReferences": {}
}