{
  "_format": "hh-sol-artifact-1",
  "contractName": "Tournament",
  "sourceName": "contracts/Tournament.sol",
  "abi": [
    {
      "inputs": [],
      "stateMutability": "nonpayable",
      "type": "constructor"
    },
    {
      "inputs": [
        {
          "internalType": "string",
          "name": "_name",
          "type": "string"
        },
        {
          "internalType": "uint256",
          "name": "_entryFee",
          "type": "uint256"
        }
      ],
      "name": "createTournament",
      "outputs": [],
      "stateMutability": "nonpayable",
      "type": "function"
    },
    {
      "inputs": [
        {
          "internalType": "uint256",
          "name": "_tournamentId",
          "type": "uint256"
        },
        {
          "internalType": "address",
          "name": "_winner",
          "type": "address"
        }
      ],
      "name": "endTournament",
      "outputs": [],
      "stateMutability": "nonpayable",
      "type": "function"
    },
    {
      "inputs": [
        {
          "internalType": "uint256",
          "name": "_tournamentId",
          "type": "uint256"
        }
      ],
      "name": "getParticipants",
      "outputs": [
        {
          "internalType": "address[]",
          "name": "",
          "type": "address[]"
        }
      ],
      "stateMutability": "view",
      "type": "function"
    },
    {
      "inputs": [
        {
          "internalType": "uint256",
          "name": "_tournamentId",
          "type": "uint256"
        }
      ],
      "name": "getPrizePool",
      "outputs": [
        {
          "internalType": "uint256",
          "name": "",
          "type": "uint256"
        }
      ],
      "stateMutability": "view",
      "type": "function"
    },
    {
      "inputs": [],
      "name": "owner",
      "outputs": [
        {
          "internalType": "address",
          "name": "",
          "type": "address"
        }
      ],
      "stateMutability": "view",
      "type": "function"
    },
    {
      "inputs": [
        {
          "internalType": "uint256",
          "name": "_tournamentId",
          "type": "uint256"
        }
      ],
      "name": "registerParticipant",
      "outputs": [],
      "stateMutability": "payable",
      "type": "function"
    },
    {
      "inputs": [],
      "name": "tournamentCount",
      "outputs": [
        {
          "internalType": "uint256",
          "name": "",
          "type": "uint256"
        }
      ],
      "stateMutability": "view",
      "type": "function"
    },
    {
      "inputs": [
        {
          "internalType": "uint256",
          "name": "",
          "type": "uint256"
        }
      ],
      "name": "tournaments",
      "outputs": [
        {
          "internalType": "uint256",
          "name": "id",
          "type": "uint256"
        },
        {
          "internalType": "string",
          "name": "name",
          "type": "string"
        },
        {
          "internalType": "uint256",
          "name": "entryFee",
          "type": "uint256"
        },
        {
          "internalType": "uint256",
          "name": "prizePool",
          "type": "uint256"
        },
        {
          "internalType": "bool",
          "name": "active",
          "type": "bool"
        }
      ],
      "stateMutability": "view",
      "type": "function"
    }
  ],
  "bytecode": "0x608060405234801561001057600080fd5b5033600260006101000a81548173ffffffffffffffffffffffffffffffffffffffff021916908373ffffffffffffffffffffffffffffffffffffffff1602179055506112f5806100616000396000f3fe60806040526004361061007b5760003560e01c80637822be4a1161004e5780637822be4a146101315780637e0d43121461016e5780638da5cb5b14610197578063c1e3bd3e146101c25761007b565b80632865f0b41461008057806353703f5c146100a95780636e2b2c7c146100c55780637503e1b7146100f0575b600080fd5b34801561008c57600080fd5b506100a760048036038101906100a2919061094f565b6101ff565b005b6100c360048036038101906100be919061098f565b610364565b005b3480156100d157600080fd5b506100da610496565b6040516100e791906109cb565b60405180910390f35b3480156100fc57600080fd5b506101176004803603810190610112919061098f565b61049c565b604051610128959493929190610a91565b60405180910390f35b34801561013d57600080fd5b506101586004803603810190610153919061098f565b610567565b60405161016591906109cb565b60405180910390f35b34801561017a57600080fd5b5061019560048036038101906101909190610c20565b610587565b005b3480156101a357600080fd5b506101ac610736565b6040516101b99190610c8b565b60405180910390f35b3480156101ce57600080fd5b506101e960048036038101906101e4919061098f565b61075c565b6040516101f69190610d64565b60405180910390f35b600260009054906101000a900473ffffffffffffffffffffffffffffffffffffffff1673ffffffffffffffffffffffffffffffffffffffff163373ffffffffffffffffffffffffffffffffffffffff161461028f576040517f08c379a000000000000000000000000000000000000000000000000000000000815260040161028690610dd2565b60405180910390fd5b60006001600084815260200190815260200160002090508060050160009054906101000a900460ff166102f7576040517f08c379a00000000000000000000000000000000000000000000000000000000081526004016102ee90610e3e565b60405180910390fd5b60008160050160006101000a81548160ff0219169083151502179055508173ffffffffffffffffffffffffffffffffffffffff166108fc82600301549081150290604051600060405180830381858888f1935050505015801561035e573d6000803e3d6000fd5b50505050565b60006001600083815260200190815260200160002090508060050160009054906101000a900460ff166103cc576040517f08c379a00000000000000000000000000000000000000000000000000000000081526004016103c390610eaa565b60405180910390fd5b80600201543414610412576040517f08c379a000000000000000000000000000000000000000000000000000000000815260040161040990610f16565b60405180910390fd5b80600401339080600181540180825580915050600190039060005260206000200160009091909190916101000a81548173ffffffffffffffffffffffffffffffffffffffff021916908373ffffffffffffffffffffffffffffffffffffffff1602179055503481600301600082825461048b9190610f65565b925050819055505050565b60005481565b60016020528060005260406000206000915090508060000154908060010180546104c590610fc8565b80601f01602080910402602001604051908101604052809291908181526020018280546104f190610fc8565b801561053e5780601f106105135761010080835404028352916020019161053e565b820191906000526020600020905b81548152906001019060200180831161052157829003601f168201915b5050505050908060020154908060030154908060050160009054906101000a900460ff16905085565b600060016000838152602001908152602001600020600301549050919050565b600260009054906101000a900473ffffffffffffffffffffffffffffffffffffffff1673ffffffffffffffffffffffffffffffffffffffff163373ffffffffffffffffffffffffffffffffffffffff1614610617576040517f08c379a000000000000000000000000000000000000000000000000000000000815260040161060e90610dd2565b60405180910390fd5b60008081548092919061062990610ff9565b91905055506040518060c00160405280600054815260200183815260200182815260200160008152602001600067ffffffffffffffff81111561066f5761066e610af5565b5b60405190808252806020026020018201604052801561069d5781602001602082028036833780820191505090505b5081526020016001151581525060016000805481526020019081526020016000206000820151816000015560208201518160010190816106dd91906111ed565b506040820151816002015560608201518160030155608082015181600401908051906020019061070e929190610800565b5060a08201518160050160006101000a81548160ff0219169083151502179055509050505050565b600260009054906101000a900473ffffffffffffffffffffffffffffffffffffffff1681565b6060600160008381526020019081526020016000206004018054806020026020016040519081016040528092919081815260200182805480156107f457602002820191906000526020600020905b8160009054906101000a900473ffffffffffffffffffffffffffffffffffffffff1673ffffffffffffffffffffffffffffffffffffffff16815260200190600101908083116107aa575b50505050509050919050565b828054828255906000526020600020908101928215610879579160200282015b828111156108785782518260006101000a81548173ffffffffffffffffffffffffffffffffffffffff021916908373ffffffffffffffffffffffffffffffffffffffff16021790555091602001919060010190610820565b5b509050610886919061088a565b5090565b5b808211156108a357600081600090555060010161088b565b5090565b6000604051905090565b600080fd5b600080fd5b6000819050919050565b6108ce816108bb565b81146108d957600080fd5b50565b6000813590506108eb816108c5565b92915050565b600073ffffffffffffffffffffffffffffffffffffffff82169050919050565b600061091c826108f1565b9050919050565b61092c81610911565b811461093757600080fd5b50565b60008135905061094981610923565b92915050565b60008060408385031215610966576109656108b1565b5b6000610974858286016108dc565b92505060206109858582860161093a565b9150509250929050565b6000602082840312156109a5576109a46108b1565b5b60006109b3848285016108dc565b91505092915050565b6109c5816108bb565b82525050565b60006020820190506109e060008301846109bc565b92915050565b600081519050919050565b600082825260208201905092915050565b60005b83811015610a20578082015181840152602081019050610a05565b60008484015250505050565b6000601f19601f8301169050919050565b6000610a48826109e6565b610a5281856109f1565b9350610a62818560208601610a02565b610a6b81610a2c565b840191505092915050565b60008115159050919050565b610a8b81610a76565b82525050565b600060a082019050610aa660008301886109bc565b8181036020830152610ab88187610a3d565b9050610ac760408301866109bc565b610ad460608301856109bc565b610ae16080830184610a82565b9695505050505050565b600080fd5b600080fd5b7f4e487b7100000000000000000000000000000000000000000000000000000000600052604160045260246000fd5b610b2d82610a2c565b810181811067ffffffffffffffff82111715610b4c57610b4b610af5565b5b80604052505050565b6000610b5f6108a7565b9050610b6b8282610b24565b919050565b600067ffffffffffffffff821115610b8b57610b8a610af5565b5b610b9482610a2c565b9050602081019050919050565b82818337600083830152505050565b6000610bc3610bbe84610b70565b610b55565b905082815260208101848484011115610bdf57610bde610af0565b5b610bea848285610ba1565b509392505050565b600082601f830112610c0757610c06610aeb565b5b8135610c17848260208601610bb0565b91505092915050565b60008060408385031215610c3757610c366108b1565b5b600083013567ffffffffffffffff811115610c5557610c546108b6565b5b610c6185828601610bf2565b9250506020610c72858286016108dc565b9150509250929050565b610c8581610911565b82525050565b6000602082019050610ca06000830184610c7c565b92915050565b600081519050919050565b600082825260208201905092915050565b6000819050602082019050919050565b610cdb81610911565b82525050565b6000610ced8383610cd2565b60208301905092915050565b6000602082019050919050565b6000610d1182610ca6565b610d1b8185610cb1565b9350610d2683610cc2565b8060005b83811015610d57578151610d3e8882610ce1565b9750610d4983610cf9565b925050600181019050610d2a565b5085935050505092915050565b60006020820190508181036000830152610d7e8184610d06565b905092915050565b7f4e6f206175746f72697a61646f00000000000000000000000000000000000000600082015250565b6000610dbc600d836109f1565b9150610dc782610d86565b602082019050919050565b60006020820190508181036000830152610deb81610daf565b9050919050565b7f59612066696e616c697a61646f00000000000000000000000000000000000000600082015250565b6000610e28600d836109f1565b9150610e3382610df2565b602082019050919050565b60006020820190508181036000830152610e5781610e1b565b9050919050565b7f546f726e656f20696e61637469766f0000000000000000000000000000000000600082015250565b6000610e94600f836109f1565b9150610e9f82610e5e565b602082019050919050565b60006020820190508181036000830152610ec381610e87565b9050919050565b7f43756f746120696e636f72726563746100000000000000000000000000000000600082015250565b6000610f006010836109f1565b9150610f0b82610eca565b602082019050919050565b60006020820190508181036000830152610f2f81610ef3565b9050919050565b7f4e487b7100000000000000000000000000000000000000000000000000000000600052601160045260246000fd5b6000610f70826108bb565b9150610f7b836108bb565b9250828201905080821115610f9357610f92610f36565b5b92915050565b7f4e487b7100000000000000000000000000000000000000000000000000000000600052602260045260246000fd5b60006002820490506001821680610fe057607f821691505b602082108103610ff357610ff2610f99565b5b50919050565b6000611004826108bb565b91507fffffffffffffffffffffffffffffffffffffffffffffffffffffffffffffffff820361103657611035610f36565b5b600182019050919050565b60008190508160005260206000209050919050565b60006020601f8301049050919050565b600082821b905092915050565b6000600883026110a37fffffffffffffffffffffffffffffffffffffffffffffffffffffffffffffffff82611066565b6110ad8683611066565b95508019841693508086168417925050509392505050565b6000819050919050565b60006110ea6110e56110e0846108bb565b6110c5565b6108bb565b9050919050565b6000819050919050565b611104836110cf565b611118611110826110f1565b848454611073565b825550505050565b600090565b61112d611120565b6111388184846110fb565b505050565b5b8181101561115c57611151600082611125565b60018101905061113e565b5050565b601f8211156111a15761117281611041565b61117b84611056565b8101602085101561118a578190505b61119e61119685611056565b83018261113d565b50505b505050565b600082821c905092915050565b60006111c4600019846008026111a6565b1980831691505092915050565b60006111dd83836111b3565b9150826002028217905092915050565b6111f6826109e6565b67ffffffffffffffff81111561120f5761120e610af5565b5b6112198254610fc8565b611224828285611160565b600060209050601f8311600181146112575760008415611245578287015190505b61124f85826111d1565b8655506112b7565b601f19841661126586611041565b60005b8281101561128d57848901518255600182019150602085019450602081019050611268565b868310156112aa57848901516112a6601f8916826111b3565b8355505b6001600288020188555050505b50505050505056fea264697066735822122092220ae490400c2ac1c5bc9baa835108507d324b77221d543e0c9a78eef2c5a164736f6c63430008140033",
  "linkReferences": {},
  "deployedLinkReferences": {}
}