{
  "_format": "hh-sol-artifact-1",
  "contractName": "Voting",
  "sourceName": "contracts/Voting.sol",
  "abi": [
    {
      "anonymous": false,
      "inputs": [
        {
          "indexed": false,
          "internalType": "uint256",
          "name": "proposalId",
          "type": "uint256"
        },
        {
          "indexed": false,
          "internalType": "string",
          "name": "description",
          "type": "string"
        }
      ],
      "name": "ProposalCreated",
      "type": "event"
    },
    {
      "anonymous": false,
      "inputs": [
        {
          "indexed": false,
          "internalType": "address",
          "name": "voter",
          "type": "address"
        },
        {
          "indexed": false,
          "internalType": "uint256",
          "name": "proposalId",
          "type": "uint256"
        }
      ],
      "name": "Voted",
      "type": "event"
    },
    {
      "inputs": [
        {
          "internalType": "string",
          "name": "description",
          "type": "string"
        }
      ],
      "name": "createProposal",
      "outputs": [],
      "stateMutability": "nonpayable",
      "type": "function"
    },
    {
      "inputs": [
        {
          "internalType": "uint256",
          "name": "proposalId",
          "type": "uint256"
        }
      ],
      "name": "getProposal",
      "outputs": [
        {
          "internalType": "string",
          "name": "",
          "type": "string"
        },
        {
          "internalType": "uint256",
          "name": "",
          "type": "uint256"
        }
      ],
      "stateMutability": "view",
      "type": "function"
    },
    {
      "inputs": [
        {
          "internalType": "uint256",
          "name": "",
          "type": "uint256"
        }
      ],
      "name": "proposals",
      "outputs": [
        {
          "internalType": "string",
          "name": "description",
          "type": "string"
        },
        {
          "internalType": "uint256",
          "name": "voteCount",
          "type": "uint256"
        }
      ],
      "stateMutability": "view",
      "type": "function"
    },
    {
      "inputs": [
        {
          "internalType": "uint256",
          "name": "proposalId",
          "type": "uint256"
        }
      ],
      "name": "vote",
      "outputs": [],
      "stateMutability": "nonpayable",
      "type": "function"
    },
    {
      "inputs": [
        {
          "internalType": "address",
          "name": "",
          "type": "address"
        }
      ],
      "name": "voters",
      "outputs": [
        {
          "internalType": "bool",
          "name": "",
          "type": "bool"
        }
      ],
      "stateMutability": "view",
      "type": "function"
    }
  ],
  "bytecode": "0x608060405234801561001057600080fd5b50610e15806100206000396000f3fe608060405234801561001057600080fd5b50600436106100575760003560e01c80630121b93f1461005c578063013cf08b1461007857806349c2a1a6146100a9578063a3ec138d146100c5578063c7f758a8146100f5575b600080fd5b610076600480360381019061007191906105ac565b610126565b005b610092600480360381019061008d91906105ac565b6102c8565b6040516100a0929190610678565b60405180910390f35b6100c360048036038101906100be91906107dd565b610384565b005b6100df60048036038101906100da9190610884565b610434565b6040516100ec91906108cc565b60405180910390f35b61010f600480360381019061010a91906105ac565b610454565b60405161011d929190610678565b60405180910390f35b600160003373ffffffffffffffffffffffffffffffffffffffff1673ffffffffffffffffffffffffffffffffffffffff16815260200190815260200160002060009054906101000a900460ff16156101b3576040517f08c379a00000000000000000000000000000000000000000000000000000000081526004016101aa90610933565b60405180910390fd5b60008054905081106101fa576040517f08c379a00000000000000000000000000000000000000000000000000000000081526004016101f19061099f565b60405180910390fd5b6000818154811061020e5761020d6109bf565b5b9060005260206000209060020201600101600081548092919061023090610a1d565b919050555060018060003373ffffffffffffffffffffffffffffffffffffffff1673ffffffffffffffffffffffffffffffffffffffff16815260200190815260200160002060006101000a81548160ff0219169083151502179055507f4d99b957a2bc29a30ebd96a7be8e68fe50a3c701db28a91436490b7d53870ca433826040516102bd929190610a74565b60405180910390a150565b600081815481106102d857600080fd5b90600052602060002090600202016000915090508060000180546102fb90610acc565b80601f016020809104026020016040519081016040528092919081815260200182805461032790610acc565b80156103745780601f1061034957610100808354040283529160200191610374565b820191906000526020600020905b81548152906001019060200180831161035757829003601f168201915b5050505050908060010154905082565b600060405180604001604052808381526020016000815250908060018154018082558091505060019003906000526020600020906002020160009091909190915060008201518160000190816103da9190610ca9565b506020820151816001015550507f9c770c289ab5bf7e57cb1d23c8ceae993aea46eb64847072fd3d78ca60d3e432600160008054905061041a9190610d7b565b82604051610429929190610daf565b60405180910390a150565b60016020528060005260406000206000915054906101000a900460ff1681565b606060008080549050831061049e576040517f08c379a00000000000000000000000000000000000000000000000000000000081526004016104959061099f565b60405180910390fd5b60008084815481106104b3576104b26109bf565b5b906000526020600020906002020190508060000181600101548180546104d890610acc565b80601f016020809104026020016040519081016040528092919081815260200182805461050490610acc565b80156105515780601f1061052657610100808354040283529160200191610551565b820191906000526020600020905b81548152906001019060200180831161053457829003601f168201915b505050505091509250925050915091565b6000604051905090565b600080fd5b600080fd5b6000819050919050565b61058981610576565b811461059457600080fd5b50565b6000813590506105a681610580565b92915050565b6000602082840312156105c2576105c161056c565b5b60006105d084828501610597565b91505092915050565b600081519050919050565b600082825260208201905092915050565b60005b838110156106135780820151818401526020810190506105f8565b60008484015250505050565b6000601f19601f8301169050919050565b600061063b826105d9565b61064581856105e4565b93506106558185602086016105f5565b61065e8161061f565b840191505092915050565b61067281610576565b82525050565b600060408201905081810360008301526106928185610630565b90506106a16020830184610669565b9392505050565b600080fd5b600080fd5b7f4e487b7100000000000000000000000000000000000000000000000000000000600052604160045260246000fd5b6106ea8261061f565b810181811067ffffffffffffffff82111715610709576107086106b2565b5b80604052505050565b600061071c610562565b905061072882826106e1565b919050565b600067ffffffffffffffff821115610748576107476106b2565b5b6107518261061f565b9050602081019050919050565b82818337600083830152505050565b600061078061077b8461072d565b610712565b90508281526020810184848401111561079c5761079b6106ad565b5b6107a784828561075e565b509392505050565b600082601f8301126107c4576107c36106a8565b5b81356107d484826020860161076d565b91505092915050565b6000602082840312156107f3576107f261056c565b5b600082013567ffffffffffffffff81111561081157610810610571565b5b61081d848285016107af565b91505092915050565b600073ffffffffffffffffffffffffffffffffffffffff82169050919050565b600061085182610826565b9050919050565b61086181610846565b811461086c57600080fd5b50565b60008135905061087e81610858565b92915050565b60006020828403121561089a5761089961056c565b5b60006108a88482850161086f565b91505092915050565b60008115159050919050565b6108c6816108b1565b82525050565b60006020820190506108e160008301846108bd565b92915050565b7f59612068617320766f7461646f2e000000000000000000000000000000000000600082015250565b600061091d600e836105e4565b9150610928826108e7565b602082019050919050565b6000602082019050818103600083015261094c81610910565b9050919050565b7f49442064652070726f707565737461206e6f2076616c69646f2e000000000000600082015250565b6000610989601a836105e4565b915061099482610953565b602082019050919050565b600060208201905081810360008301526109b88161097c565b9050919050565b7f4e487b7100000000000000000000000000000000000000000000000000000000600052603260045260246000fd5b7f4e487b7100000000000000000000000000000000000000000000000000000000600052601160045260246000fd5b6000610a2882610576565b91507fffffffffffffffffffffffffffffffffffffffffffffffffffffffffffffffff8203610a5a57610a596109ee565b5b600182019050919050565b610a6e81610846565b82525050565b6000604082019050610a896000830185610a65565b610a966020830184610669565b9392505050565b7f4e487b7100000000000000000000000000000000000000000000000000000000600052602260045260246000fd5b60006002820490506001821680610ae457607f821691505b602082108103610af757610af6610a9d565b5b50919050565b60008190508160005260206000209050919050565b60006020601f8301049050919050565b600082821b905092915050565b600060088302610b5f7fffffffffffffffffffffffffffffffffffffffffffffffffffffffffffffffff82610b22565b610b698683610b22565b95508019841693508086168417925050509392505050565b6000819050919050565b6000610ba6610ba1610b9c84610576565b610b81565b610576565b9050919050565b6000819050919050565b610bc083610b8b565b610bd4610bcc82610bad565b848454610b2f565b825550505050565b600090565b610be9610bdc565b610bf4818484610bb7565b505050565b5b81811015610c1857610c0d600082610be1565b600181019050610bfa565b5050565b601f821115610c5d57610c2e81610afd565b610c3784610b12565b81016020851015610c46578190505b610c5a610c5285610b12565b830182610bf9565b50505b505050565b600082821c905092915050565b6000610c8060001984600802610c62565b1980831691505092915050565b6000610c998383610c6f565b9150826002028217905092915050565b610cb2826105d9565b67ffffffffffffffff811115610ccb57610cca6106b2565b5b610cd58254610acc565b610ce0828285610c1c565b600060209050601f831160018114610d135760008415610d01578287015190505b610d0b8582610c8d565b865550610d73565b601f198416610d2186610afd565b60005b82811015610d4957848901518255600182019150602085019450602081019050610d24565b86831015610d665784890151610d62601f891682610c6f565b8355505b6001600288020188555050505b505050505050565b6000610d8682610576565b9150610d9183610576565b9250828203905081811115610da957610da86109ee565b5b92915050565b6000604082019050610dc46000830185610669565b8181036020830152610dd68184610630565b9050939250505056fea26469706673582212204d87cf034475d6cbc8e77704330f141d153bed6a212357d8d700621b46f61f1f64736f6c63430008140033",
  "linkReferences": {},
  "deployedLinkReferences": {}
}