{
  "_format": "hh-sol-artifact-1",
  "contractName": "Lottery",
  "sourceName": "contracts/Lotery.sol",
  "abi": [
    {
      "inputs": [
        {
          "internalType": "address",
          "name": "initialOwner",
          "type": "address"
        }
      ],
      "stateMutability": "nonpayable",
      "type": "constructor"
    },
    {
      "inputs": [
        {
          "internalType": "address",
          "name": "owner",
          "type": "address"
        }
      ],
      "name": "OwnableInvalidOwner",
      "type": "error"
    },
    {
      "inputs": [
        {
          "internalType": "address",
          "name": "account",
          "type": "address"
        }
      ],
      "name": "OwnableUnauthorizedAccount",
      "type": "error"
    },
    {
      "anonymous": false,
      "inputs": [
        {
          "indexed": true,
          "internalType": "uint256",
          "name": "lotteryId",
          "type": "uint256"
        },
        {
          "indexed": false,
          "internalType": "uint256",
          "name": "ticketPrice",
          "type": "uint256"
        },
        {
          "indexed": false,
          "internalType": "uint256",
          "name": "endTime",
          "type": "uint256"
        }
      ],
      "name": "LotteryCreated",
      "type": "event"
    },
    {
      "anonymous": false,
      "inputs": [
        {
          "indexed": true,
          "internalType": "address",
          "name": "previousOwner",
          "type": "address"
        },
        {
          "indexed": true,
          "internalType": "address",
          "name": "newOwner",
          "type": "address"
        }
      ],
      "name": "OwnershipTransferred",
      "type": "event"
    },
    {
      "anonymous": false,
      "inputs": [
        {
          "indexed": true,
          "internalType": "uint256",
          "name": "lotteryId",
          "type": "uint256"
        },
        {
          "indexed": true,
          "internalType": "address",
          "name": "participant",
          "type": "address"
        }
      ],
      "name": "TicketPurchased",
      "type": "event"
    },
    {
      "anonymous": false,
      "inputs": [
        {
          "indexed": true,
          "internalType": "uint256",
          "name": "lotteryId",
          "type": "uint256"
        },
        {
          "indexed": true,
          "internalType": "address",
          "name": "winner",
          "type": "address"
        },
        {
          "indexed": false,
          "internalType": "uint256",
          "name": "prize",
          "type": "uint256"
        }
      ],
      "name": "WinnerDeclared",
      "type": "event"
    },
    {
      "inputs": [
        {
          "internalType": "uint256",
          "name": "lotteryId",
          "type": "uint256"
        }
      ],
      "name": "buyTicket",
      "outputs": [],
      "stateMutability": "payable",
      "type": "function"
    },
    {
      "inputs": [],
      "name": "claimWinnings",
      "outputs": [],
      "stateMutability": "nonpayable",
      "type": "function"
    },
    {
      "inputs": [
        {
          "internalType": "uint256",
          "name": "ticketPrice",
          "type": "uint256"
        },
        {
          "internalType": "uint256",
          "name": "duration",
          "type": "uint256"
        }
      ],
      "name": "createLottery",
      "outputs": [],
      "stateMutability": "nonpayable",
      "type": "function"
    },
    {
      "inputs": [
        {
          "internalType": "uint256",
          "name": "lotteryId",
          "type": "uint256"
        }
      ],
      "name": "drawWinner",
      "outputs": [],
      "stateMutability": "nonpayable",
      "type": "function"
    },
    {
      "inputs": [],
      "name": "getLotteries",
      "outputs": [
        {
          "components": [
            {
              "internalType": "uint256",
              "name": "ticketPrice",
              "type": "uint256"
            },
            {
              "internalType": "uint256",
              "name": "endTime",
              "type": "uint256"
            },
            {
              "internalType": "address[]",
              "name": "participants",
              "type": "address[]"
            },
            {
              "internalType": "bool",
              "name": "isActive",
              "type": "bool"
            },
            {
              "internalType": "address",
              "name": "winner",
              "type": "address"
            }
          ],
          "internalType": "struct Lottery.LotteryRound[]",
          "name": "",
          "type": "tuple[]"
        }
      ],
      "stateMutability": "view",
      "type": "function"
    },
    {
      "inputs": [
        {
          "internalType": "uint256",
          "name": "",
          "type": "uint256"
        }
      ],
      "name": "lotteries",
      "outputs": [
        {
          "internalType": "uint256",
          "name": "ticketPrice",
          "type": "uint256"
        },
        {
          "internalType": "uint256",
          "name": "endTime",
          "type": "uint256"
        },
        {
          "internalType": "bool",
          "name": "isActive",
          "type": "bool"
        },
        {
          "internalType": "address",
          "name": "winner",
          "type": "address"
        }
      ],
      "stateMutability": "view",
      "type": "function"
    },
    {
      "inputs": [],
      "name": "owner",
      "outputs": [
        {
          "internalType": "address",
          "name": "",
          "type": "address"
        }
      ],
      "stateMutability": "view",
      "type": "function"
    },
    {
      "inputs": [],
      "name": "renounceOwnership",
      "outputs": [],
      "stateMutability": "nonpayable",
      "type": "function"
    },
    {
      "inputs": [
        {
          "internalType": "address",
          "name": "newOwner",
          "type": "address"
        }
      ],
      "name": "transferOwnership",
      "outputs": [],
      "stateMutability": "nonpayable",
      "type": "function"
    },
    {
      "inputs": [
        {
          "internalType": "address",
          "name": "",
          "type": "address"
        }
      ],
      "name": "winnings",
      "outputs": [
        {
          "internalType": "uint256",
          "name": "",
          "type": "uint256"
        }
      ],
      "stateMutability": "view",
      "type": "function"
    }
  ],
  "bytecode": "0x60806040523480156200001157600080fd5b5060405162001b9f38038062001b9f8339818101604052810190620000379190620001f4565b80600073ffffffffffffffffffffffffffffffffffffffff168173ffffffffffffffffffffffffffffffffffffffff1603620000ad5760006040517f1e4fbdf7000000000000000000000000000000000000000000000000000000008152600401620000a4919062000237565b60405180910390fd5b620000be81620000c660201b60201c565b505062000254565b60008060009054906101000a900473ffffffffffffffffffffffffffffffffffffffff169050816000806101000a81548173ffffffffffffffffffffffffffffffffffffffff021916908373ffffffffffffffffffffffffffffffffffffffff1602179055508173ffffffffffffffffffffffffffffffffffffffff168173ffffffffffffffffffffffffffffffffffffffff167f8be0079c531659141344cd1fd0a4f28419497f9722a3daafe3b4186f6b6457e060405160405180910390a35050565b600080fd5b600073ffffffffffffffffffffffffffffffffffffffff82169050919050565b6000620001bc826200018f565b9050919050565b620001ce81620001af565b8114620001da57600080fd5b50565b600081519050620001ee81620001c3565b92915050565b6000602082840312156200020d576200020c6200018a565b5b60006200021d84828501620001dd565b91505092915050565b6200023181620001af565b82525050565b60006020820190506200024e600083018462000226565b92915050565b61193b80620002646000396000f3fe6080604052600436106100915760003560e01c8063b401faf111610059578063b401faf11461015d578063bcc82ec414610174578063ea3a14991461019f578063f2fde38b146101dc578063fe35804e1461020557610091565b80631398e0761461009657806360b2a56a146100d657806367dd74ca146100ff578063715018a61461011b5780638da5cb5b14610132575b600080fd5b3480156100a257600080fd5b506100bd60048036038101906100b89190610f48565b61022e565b6040516100cd9493929190610fe0565b60405180910390f35b3480156100e257600080fd5b506100fd60048036038101906100f89190610f48565b61029b565b005b61011960048036038101906101149190610f48565b610543565b005b34801561012757600080fd5b5061013061073a565b005b34801561013e57600080fd5b5061014761074e565b6040516101549190611025565b60405180910390f35b34801561016957600080fd5b50610172610777565b005b34801561018057600080fd5b5061018961088d565b6040516101969190611254565b60405180910390f35b3480156101ab57600080fd5b506101c660048036038101906101c191906112a2565b6109ff565b6040516101d391906112cf565b60405180910390f35b3480156101e857600080fd5b5061020360048036038101906101fe91906112a2565b610a17565b005b34801561021157600080fd5b5061022c600480360381019061022791906112ea565b610a9d565b005b6001818154811061023e57600080fd5b90600052602060002090600402016000915090508060000154908060010154908060030160009054906101000a900460ff16908060030160019054906101000a900473ffffffffffffffffffffffffffffffffffffffff16905084565b6102a3610cd9565b60018054905081106102ea576040517f08c379a00000000000000000000000000000000000000000000000000000000081526004016102e190611387565b60405180910390fd5b600060018281548110610300576102ff6113a7565b5b906000526020600020906004020190508060030160009054906101000a900460ff16610361576040517f08c379a000000000000000000000000000000000000000000000000000000000815260040161035890611422565b60405180910390fd5b80600101544210156103a8576040517f08c379a000000000000000000000000000000000000000000000000000000000815260040161039f9061148e565b60405180910390fd5b60008160030160006101000a81548160ff02191690831515021790555060008160020180549050111561053f57600081600201805490506103e7610d60565b6103f191906114dd565b9050600082600201828154811061040b5761040a6113a7565b5b9060005260206000200160009054906101000a900473ffffffffffffffffffffffffffffffffffffffff169050808360030160016101000a81548173ffffffffffffffffffffffffffffffffffffffff021916908373ffffffffffffffffffffffffffffffffffffffff160217905550600083600201805490508460000154610494919061153d565b905080600260008473ffffffffffffffffffffffffffffffffffffffff1673ffffffffffffffffffffffffffffffffffffffff16815260200190815260200160002060008282546104e5919061157f565b925050819055508173ffffffffffffffffffffffffffffffffffffffff16857f7ed5face07afb2b0e99df53523951350d2a3d4f5d105a0dd2110703efe3995378360405161053391906112cf565b60405180910390a35050505b5050565b600180549050811061058a576040517f08c379a000000000000000000000000000000000000000000000000000000000815260040161058190611387565b60405180910390fd5b6000600182815481106105a05761059f6113a7565b5b906000526020600020906004020190508060030160009054906101000a900460ff16610601576040517f08c379a00000000000000000000000000000000000000000000000000000000081526004016105f890611422565b60405180910390fd5b80600101544210610647576040517f08c379a000000000000000000000000000000000000000000000000000000000815260040161063e906115ff565b60405180910390fd5b8060000154341461068d576040517f08c379a000000000000000000000000000000000000000000000000000000000815260040161068490611691565b60405180910390fd5b80600201339080600181540180825580915050600190039060005260206000200160009091909190916101000a81548173ffffffffffffffffffffffffffffffffffffffff021916908373ffffffffffffffffffffffffffffffffffffffff1602179055503373ffffffffffffffffffffffffffffffffffffffff16827f785f2865353ae960010300f584fc6c577b757a853af69a99c769df3c8232d3de60405160405180910390a35050565b610742610cd9565b61074c6000610d9a565b565b60008060009054906101000a900473ffffffffffffffffffffffffffffffffffffffff16905090565b6000600260003373ffffffffffffffffffffffffffffffffffffffff1673ffffffffffffffffffffffffffffffffffffffff168152602001908152602001600020549050600081116107fe576040517f08c379a00000000000000000000000000000000000000000000000000000000081526004016107f5906116fd565b60405180910390fd5b6000600260003373ffffffffffffffffffffffffffffffffffffffff1673ffffffffffffffffffffffffffffffffffffffff168152602001908152602001600020819055503373ffffffffffffffffffffffffffffffffffffffff166108fc829081150290604051600060405180830381858888f19350505050158015610889573d6000803e3d6000fd5b5050565b60606001805480602002602001604051908101604052809291908181526020016000905b828210156109f657838290600052602060002090600402016040518060a001604052908160008201548152602001600182015481526020016002820180548060200260200160405190810160405280929190818152602001828054801561096d57602002820191906000526020600020905b8160009054906101000a900473ffffffffffffffffffffffffffffffffffffffff1673ffffffffffffffffffffffffffffffffffffffff1681526020019060010190808311610923575b505050505081526020016003820160009054906101000a900460ff161515151581526020016003820160019054906101000a900473ffffffffffffffffffffffffffffffffffffffff1673ffffffffffffffffffffffffffffffffffffffff1673ffffffffffffffffffffffffffffffffffffffff1681525050815260200190600101906108b1565b50505050905090565b60026020528060005260406000206000915090505481565b610a1f610cd9565b600073ffffffffffffffffffffffffffffffffffffffff168173ffffffffffffffffffffffffffffffffffffffff1603610a915760006040517f1e4fbdf7000000000000000000000000000000000000000000000000000000008152600401610a889190611025565b60405180910390fd5b610a9a81610d9a565b50565b610aa5610cd9565b60008211610ae8576040517f08c379a0000000000000000000000000000000000000000000000000000000008152600401610adf9061178f565b60405180910390fd5b60008111610b2b576040517f08c379a0000000000000000000000000000000000000000000000000000000008152600401610b22906117fb565b60405180910390fd5b60008142610b39919061157f565b905060016040518060a00160405280858152602001838152602001600067ffffffffffffffff811115610b6f57610b6e61181b565b5b604051908082528060200260200182016040528015610b9d5781602001602082028036833780820191505090505b508152602001600115158152602001600073ffffffffffffffffffffffffffffffffffffffff16815250908060018154018082558091505060019003906000526020600020906004020160009091909190915060008201518160000155602082015181600101556040820151816002019080519060200190610c20929190610e66565b5060608201518160030160006101000a81548160ff02191690831515021790555060808201518160030160016101000a81548173ffffffffffffffffffffffffffffffffffffffff021916908373ffffffffffffffffffffffffffffffffffffffff160217905550505060018080549050610c9b919061184a565b7fbcab9af3175c8a9d53b9308a82ee378a84c65b0c22e3dfea2afac802c73a078a8483604051610ccc92919061187e565b60405180910390a2505050565b610ce1610e5e565b73ffffffffffffffffffffffffffffffffffffffff16610cff61074e565b73ffffffffffffffffffffffffffffffffffffffff1614610d5e57610d22610e5e565b6040517f118cdaa7000000000000000000000000000000000000000000000000000000008152600401610d559190611025565b60405180910390fd5b565b60004442600180549050604051602001610d7c939291906118c8565b6040516020818303038152906040528051906020012060001c905090565b60008060009054906101000a900473ffffffffffffffffffffffffffffffffffffffff169050816000806101000a81548173ffffffffffffffffffffffffffffffffffffffff021916908373ffffffffffffffffffffffffffffffffffffffff1602179055508173ffffffffffffffffffffffffffffffffffffffff168173ffffffffffffffffffffffffffffffffffffffff167f8be0079c531659141344cd1fd0a4f28419497f9722a3daafe3b4186f6b6457e060405160405180910390a35050565b600033905090565b828054828255906000526020600020908101928215610edf579160200282015b82811115610ede5782518260006101000a81548173ffffffffffffffffffffffffffffffffffffffff021916908373ffffffffffffffffffffffffffffffffffffffff16021790555091602001919060010190610e86565b5b509050610eec9190610ef0565b5090565b5b80821115610f09576000816000905550600101610ef1565b5090565b600080fd5b6000819050919050565b610f2581610f12565b8114610f3057600080fd5b50565b600081359050610f4281610f1c565b92915050565b600060208284031215610f5e57610f5d610f0d565b5b6000610f6c84828501610f33565b91505092915050565b610f7e81610f12565b82525050565b60008115159050919050565b610f9981610f84565b82525050565b600073ffffffffffffffffffffffffffffffffffffffff82169050919050565b6000610fca82610f9f565b9050919050565b610fda81610fbf565b82525050565b6000608082019050610ff56000830187610f75565b6110026020830186610f75565b61100f6040830185610f90565b61101c6060830184610fd1565b95945050505050565b600060208201905061103a6000830184610fd1565b92915050565b600081519050919050565b600082825260208201905092915050565b6000819050602082019050919050565b61107581610f12565b82525050565b600081519050919050565b600082825260208201905092915050565b6000819050602082019050919050565b6110b081610fbf565b82525050565b60006110c283836110a7565b60208301905092915050565b6000602082019050919050565b60006110e68261107b565b6110f08185611086565b93506110fb83611097565b8060005b8381101561112c57815161111388826110b6565b975061111e836110ce565b9250506001810190506110ff565b5085935050505092915050565b61114281610f84565b82525050565b600060a083016000830151611160600086018261106c565b506020830151611173602086018261106c565b506040830151848203604086015261118b82826110db565b91505060608301516111a06060860182611139565b5060808301516111b360808601826110a7565b508091505092915050565b60006111ca8383611148565b905092915050565b6000602082019050919050565b60006111ea82611040565b6111f4818561104b565b9350836020820285016112068561105c565b8060005b85811015611242578484038952815161122385826111be565b945061122e836111d2565b925060208a0199505060018101905061120a565b50829750879550505050505092915050565b6000602082019050818103600083015261126e81846111df565b905092915050565b61127f81610fbf565b811461128a57600080fd5b50565b60008135905061129c81611276565b92915050565b6000602082840312156112b8576112b7610f0d565b5b60006112c68482850161128d565b91505092915050565b60006020820190506112e46000830184610f75565b92915050565b6000806040838503121561130157611300610f0d565b5b600061130f85828601610f33565b925050602061132085828601610f33565b9150509250929050565b600082825260208201905092915050565b7f4c6f7465726961206e6f2076616c696461000000000000000000000000000000600082015250565b600061137160118361132a565b915061137c8261133b565b602082019050919050565b600060208201905081810360008301526113a081611364565b9050919050565b7f4e487b7100000000000000000000000000000000000000000000000000000000600052603260045260246000fd5b7f4c61206c6f7465726961206e6f20657374612061637469766100000000000000600082015250565b600061140c60198361132a565b9150611417826113d6565b602082019050919050565b6000602082019050818103600083015261143b816113ff565b9050919050565b7f4c61206c6f74657269612061756e206e6f206861207465726d696e61646f0000600082015250565b6000611478601e8361132a565b915061148382611442565b602082019050919050565b600060208201905081810360008301526114a78161146b565b9050919050565b7f4e487b7100000000000000000000000000000000000000000000000000000000600052601260045260246000fd5b60006114e882610f12565b91506114f383610f12565b925082611503576115026114ae565b5b828206905092915050565b7f4e487b7100000000000000000000000000000000000000000000000000000000600052601160045260246000fd5b600061154882610f12565b915061155383610f12565b925082820261156181610f12565b915082820484148315176115785761157761150e565b5b5092915050565b600061158a82610f12565b915061159583610f12565b92508282019050808211156115ad576115ac61150e565b5b92915050565b7f4c61206c6f7465726961206861207465726d696e61646f000000000000000000600082015250565b60006115e960178361132a565b91506115f4826115b3565b602082019050919050565b60006020820190508181036000830152611618816115dc565b9050919050565b7f43616e746964616420696e636f7272656374612064652045544820656e76696160008201527f6461000000000000000000000000000000000000000000000000000000000000602082015250565b600061167b60228361132a565b91506116868261161f565b604082019050919050565b600060208201905081810360008301526116aa8161166e565b9050919050565b7f4e6f206861792067616e616e636961732070617261207265636c616d61720000600082015250565b60006116e7601e8361132a565b91506116f2826116b1565b602082019050919050565b60006020820190508181036000830152611716816116da565b9050919050565b7f456c2070726563696f2064656c20626f6c65746f206465626520736572206d6160008201527f796f722071756520300000000000000000000000000000000000000000000000602082015250565b600061177960298361132a565b91506117848261171d565b604082019050919050565b600060208201905081810360008301526117a88161176c565b9050919050565b7f4c61206475726163696f6e206465626520736572206d61796f72207175652030600082015250565b60006117e560208361132a565b91506117f0826117af565b602082019050919050565b60006020820190508181036000830152611814816117d8565b9050919050565b7f4e487b7100000000000000000000000000000000000000000000000000000000600052604160045260246000fd5b600061185582610f12565b915061186083610f12565b92508282039050818111156118785761187761150e565b5b92915050565b60006040820190506118936000830185610f75565b6118a06020830184610f75565b9392505050565b6000819050919050565b6118c26118bd82610f12565b6118a7565b82525050565b60006118d482866118b1565b6020820191506118e482856118b1565b6020820191506118f482846118b1565b60208201915081905094935050505056fea26469706673582212202a28fa433d0dfd371490295f30990cef2e7a5ae550e72245e0ec3ce1cb955f3264736f6c63430008140033",
  "linkReferences": {},
  "deployedLinkReferences": {}
}