{
  "_format": "hh-sol-artifact-1",
  "contractName": "Marketplace",
  "sourceName": "contracts/Marketplace.sol",
  "abi": [
    {
      "anonymous": false,
      "inputs": [
        {
          "indexed": false,
          "internalType": "uint256",
          "name": "itemId",
          "type": "uint256"
        },
        {
          "indexed": false,
          "internalType": "address",
          "name": "seller",
          "type": "address"
        },
        {
          "indexed": false,
          "internalType": "uint256",
          "name": "price",
          "type": "uint256"
        }
      ],
      "name": "ItemListed",
      "type": "event"
    },
    {
      "anonymous": false,
      "inputs": [
        {
          "indexed": false,
          "internalType": "uint256",
          "name": "itemId",
          "type": "uint256"
        },
        {
          "indexed": false,
          "internalType": "address",
          "name": "buyer",
          "type": "address"
        }
      ],
      "name": "ItemPurchased",
      "type": "event"
    },
    {
      "anonymous": false,
      "inputs": [
        {
          "indexed": false,
          "internalType": "uint256",
          "name": "itemId",
          "type": "uint256"
        }
      ],
      "name": "ItemReceived",
      "type": "event"
    },
    {
      "anonymous": false,
      "inputs": [
        {
          "indexed": false,
          "internalType": "uint256",
          "name": "itemId",
          "type": "uint256"
        }
      ],
      "name": "ItemShipped",
      "type": "event"
    },
    {
      "anonymous": false,
      "inputs": [
        {
          "indexed": false,
          "internalType": "address",
          "name": "user",
          "type": "address"
        },
        {
          "indexed": false,
          "internalType": "uint256",
          "name": "rating",
          "type": "uint256"
        }
      ],
      "name": "UserRated",
      "type": "event"
    },
    {
      "inputs": [
        {
          "internalType": "uint256",
          "name": "_itemId",
          "type": "uint256"
        }
      ],
      "name": "confirmDelivery",
      "outputs": [],
      "stateMutability": "nonpayable",
      "type": "function"
    },
    {
      "inputs": [
        {
          "internalType": "uint256",
          "name": "_itemId",
          "type": "uint256"
        }
      ],
      "name": "getItem",
      "outputs": [
        {
          "components": [
            {
              "internalType": "uint256",
              "name": "itemId",
              "type": "uint256"
            },
            {
              "internalType": "address payable",
              "name": "seller",
              "type": "address"
            },
            {
              "internalType": "address",
              "name": "buyer",
              "type": "address"
            },
            {
              "internalType": "string",
              "name": "name",
              "type": "string"
            },
            {
              "internalType": "string",
              "name": "description",
              "type": "string"
            },
            {
              "internalType": "uint256",
              "name": "price",
              "type": "uint256"
            },
            {
              "internalType": "enum Marketplace.ItemStatus",
              "name": "status",
              "type": "uint8"
            }
          ],
          "internalType": "struct Marketplace.Item",
          "name": "",
          "type": "tuple"
        }
      ],
      "stateMutability": "view",
      "type": "function"
    },
    {
      "inputs": [
        {
          "internalType": "address",
          "name": "_user",
          "type": "address"
        }
      ],
      "name": "getUserRating",
      "outputs": [
        {
          "internalType": "uint256",
          "name": "",
          "type": "uint256"
        }
      ],
      "stateMutability": "view",
      "type": "function"
    },
    {
      "inputs": [],
      "name": "itemCount",
      "outputs": [
        {
          "internalType": "uint256",
          "name": "",
          "type": "uint256"
        }
      ],
      "stateMutability": "view",
      "type": "function"
    },
    {
      "inputs": [
        {
          "internalType": "uint256",
          "name": "",
          "type": "uint256"
        }
      ],
      "name": "items",
      "outputs": [
        {
          "internalType": "uint256",
          "name": "itemId",
          "type": "uint256"
        },
        {
          "internalType": "address payable",
          "name": "seller",
          "type": "address"
        },
        {
          "internalType": "address",
          "name": "buyer",
          "type": "address"
        },
        {
          "internalType": "string",
          "name": "name",
          "type": "string"
        },
        {
          "internalType": "string",
          "name": "description",
          "type": "string"
        },
        {
          "internalType": "uint256",
          "name": "price",
          "type": "uint256"
        },
        {
          "internalType": "enum Marketplace.ItemStatus",
          "name": "status",
          "type": "uint8"
        }
      ],
      "stateMutability": "view",
      "type": "function"
    },
    {
      "inputs": [
        {
          "internalType": "string",
          "name": "_name",
          "type": "string"
        },
        {
          "internalType": "string",
          "name": "_description",
          "type": "string"
        },
        {
          "internalType": "uint256",
          "name": "_price",
          "type": "uint256"
        }
      ],
      "name": "listItem",
      "outputs": [],
      "stateMutability": "nonpayable",
      "type": "function"
    },
    {
      "inputs": [
        {
          "internalType": "uint256",
          "name": "_itemId",
          "type": "uint256"
        }
      ],
      "name": "purchaseItem",
      "outputs": [],
      "stateMutability": "payable",
      "type": "function"
    },
    {
      "inputs": [
        {
          "internalType": "address",
          "name": "_user",
          "type": "address"
        },
        {
          "internalType": "uint256",
          "name": "_rating",
          "type": "uint256"
        }
      ],
      "name": "rateUser",
      "outputs": [],
      "stateMutability": "nonpayable",
      "type": "function"
    },
    {
      "inputs": [
        {
          "internalType": "address",
          "name": "",
          "type": "address"
        }
      ],
      "name": "ratingsCount",
      "outputs": [
        {
          "internalType": "uint256",
          "name": "",
          "type": "uint256"
        }
      ],
      "stateMutability": "view",
      "type": "function"
    },
    {
      "inputs": [
        {
          "internalType": "address",
          "name": "",
          "type": "address"
        }
      ],
      "name": "reputation",
      "outputs": [
        {
          "internalType": "uint256",
          "name": "",
          "type": "uint256"
        }
      ],
      "stateMutability": "view",
      "type": "function"
    },
    {
      "inputs": [
        {
          "internalType": "uint256",
          "name": "_itemId",
          "type": "uint256"
        }
      ],
      "name": "shipItem",
      "outputs": [],
      "stateMutability": "nonpayable",
      "type": "function"
    }
  ],
  "bytecode": "0x60806040526000805534801561001457600080fd5b5061216e806100246000396000f3fe60806040526004361061009c5760003560e01c8063b9f7945111610064578063b9f7945114610198578063bfb231d2146101d5578063cab655e414610218578063d38ea5bf14610255578063f61c899a14610271578063fd84cb971461029a5761009c565b80630562021c146100a15780633129e773146100ca5780633d4effc414610107578063460168c3146101305780636bfb0d011461016d575b600080fd5b3480156100ad57600080fd5b506100c860048036038101906100c3919061130f565b6102c3565b005b3480156100d657600080fd5b506100f160048036038101906100ec919061139a565b6104e9565b6040516100fe91906115d1565b60405180910390f35b34801561011357600080fd5b5061012e6004803603810190610129919061161f565b610735565b005b34801561013c57600080fd5b506101576004803603810190610152919061165f565b610870565b604051610164919061169b565b60405180910390f35b34801561017957600080fd5b50610182610953565b60405161018f919061169b565b60405180910390f35b3480156101a457600080fd5b506101bf60048036038101906101ba919061165f565b610959565b6040516101cc919061169b565b60405180910390f35b3480156101e157600080fd5b506101fc60048036038101906101f7919061139a565b610971565b60405161020f979695949392919061172d565b60405180910390f35b34801561022457600080fd5b5061023f600480360381019061023a919061165f565b610b10565b60405161024c919061169b565b60405180910390f35b61026f600480360381019061026a919061139a565b610b28565b005b34801561027d57600080fd5b506102986004803603810190610293919061139a565b610d83565b005b3480156102a657600080fd5b506102c160048036038101906102bc919061139a565b610f0c565b005b60008111610306576040517f08c379a00000000000000000000000000000000000000000000000000000000081526004016102fd9061181c565b60405180910390fd5b6000808154809291906103189061186b565b91905055506040518060e0016040528060005481526020013373ffffffffffffffffffffffffffffffffffffffff168152602001600073ffffffffffffffffffffffffffffffffffffffff1681526020018481526020018381526020018281526020016000600381111561038f5761038e6114b7565b5b81525060016000805481526020019081526020016000206000820151816000015560208201518160010160006101000a81548173ffffffffffffffffffffffffffffffffffffffff021916908373ffffffffffffffffffffffffffffffffffffffff16021790555060408201518160020160006101000a81548173ffffffffffffffffffffffffffffffffffffffff021916908373ffffffffffffffffffffffffffffffffffffffff16021790555060608201518160030190816104539190611abf565b5060808201518160040190816104699190611abf565b5060a0820151816005015560c08201518160060160006101000a81548160ff0219169083600381111561049f5761049e6114b7565b5b02179055509050507fc93edc6ee14cd6c0c2842099adfa8953b237dbdad304ba28e96dce8a7f2a828c60005433836040516104dc93929190611b91565b60405180910390a1505050565b6104f1611104565b600160008381526020019081526020016000206040518060e0016040529081600082015481526020016001820160009054906101000a900473ffffffffffffffffffffffffffffffffffffffff1673ffffffffffffffffffffffffffffffffffffffff1673ffffffffffffffffffffffffffffffffffffffff1681526020016002820160009054906101000a900473ffffffffffffffffffffffffffffffffffffffff1673ffffffffffffffffffffffffffffffffffffffff1673ffffffffffffffffffffffffffffffffffffffff1681526020016003820180546105d5906118e2565b80601f0160208091040260200160405190810160405280929190818152602001828054610601906118e2565b801561064e5780601f106106235761010080835404028352916020019161064e565b820191906000526020600020905b81548152906001019060200180831161063157829003601f168201915b50505050508152602001600482018054610667906118e2565b80601f0160208091040260200160405190810160405280929190818152602001828054610693906118e2565b80156106e05780601f106106b5576101008083540402835291602001916106e0565b820191906000526020600020905b8154815290600101906020018083116106c357829003601f168201915b50505050508152602001600582015481526020016006820160009054906101000a900460ff166003811115610718576107176114b7565b5b600381111561072a576107296114b7565b5b815250509050919050565b60018110158015610747575060058111155b610786576040517f08c379a000000000000000000000000000000000000000000000000000000000815260040161077d90611c3a565b60405180910390fd5b80600260008473ffffffffffffffffffffffffffffffffffffffff1673ffffffffffffffffffffffffffffffffffffffff16815260200190815260200160002060008282546107d59190611c5a565b925050819055506001600360008473ffffffffffffffffffffffffffffffffffffffff1673ffffffffffffffffffffffffffffffffffffffff168152602001908152602001600020600082825461082c9190611c5a565b925050819055507f0f28097b4af8a01cd2999adff5da8d7f7746e0086e94c724e334d4c4a352d9ea8282604051610864929190611c8e565b60405180910390a15050565b600080600360008473ffffffffffffffffffffffffffffffffffffffff1673ffffffffffffffffffffffffffffffffffffffff16815260200190815260200160002054036108c1576000905061094e565b600360008373ffffffffffffffffffffffffffffffffffffffff1673ffffffffffffffffffffffffffffffffffffffff16815260200190815260200160002054600260008473ffffffffffffffffffffffffffffffffffffffff1673ffffffffffffffffffffffffffffffffffffffff1681526020019081526020016000205461094b9190611ce6565b90505b919050565b60005481565b60026020528060005260406000206000915090505481565b60016020528060005260406000206000915090508060000154908060010160009054906101000a900473ffffffffffffffffffffffffffffffffffffffff16908060020160009054906101000a900473ffffffffffffffffffffffffffffffffffffffff16908060030180546109e6906118e2565b80601f0160208091040260200160405190810160405280929190818152602001828054610a12906118e2565b8015610a5f5780601f10610a3457610100808354040283529160200191610a5f565b820191906000526020600020905b815481529060010190602001808311610a4257829003601f168201915b505050505090806004018054610a74906118e2565b80601f0160208091040260200160405190810160405280929190818152602001828054610aa0906118e2565b8015610aed5780601f10610ac257610100808354040283529160200191610aed565b820191906000526020600020905b815481529060010190602001808311610ad057829003601f168201915b5050505050908060050154908060060160009054906101000a900460ff16905087565b60036020528060005260406000206000915090505481565b60006001600083815260200190815260200160002090506000816000015403610b86576040517f08c379a0000000000000000000000000000000000000000000000000000000008152600401610b7d90611d63565b60405180910390fd5b60006003811115610b9a57610b996114b7565b5b8160060160009054906101000a900460ff166003811115610bbe57610bbd6114b7565b5b14610bfe576040517f08c379a0000000000000000000000000000000000000000000000000000000008152600401610bf590611dcf565b60405180910390fd5b80600501543414610c44576040517f08c379a0000000000000000000000000000000000000000000000000000000008152600401610c3b90611e61565b60405180910390fd5b8060010160009054906101000a900473ffffffffffffffffffffffffffffffffffffffff1673ffffffffffffffffffffffffffffffffffffffff163373ffffffffffffffffffffffffffffffffffffffff1603610cd6576040517f08c379a0000000000000000000000000000000000000000000000000000000008152600401610ccd90611ef3565b60405180910390fd5b338160020160006101000a81548173ffffffffffffffffffffffffffffffffffffffff021916908373ffffffffffffffffffffffffffffffffffffffff16021790555060018160060160006101000a81548160ff02191690836003811115610d4157610d406114b7565b5b02179055507f7ce670ea54227685ed72f8669179c51b47ba2251ce7cfac367725a7b8f9b743d8233604051610d77929190611f13565b60405180910390a15050565b60006001600083815260200190815260200160002090508060010160009054906101000a900473ffffffffffffffffffffffffffffffffffffffff1673ffffffffffffffffffffffffffffffffffffffff163373ffffffffffffffffffffffffffffffffffffffff1614610e2c576040517f08c379a0000000000000000000000000000000000000000000000000000000008152600401610e2390611fae565b60405180910390fd5b60016003811115610e4057610e3f6114b7565b5b8160060160009054906101000a900460ff166003811115610e6457610e636114b7565b5b14610ea4576040517f08c379a0000000000000000000000000000000000000000000000000000000008152600401610e9b9061201a565b60405180910390fd5b60028160060160006101000a81548160ff02191690836003811115610ecc57610ecb6114b7565b5b02179055507fa05c5fef40b703b14a2e3737559bc365ed9169787e68b584f4966911a890d4e282604051610f00919061169b565b60405180910390a15050565b60006001600083815260200190815260200160002090508060020160009054906101000a900473ffffffffffffffffffffffffffffffffffffffff1673ffffffffffffffffffffffffffffffffffffffff163373ffffffffffffffffffffffffffffffffffffffff1614610fb5576040517f08c379a0000000000000000000000000000000000000000000000000000000008152600401610fac906120ac565b60405180910390fd5b60026003811115610fc957610fc86114b7565b5b8160060160009054906101000a900460ff166003811115610fed57610fec6114b7565b5b1461102d576040517f08c379a000000000000000000000000000000000000000000000000000000000815260040161102490612118565b60405180910390fd5b60038160060160006101000a81548160ff02191690836003811115611055576110546114b7565b5b02179055508060010160009054906101000a900473ffffffffffffffffffffffffffffffffffffffff1673ffffffffffffffffffffffffffffffffffffffff166108fc82600501549081150290604051600060405180830381858888f193505050501580156110c8573d6000803e3d6000fd5b507f01e74d1f4f418e68629246efc4a29d98199e9c9b9c3653bdbfee74d2ad4ac6a3826040516110f8919061169b565b60405180910390a15050565b6040518060e0016040528060008152602001600073ffffffffffffffffffffffffffffffffffffffff168152602001600073ffffffffffffffffffffffffffffffffffffffff16815260200160608152602001606081526020016000815260200160006003811115611179576111786114b7565b5b81525090565b6000604051905090565b600080fd5b600080fd5b600080fd5b600080fd5b6000601f19601f8301169050919050565b7f4e487b7100000000000000000000000000000000000000000000000000000000600052604160045260246000fd5b6111e68261119d565b810181811067ffffffffffffffff82111715611205576112046111ae565b5b80604052505050565b600061121861117f565b905061122482826111dd565b919050565b600067ffffffffffffffff821115611244576112436111ae565b5b61124d8261119d565b9050602081019050919050565b82818337600083830152505050565b600061127c61127784611229565b61120e565b90508281526020810184848401111561129857611297611198565b5b6112a384828561125a565b509392505050565b600082601f8301126112c0576112bf611193565b5b81356112d0848260208601611269565b91505092915050565b6000819050919050565b6112ec816112d9565b81146112f757600080fd5b50565b600081359050611309816112e3565b92915050565b60008060006060848603121561132857611327611189565b5b600084013567ffffffffffffffff8111156113465761134561118e565b5b611352868287016112ab565b935050602084013567ffffffffffffffff8111156113735761137261118e565b5b61137f868287016112ab565b9250506040611390868287016112fa565b9150509250925092565b6000602082840312156113b0576113af611189565b5b60006113be848285016112fa565b91505092915050565b6113d0816112d9565b82525050565b600073ffffffffffffffffffffffffffffffffffffffff82169050919050565b6000611401826113d6565b9050919050565b611411816113f6565b82525050565b6000611422826113d6565b9050919050565b61143281611417565b82525050565b600081519050919050565b600082825260208201905092915050565b60005b83811015611472578082015181840152602081019050611457565b60008484015250505050565b600061148982611438565b6114938185611443565b93506114a3818560208601611454565b6114ac8161119d565b840191505092915050565b7f4e487b7100000000000000000000000000000000000000000000000000000000600052602160045260246000fd5b600481106114f7576114f66114b7565b5b50565b6000819050611508826114e6565b919050565b6000611518826114fa565b9050919050565b6115288161150d565b82525050565b600060e08301600083015161154660008601826113c7565b5060208301516115596020860182611408565b50604083015161156c6040860182611429565b5060608301518482036060860152611584828261147e565b9150506080830151848203608086015261159e828261147e565b91505060a08301516115b360a08601826113c7565b5060c08301516115c660c086018261151f565b508091505092915050565b600060208201905081810360008301526115eb818461152e565b905092915050565b6115fc81611417565b811461160757600080fd5b50565b600081359050611619816115f3565b92915050565b6000806040838503121561163657611635611189565b5b60006116448582860161160a565b9250506020611655858286016112fa565b9150509250929050565b60006020828403121561167557611674611189565b5b60006116838482850161160a565b91505092915050565b611695816112d9565b82525050565b60006020820190506116b0600083018461168c565b92915050565b6116bf816113f6565b82525050565b6116ce81611417565b82525050565b600082825260208201905092915050565b60006116f082611438565b6116fa81856116d4565b935061170a818560208601611454565b6117138161119d565b840191505092915050565b6117278161150d565b82525050565b600060e082019050611742600083018a61168c565b61174f60208301896116b6565b61175c60408301886116c5565b818103606083015261176e81876116e5565b9050818103608083015261178281866116e5565b905061179160a083018561168c565b61179e60c083018461171e565b98975050505050505050565b7f456c2070726563696f206465626520736572206d61796f72207175652063657260008201527f6f00000000000000000000000000000000000000000000000000000000000000602082015250565b60006118066021836116d4565b9150611811826117aa565b604082019050919050565b60006020820190508181036000830152611835816117f9565b9050919050565b7f4e487b7100000000000000000000000000000000000000000000000000000000600052601160045260246000fd5b6000611876826112d9565b91507fffffffffffffffffffffffffffffffffffffffffffffffffffffffffffffffff82036118a8576118a761183c565b5b600182019050919050565b7f4e487b7100000000000000000000000000000000000000000000000000000000600052602260045260246000fd5b600060028204905060018216806118fa57607f821691505b60208210810361190d5761190c6118b3565b5b50919050565b60008190508160005260206000209050919050565b60006020601f8301049050919050565b600082821b905092915050565b6000600883026119757fffffffffffffffffffffffffffffffffffffffffffffffffffffffffffffffff82611938565b61197f8683611938565b95508019841693508086168417925050509392505050565b6000819050919050565b60006119bc6119b76119b2846112d9565b611997565b6112d9565b9050919050565b6000819050919050565b6119d6836119a1565b6119ea6119e2826119c3565b848454611945565b825550505050565b600090565b6119ff6119f2565b611a0a8184846119cd565b505050565b5b81811015611a2e57611a236000826119f7565b600181019050611a10565b5050565b601f821115611a7357611a4481611913565b611a4d84611928565b81016020851015611a5c578190505b611a70611a6885611928565b830182611a0f565b50505b505050565b600082821c905092915050565b6000611a9660001984600802611a78565b1980831691505092915050565b6000611aaf8383611a85565b9150826002028217905092915050565b611ac882611438565b67ffffffffffffffff811115611ae157611ae06111ae565b5b611aeb82546118e2565b611af6828285611a32565b600060209050601f831160018114611b295760008415611b17578287015190505b611b218582611aa3565b865550611b89565b601f198416611b3786611913565b60005b82811015611b5f57848901518255600182019150602085019450602081019050611b3a565b86831015611b7c5784890151611b78601f891682611a85565b8355505b6001600288020188555050505b505050505050565b6000606082019050611ba6600083018661168c565b611bb360208301856116c5565b611bc0604083018461168c565b949350505050565b7f4c612063616c696669636163696f6e206465626520657374617220656e74726560008201527f2031207920350000000000000000000000000000000000000000000000000000602082015250565b6000611c246026836116d4565b9150611c2f82611bc8565b604082019050919050565b60006020820190508181036000830152611c5381611c17565b9050919050565b6000611c65826112d9565b9150611c70836112d9565b9250828201905080821115611c8857611c8761183c565b5b92915050565b6000604082019050611ca360008301856116c5565b611cb0602083018461168c565b9392505050565b7f4e487b7100000000000000000000000000000000000000000000000000000000600052601260045260246000fd5b6000611cf1826112d9565b9150611cfc836112d9565b925082611d0c57611d0b611cb7565b5b828204905092915050565b7f456c206172746963756c6f206e6f206578697374650000000000000000000000600082015250565b6000611d4d6015836116d4565b9150611d5882611d17565b602082019050919050565b60006020820190508181036000830152611d7c81611d40565b9050919050565b7f456c206172746963756c6f206e6f206573746120646973706f6e69626c650000600082015250565b6000611db9601e836116d4565b9150611dc482611d83565b602082019050919050565b60006020820190508181036000830152611de881611dac565b9050919050565b7f456c2076616c6f7220656e766961646f206e6f20636f696e6369646520636f6e60008201527f20656c2070726563696f2064656c206172746963756c6f000000000000000000602082015250565b6000611e4b6037836116d4565b9150611e5682611def565b604082019050919050565b60006020820190508181036000830152611e7a81611e3e565b9050919050565b7f456c2076656e6465646f72206e6f20707565646520636f6d707261722073752060008201527f70726f70696f206172746963756c6f0000000000000000000000000000000000602082015250565b6000611edd602f836116d4565b9150611ee882611e81565b604082019050919050565b60006020820190508181036000830152611f0c81611ed0565b9050919050565b6000604082019050611f28600083018561168c565b611f3560208301846116c5565b9392505050565b7f536f6c6f20656c2076656e6465646f7220707565646520656e7669617220656c60008201527f206172746963756c6f0000000000000000000000000000000000000000000000602082015250565b6000611f986029836116d4565b9150611fa382611f3c565b604082019050919050565b60006020820190508181036000830152611fc781611f8b565b9050919050565b7f456c206172746963756c6f206e6f206861207369646f2076656e6469646f0000600082015250565b6000612004601e836116d4565b915061200f82611fce565b602082019050919050565b6000602082019050818103600083015261203381611ff7565b9050919050565b7f536f6c6f20656c20636f6d707261646f7220707565646520636f6e6669726d6160008201527f72206c6120726563657063696f6e000000000000000000000000000000000000602082015250565b6000612096602e836116d4565b91506120a18261203a565b604082019050919050565b600060208201905081810360008301526120c581612089565b9050919050565b7f456c206172746963756c6f206e6f206861207369646f20656e766961646f0000600082015250565b6000612102601e836116d4565b915061210d826120cc565b602082019050919050565b60006020820190508181036000830152612131816120f5565b905091905056fea2646970667358221220d666144cc2120f9fd0d1004e7d43287a61eb5047dfbac138a8e8df929a1e712b64736f6c63430008140033",
  "linkReferences": {},
  "deployedLinkReferences": {}
}