{
  "_format": "hh-sol-artifact-1",
  "contractName": "MyBasicNFT",
  "sourceName": "contracts/MybasicNft.sol",
  "abi": [
    {
      "inputs": [
        {
          "internalType": "address",
          "name": "initialOwner",
          "type": "address"
        }
      ],
      "stateMutability": "nonpayable",
      "type": "constructor"
    },
    {
      "inputs": [
        {
          "internalType": "address",
          "name": "sender",
          "type": "address"
        },
        {
          "internalType": "uint256",
          "name": "tokenId",
          "type": "uint256"
        },
        {
          "internalType": "address",
          "name": "owner",
          "type": "address"
        }
      ],
      "name": "ERC721IncorrectOwner",
      "type": "error"
    },
    {
      "inputs": [
        {
          "internalType": "address",
          "name": "operator",
          "type": "address"
        },
        {
          "internalType": "uint256",
          "name": "tokenId",
          "type": "uint256"
        }
      ],
      "name": "ERC721InsufficientApproval",
      "type": "error"
    },
    {
      "inputs": [
        {
          "internalType": "address",
          "name": "approver",
          "type": "address"
        }
      ],
      "name": "ERC721InvalidApprover",
      "type": "error"
    },
    {
      "inputs": [
        {
          "internalType": "address",
          "name": "operator",
          "type": "address"
        }
      ],
      "name": "ERC721InvalidOperator",
      "type": "error"
    },
    {
      "inputs": [
        {
          "internalType": "address",
          "name": "owner",
          "type": "address"
        }
      ],
      "name": "ERC721InvalidOwner",
      "type": "error"
    },
    {
      "inputs": [
        {
          "internalType": "address",
          "name": "receiver",
          "type": "address"
        }
      ],
      "name": "ERC721InvalidReceiver",
      "type": "error"
    },
    {
      "inputs": [
        {
          "internalType": "address",
          "name": "sender",
          "type": "address"
        }
      ],
      "name": "ERC721InvalidSender",
      "type": "error"
    },
    {
      "inputs": [
        {
          "internalType": "uint256",
          "name": "tokenId",
          "type": "uint256"
        }
      ],
      "name": "ERC721NonexistentToken",
      "type": "error"
    },
    {
      "inputs": [
        {
          "internalType": "address",
          "name": "owner",
          "type": "address"
        }
      ],
      "name": "OwnableInvalidOwner",
      "type": "error"
    },
    {
      "inputs": [
        {
          "internalType": "address",
          "name": "account",
          "type": "address"
        }
      ],
      "name": "OwnableUnauthorizedAccount",
      "type": "error"
    },
    {
      "anonymous": false,
      "inputs": [
        {
          "indexed": true,
          "internalType": "address",
          "name": "owner",
          "type": "address"
        },
        {
          "indexed": true,
          "internalType": "address",
          "name": "approved",
          "type": "address"
        },
        {
          "indexed": true,
          "internalType": "uint256",
          "name": "tokenId",
          "type": "uint256"
        }
      ],
      "name": "Approval",
      "type": "event"
    },
    {
      "anonymous": false,
      "inputs": [
        {
          "indexed": true,
          "internalType": "address",
          "name": "owner",
          "type": "address"
        },
        {
          "indexed": true,
          "internalType": "address",
          "name": "operator",
          "type": "address"
        },
        {
          "indexed": false,
          "internalType": "bool",
          "name": "approved",
          "type": "bool"
        }
      ],
      "name": "ApprovalForAll",
      "type": "event"
    },
    {
      "anonymous": false,
      "inputs": [
        {
          "indexed": false,
          "internalType": "uint256",
          "name": "_fromTokenId",
          "type": "uint256"
        },
        {
          "indexed": false,
          "internalType": "uint256",
          "name": "_toTokenId",
          "type": "uint256"
        }
      ],
      "name": "BatchMetadataUpdate",
      "type": "event"
    },
    {
      "anonymous": false,
      "inputs": [
        {
          "indexed": false,
          "internalType": "uint256",
          "name": "_tokenId",
          "type": "uint256"
        }
      ],
      "name": "MetadataUpdate",
      "type": "event"
    },
    {
      "anonymous": false,
      "inputs": [
        {
          "indexed": true,
          "internalType": "address",
          "name": "previousOwner",
          "type": "address"
        },
        {
          "indexed": true,
          "internalType": "address",
          "name": "newOwner",
          "type": "address"
        }
      ],
      "name": "OwnershipTransferred",
      "type": "event"
    },
    {
      "anonymous": false,
      "inputs": [
        {
          "indexed": true,
          "internalType": "address",
          "name": "from",
          "type": "address"
        },
        {
          "indexed": true,
          "internalType": "address",
          "name": "to",
          "type": "address"
        },
        {
          "indexed": true,
          "internalType": "uint256",
          "name": "tokenId",
          "type": "uint256"
        }
      ],
      "name": "Transfer",
      "type": "event"
    },
    {
      "inputs": [
        {
          "internalType": "address",
          "name": "to",
          "type": "address"
        },
        {
          "internalType": "uint256",
          "name": "tokenId",
          "type": "uint256"
        }
      ],
      "name": "approve",
      "outputs": [],
      "stateMutability": "nonpayable",
      "type": "function"
    },
    {
      "inputs": [
        {
          "internalType": "address",
          "name": "owner",
          "type": "address"
        }
      ],
      "name": "balanceOf",
      "outputs": [
        {
          "internalType": "uint256",
          "name": "",
          "type": "uint256"
        }
      ],
      "stateMutability": "view",
      "type": "function"
    },
    {
      "inputs": [
        {
          "internalType": "uint256",
          "name": "tokenId",
          "type": "uint256"
        }
      ],
      "name": "burn",
      "outputs": [],
      "stateMutability": "nonpayable",
      "type": "function"
    },
    {
      "inputs": [
        {
          "internalType": "uint256",
          "name": "tokenId",
          "type": "uint256"
        }
      ],
      "name": "getApproved",
      "outputs": [
        {
          "internalType": "address",
          "name": "",
          "type": "address"
        }
      ],
      "stateMutability": "view",
      "type": "function"
    },
    {
      "inputs": [
        {
          "internalType": "address",
          "name": "owner",
          "type": "address"
        },
        {
          "internalType": "address",
          "name": "operator",
          "type": "address"
        }
      ],
      "name": "isApprovedForAll",
      "outputs": [
        {
          "internalType": "bool",
          "name": "",
          "type": "bool"
        }
      ],
      "stateMutability": "view",
      "type": "function"
    },
    {
      "inputs": [],
      "name": "name",
      "outputs": [
        {
          "internalType": "string",
          "name": "",
          "type": "string"
        }
      ],
      "stateMutability": "view",
      "type": "function"
    },
    {
      "inputs": [],
      "name": "owner",
      "outputs": [
        {
          "internalType": "address",
          "name": "",
          "type": "address"
        }
      ],
      "stateMutability": "view",
      "type": "function"
    },
    {
      "inputs": [
        {
          "internalType": "uint256",
          "name": "tokenId",
          "type": "uint256"
        }
      ],
      "name": "ownerOf",
      "outputs": [
        {
          "internalType": "address",
          "name": "",
          "type": "address"
        }
      ],
      "stateMutability": "view",
      "type": "function"
    },
    {
      "inputs": [],
      "name": "renounceOwnership",
      "outputs": [],
      "stateMutability": "nonpayable",
      "type": "function"
    },
    {
      "inputs": [
        {
          "internalType": "address",
          "name": "to",
          "type": "address"
        }
      ],
      "name": "safeMint",
      "outputs": [],
      "stateMutability": "nonpayable",
      "type": "function"
    },
    {
      "inputs": [
        {
          "internalType": "address",
          "name": "from",
          "type": "address"
        },
        {
          "internalType": "address",
          "name": "to",
          "type": "address"
        },
        {
          "internalType": "uint256",
          "name": "tokenId",
          "type": "uint256"
        }
      ],
      "name": "safeTransferFrom",
      "outputs": [],
      "stateMutability": "nonpayable",
      "type": "function"
    },
    {
      "inputs": [
        {
          "internalType": "address",
          "name": "from",
          "type": "address"
        },
        {
          "internalType": "address",
          "name": "to",
          "type": "address"
        },
        {
          "internalType": "uint256",
          "name": "tokenId",
          "type": "uint256"
        },
        {
          "internalType": "bytes",
          "name": "data",
          "type": "bytes"
        }
      ],
      "name": "safeTransferFrom",
      "outputs": [],
      "stateMutability": "nonpayable",
      "type": "function"
    },
    {
      "inputs": [
        {
          "internalType": "address",
          "name": "operator",
          "type": "address"
        },
        {
          "internalType": "bool",
          "name": "approved",
          "type": "bool"
        }
      ],
      "name": "setApprovalForAll",
      "outputs": [],
      "stateMutability": "nonpayable",
      "type": "function"
    },
    {
      "inputs": [
        {
          "internalType": "bytes4",
          "name": "interfaceId",
          "type": "bytes4"
        }
      ],
      "name": "supportsInterface",
      "outputs": [
        {
          "internalType": "bool",
          "name": "",
          "type": "bool"
        }
      ],
      "stateMutability": "view",
      "type": "function"
    },
    {
      "inputs": [],
      "name": "symbol",
      "outputs": [
        {
          "internalType": "string",
          "name": "",
          "type": "string"
        }
      ],
      "stateMutability": "view",
      "type": "function"
    },
    {
      "inputs": [
        {
          "internalType": "uint256",
          "name": "tokenId",
          "type": "uint256"
        }
      ],
      "name": "tokenURI",
      "outputs": [
        {
          "internalType": "string",
          "name": "",
          "type": "string"
        }
      ],
      "stateMutability": "view",
      "type": "function"
    },
    {
      "inputs": [
        {
          "internalType": "address",
          "name": "from",
          "type": "address"
        },
        {
          "internalType": "address",
          "name": "to",
          "type": "address"
        },
        {
          "internalType": "uint256",
          "name": "tokenId",
          "type": "uint256"
        }
      ],
      "name": "transferFrom",
      "outputs": [],
      "stateMutability": "nonpayable",
      "type": "function"
    },
    {
      "inputs": [
        {
          "internalType": "address",
          "name": "to",
          "type": "address"
        },
        {
          "internalType": "uint256",
          "name": "tokenId",
          "type": "uint256"
        }
      ],
      "name": "transferNFT",
      "outputs": [],
      "stateMutability": "nonpayable",
      "type": "function"
    },
    {
      "inputs": [
        {
          "internalType": "address",
          "name": "newOwner",
          "type": "address"
        }
      ],
      "name": "transferOwnership",
      "outputs": [],
      "stateMutability": "nonpayable",
      "type": "function"
    }
  ],
  "bytecode": "0x60806040523480156200001157600080fd5b5060405162002d6f38038062002d6f833981810160405281019062000037919062000290565b806040518060400160405280600a81526020017f4d7942617369634e4654000000000000000000000000000000000000000000008152506040518060400160405280600581526020017f4d424e46540000000000000000000000000000000000000000000000000000008152508160009081620000b591906200053c565b508060019081620000c791906200053c565b505050600073ffffffffffffffffffffffffffffffffffffffff168173ffffffffffffffffffffffffffffffffffffffff16036200013f5760006040517f1e4fbdf700000000000000000000000000000000000000000000000000000000815260040162000136919062000634565b60405180910390fd5b62000150816200016060201b60201c565b5060016008819055505062000651565b6000600760009054906101000a900473ffffffffffffffffffffffffffffffffffffffff16905081600760006101000a81548173ffffffffffffffffffffffffffffffffffffffff021916908373ffffffffffffffffffffffffffffffffffffffff1602179055508173ffffffffffffffffffffffffffffffffffffffff168173ffffffffffffffffffffffffffffffffffffffff167f8be0079c531659141344cd1fd0a4f28419497f9722a3daafe3b4186f6b6457e060405160405180910390a35050565b600080fd5b600073ffffffffffffffffffffffffffffffffffffffff82169050919050565b600062000258826200022b565b9050919050565b6200026a816200024b565b81146200027657600080fd5b50565b6000815190506200028a816200025f565b92915050565b600060208284031215620002a957620002a862000226565b5b6000620002b98482850162000279565b91505092915050565b600081519050919050565b7f4e487b7100000000000000000000000000000000000000000000000000000000600052604160045260246000fd5b7f4e487b7100000000000000000000000000000000000000000000000000000000600052602260045260246000fd5b600060028204905060018216806200034457607f821691505b6020821081036200035a5762000359620002fc565b5b50919050565b60008190508160005260206000209050919050565b60006020601f8301049050919050565b600082821b905092915050565b600060088302620003c47fffffffffffffffffffffffffffffffffffffffffffffffffffffffffffffffff8262000385565b620003d0868362000385565b95508019841693508086168417925050509392505050565b6000819050919050565b6000819050919050565b60006200041d620004176200041184620003e8565b620003f2565b620003e8565b9050919050565b6000819050919050565b6200043983620003fc565b62000451620004488262000424565b84845462000392565b825550505050565b600090565b6200046862000459565b620004758184846200042e565b505050565b5b818110156200049d57620004916000826200045e565b6001810190506200047b565b5050565b601f821115620004ec57620004b68162000360565b620004c18462000375565b81016020851015620004d1578190505b620004e9620004e08562000375565b8301826200047a565b50505b505050565b600082821c905092915050565b60006200051160001984600802620004f1565b1980831691505092915050565b60006200052c8383620004fe565b9150826002028217905092915050565b6200054782620002c2565b67ffffffffffffffff811115620005635762000562620002cd565b5b6200056f82546200032b565b6200057c828285620004a1565b600060209050601f831160018114620005b457600084156200059f578287015190505b620005ab85826200051e565b8655506200061b565b601f198416620005c48662000360565b60005b82811015620005ee57848901518255600182019150602085019450602081019050620005c7565b868310156200060e57848901516200060a601f891682620004fe565b8355505b6001600288020188555050505b505050505050565b6200062e816200024b565b82525050565b60006020820190506200064b600083018462000623565b92915050565b61270e80620006616000396000f3fe608060405234801561001057600080fd5b50600436106101215760003560e01c806370a08231116100ad578063a22cb46511610071578063a22cb465146102f2578063b88d4fde1461030e578063c87b56dd1461032a578063e985e9c51461035a578063f2fde38b1461038a57610121565b806370a0823114610260578063715018a6146102905780638da5cb5b1461029a57806394ab67fe146102b857806395d89b41146102d457610121565b806323b872dd116100f457806323b872dd146101c057806340d097c3146101dc57806342842e0e146101f857806342966c68146102145780636352211e1461023057610121565b806301ffc9a71461012657806306fdde0314610156578063081812fc14610174578063095ea7b3146101a4575b600080fd5b610140600480360381019061013b9190611e4f565b6103a6565b60405161014d9190611e97565b60405180910390f35b61015e610407565b60405161016b9190611f42565b60405180910390f35b61018e60048036038101906101899190611f9a565b610499565b60405161019b9190612008565b60405180910390f35b6101be60048036038101906101b9919061204f565b6104b5565b005b6101da60048036038101906101d5919061208f565b6104cb565b005b6101f660048036038101906101f191906120e2565b6105cd565b005b610212600480360381019061020d919061208f565b610602565b005b61022e60048036038101906102299190611f9a565b610622565b005b61024a60048036038101906102459190611f9a565b6106fb565b6040516102579190612008565b60405180910390f35b61027a600480360381019061027591906120e2565b61070d565b604051610287919061211e565b60405180910390f35b6102986107c7565b005b6102a26107db565b6040516102af9190612008565b60405180910390f35b6102d260048036038101906102cd919061204f565b610805565b005b6102dc6108e1565b6040516102e99190611f42565b60405180910390f35b61030c60048036038101906103079190612165565b610973565b005b610328600480360381019061032391906122da565b610989565b005b610344600480360381019061033f9190611f9a565b6109ae565b6040516103519190611f42565b60405180910390f35b610374600480360381019061036f919061235d565b610ac1565b6040516103819190611e97565b60405180910390f35b6103a4600480360381019061039f91906120e2565b610b55565b005b6000634906490660e01b7bffffffffffffffffffffffffffffffffffffffffffffffffffffffff1916827bffffffffffffffffffffffffffffffffffffffffffffffffffffffff1916148061040057506103ff82610bdb565b5b9050919050565b606060008054610416906123cc565b80601f0160208091040260200160405190810160405280929190818152602001828054610442906123cc565b801561048f5780601f106104645761010080835404028352916020019161048f565b820191906000526020600020905b81548152906001019060200180831161047257829003601f168201915b5050505050905090565b60006104a482610cbd565b506104ae82610d45565b9050919050565b6104c782826104c2610d82565b610d8a565b5050565b600073ffffffffffffffffffffffffffffffffffffffff168273ffffffffffffffffffffffffffffffffffffffff160361053d5760006040517f64a0ae920000000000000000000000000000000000000000000000000000000081526004016105349190612008565b60405180910390fd5b6000610551838361054c610d82565b610d9c565b90508373ffffffffffffffffffffffffffffffffffffffff168173ffffffffffffffffffffffffffffffffffffffff16146105c7578382826040517f64283d7b0000000000000000000000000000000000000000000000000000000081526004016105be939291906123fd565b60405180910390fd5b50505050565b6105d5610fb6565b60006008549050600860008154809291906105ef90612463565b91905055506105fe828261103d565b5050565b61061d83838360405180602001604052806000815250610989565b505050565b3373ffffffffffffffffffffffffffffffffffffffff16610642826106fb565b73ffffffffffffffffffffffffffffffffffffffff16148061069757503373ffffffffffffffffffffffffffffffffffffffff1661067f82610499565b73ffffffffffffffffffffffffffffffffffffffff16145b806106b057506106af6106a9826106fb565b33610ac1565b5b6106ef576040517f08c379a00000000000000000000000000000000000000000000000000000000081526004016106e69061251d565b60405180910390fd5b6106f88161105b565b50565b600061070682610cbd565b9050919050565b60008073ffffffffffffffffffffffffffffffffffffffff168273ffffffffffffffffffffffffffffffffffffffff16036107805760006040517f89c62b640000000000000000000000000000000000000000000000000000000081526004016107779190612008565b60405180910390fd5b600360008373ffffffffffffffffffffffffffffffffffffffff1673ffffffffffffffffffffffffffffffffffffffff168152602001908152602001600020549050919050565b6107cf610fb6565b6107d960006110e1565b565b6000600760009054906101000a900473ffffffffffffffffffffffffffffffffffffffff16905090565b3373ffffffffffffffffffffffffffffffffffffffff16610825826106fb565b73ffffffffffffffffffffffffffffffffffffffff16148061087a57503373ffffffffffffffffffffffffffffffffffffffff1661086282610499565b73ffffffffffffffffffffffffffffffffffffffff16145b80610893575061089261088c826106fb565b33610ac1565b5b6108d2576040517f08c379a00000000000000000000000000000000000000000000000000000000081526004016108c99061251d565b60405180910390fd5b6108dd3383836111a7565b5050565b6060600180546108f0906123cc565b80601f016020809104026020016040519081016040528092919081815260200182805461091c906123cc565b80156109695780601f1061093e57610100808354040283529160200191610969565b820191906000526020600020905b81548152906001019060200180831161094c57829003601f168201915b5050505050905090565b61098561097e610d82565b8383611314565b5050565b6109948484846104cb565b6109a861099f610d82565b85858585611483565b50505050565b60606109b982610cbd565b5060006006600084815260200190815260200160002080546109da906123cc565b80601f0160208091040260200160405190810160405280929190818152602001828054610a06906123cc565b8015610a535780601f10610a2857610100808354040283529160200191610a53565b820191906000526020600020905b815481529060010190602001808311610a3657829003601f168201915b505050505090506000610a64611634565b90506000815103610a79578192505050610abc565b600082511115610aae578082604051602001610a96929190612579565b60405160208183030381529060405292505050610abc565b610ab78461164b565b925050505b919050565b6000600560008473ffffffffffffffffffffffffffffffffffffffff1673ffffffffffffffffffffffffffffffffffffffff16815260200190815260200160002060008373ffffffffffffffffffffffffffffffffffffffff1673ffffffffffffffffffffffffffffffffffffffff16815260200190815260200160002060009054906101000a900460ff16905092915050565b610b5d610fb6565b600073ffffffffffffffffffffffffffffffffffffffff168173ffffffffffffffffffffffffffffffffffffffff1603610bcf5760006040517f1e4fbdf7000000000000000000000000000000000000000000000000000000008152600401610bc69190612008565b60405180910390fd5b610bd8816110e1565b50565b60007f80ac58cd000000000000000000000000000000000000000000000000000000007bffffffffffffffffffffffffffffffffffffffffffffffffffffffff1916827bffffffffffffffffffffffffffffffffffffffffffffffffffffffff19161480610ca657507f5b5e139f000000000000000000000000000000000000000000000000000000007bffffffffffffffffffffffffffffffffffffffffffffffffffffffff1916827bffffffffffffffffffffffffffffffffffffffffffffffffffffffff1916145b80610cb65750610cb5826116b4565b5b9050919050565b600080610cc98361171e565b9050600073ffffffffffffffffffffffffffffffffffffffff168173ffffffffffffffffffffffffffffffffffffffff1603610d3c57826040517f7e273289000000000000000000000000000000000000000000000000000000008152600401610d33919061211e565b60405180910390fd5b80915050919050565b60006004600083815260200190815260200160002060009054906101000a900473ffffffffffffffffffffffffffffffffffffffff169050919050565b600033905090565b610d97838383600161175b565b505050565b600080610da88461171e565b9050600073ffffffffffffffffffffffffffffffffffffffff168373ffffffffffffffffffffffffffffffffffffffff1614610dea57610de9818486611920565b5b600073ffffffffffffffffffffffffffffffffffffffff168173ffffffffffffffffffffffffffffffffffffffff1614610e7b57610e2c60008560008061175b565b6001600360008373ffffffffffffffffffffffffffffffffffffffff1673ffffffffffffffffffffffffffffffffffffffff168152602001908152602001600020600082825403925050819055505b600073ffffffffffffffffffffffffffffffffffffffff168573ffffffffffffffffffffffffffffffffffffffff1614610efe576001600360008773ffffffffffffffffffffffffffffffffffffffff1673ffffffffffffffffffffffffffffffffffffffff168152602001908152602001600020600082825401925050819055505b846002600086815260200190815260200160002060006101000a81548173ffffffffffffffffffffffffffffffffffffffff021916908373ffffffffffffffffffffffffffffffffffffffff160217905550838573ffffffffffffffffffffffffffffffffffffffff168273ffffffffffffffffffffffffffffffffffffffff167fddf252ad1be2c89b69c2b068fc378daa952ba7f163c4a11628f55a4df523b3ef60405160405180910390a4809150509392505050565b610fbe610d82565b73ffffffffffffffffffffffffffffffffffffffff16610fdc6107db565b73ffffffffffffffffffffffffffffffffffffffff161461103b57610fff610d82565b6040517f118cdaa70000000000000000000000000000000000000000000000000000000081526004016110329190612008565b60405180910390fd5b565b6110578282604051806020016040528060008152506119e4565b5050565b600061106a6000836000610d9c565b9050600073ffffffffffffffffffffffffffffffffffffffff168173ffffffffffffffffffffffffffffffffffffffff16036110dd57816040517f7e2732890000000000000000000000000000000000000000000000000000000081526004016110d4919061211e565b60405180910390fd5b5050565b6000600760009054906101000a900473ffffffffffffffffffffffffffffffffffffffff16905081600760006101000a81548173ffffffffffffffffffffffffffffffffffffffff021916908373ffffffffffffffffffffffffffffffffffffffff1602179055508173ffffffffffffffffffffffffffffffffffffffff168173ffffffffffffffffffffffffffffffffffffffff167f8be0079c531659141344cd1fd0a4f28419497f9722a3daafe3b4186f6b6457e060405160405180910390a35050565b600073ffffffffffffffffffffffffffffffffffffffff168273ffffffffffffffffffffffffffffffffffffffff16036112195760006040517f64a0ae920000000000000000000000000000000000000000000000000000000081526004016112109190612008565b60405180910390fd5b600061122783836000610d9c565b9050600073ffffffffffffffffffffffffffffffffffffffff168173ffffffffffffffffffffffffffffffffffffffff160361129a57816040517f7e273289000000000000000000000000000000000000000000000000000000008152600401611291919061211e565b60405180910390fd5b8373ffffffffffffffffffffffffffffffffffffffff168173ffffffffffffffffffffffffffffffffffffffff161461130e578382826040517f64283d7b000000000000000000000000000000000000000000000000000000008152600401611305939291906123fd565b60405180910390fd5b50505050565b600073ffffffffffffffffffffffffffffffffffffffff168273ffffffffffffffffffffffffffffffffffffffff160361138557816040517f5b08ba1800000000000000000000000000000000000000000000000000000000815260040161137c9190612008565b60405180910390fd5b80600560008573ffffffffffffffffffffffffffffffffffffffff1673ffffffffffffffffffffffffffffffffffffffff16815260200190815260200160002060008473ffffffffffffffffffffffffffffffffffffffff1673ffffffffffffffffffffffffffffffffffffffff16815260200190815260200160002060006101000a81548160ff0219169083151502179055508173ffffffffffffffffffffffffffffffffffffffff168373ffffffffffffffffffffffffffffffffffffffff167f17307eab39ab6107e8899845ad3d59bd9653f200f220920489ca2b5937696c31836040516114769190611e97565b60405180910390a3505050565b60008373ffffffffffffffffffffffffffffffffffffffff163b111561162d578273ffffffffffffffffffffffffffffffffffffffff1663150b7a02868685856040518563ffffffff1660e01b81526004016114e294939291906125f2565b6020604051808303816000875af192505050801561151e57506040513d601f19601f8201168201806040525081019061151b9190612653565b60015b6115a2573d806000811461154e576040519150601f19603f3d011682016040523d82523d6000602084013e611553565b606091505b50600081510361159a57836040517f64a0ae920000000000000000000000000000000000000000000000000000000081526004016115919190612008565b60405180910390fd5b805181602001fd5b63150b7a0260e01b7bffffffffffffffffffffffffffffffffffffffffffffffffffffffff1916817bffffffffffffffffffffffffffffffffffffffffffffffffffffffff19161461162b57836040517f64a0ae920000000000000000000000000000000000000000000000000000000081526004016116229190612008565b60405180910390fd5b505b5050505050565b606060405180602001604052806000815250905090565b606061165682610cbd565b506000611661611634565b9050600081511161168157604051806020016040528060008152506116ac565b8061168b84611a08565b60405160200161169c929190612579565b6040516020818303038152906040525b915050919050565b60007f01ffc9a7000000000000000000000000000000000000000000000000000000007bffffffffffffffffffffffffffffffffffffffffffffffffffffffff1916827bffffffffffffffffffffffffffffffffffffffffffffffffffffffff1916149050919050565b60006002600083815260200190815260200160002060009054906101000a900473ffffffffffffffffffffffffffffffffffffffff169050919050565b80806117945750600073ffffffffffffffffffffffffffffffffffffffff168273ffffffffffffffffffffffffffffffffffffffff1614155b156118c85760006117a484610cbd565b9050600073ffffffffffffffffffffffffffffffffffffffff168373ffffffffffffffffffffffffffffffffffffffff161415801561180f57508273ffffffffffffffffffffffffffffffffffffffff168173ffffffffffffffffffffffffffffffffffffffff1614155b801561182257506118208184610ac1565b155b1561186457826040517fa9fbf51f00000000000000000000000000000000000000000000000000000000815260040161185b9190612008565b60405180910390fd5b81156118c657838573ffffffffffffffffffffffffffffffffffffffff168273ffffffffffffffffffffffffffffffffffffffff167f8c5be1e5ebec7d5bd14f71427d1e84f3dd0314c0f7b2291e5b200ac8c7c3b92560405160405180910390a45b505b836004600085815260200190815260200160002060006101000a81548173ffffffffffffffffffffffffffffffffffffffff021916908373ffffffffffffffffffffffffffffffffffffffff16021790555050505050565b61192b838383611ad6565b6119df57600073ffffffffffffffffffffffffffffffffffffffff168373ffffffffffffffffffffffffffffffffffffffff16036119a057806040517f7e273289000000000000000000000000000000000000000000000000000000008152600401611997919061211e565b60405180910390fd5b81816040517f177e802f0000000000000000000000000000000000000000000000000000000081526004016119d6929190612680565b60405180910390fd5b505050565b6119ee8383611b97565b611a036119f9610d82565b6000858585611483565b505050565b606060006001611a1784611c90565b01905060008167ffffffffffffffff811115611a3657611a356121af565b5b6040519080825280601f01601f191660200182016040528015611a685781602001600182028036833780820191505090505b509050600082602001820190505b600115611acb578080600190039150507f3031323334353637383961626364656600000000000000000000000000000000600a86061a8153600a8581611abf57611abe6126a9565b5b04945060008503611a76575b819350505050919050565b60008073ffffffffffffffffffffffffffffffffffffffff168373ffffffffffffffffffffffffffffffffffffffff1614158015611b8e57508273ffffffffffffffffffffffffffffffffffffffff168473ffffffffffffffffffffffffffffffffffffffff161480611b4f5750611b4e8484610ac1565b5b80611b8d57508273ffffffffffffffffffffffffffffffffffffffff16611b7583610d45565b73ffffffffffffffffffffffffffffffffffffffff16145b5b90509392505050565b600073ffffffffffffffffffffffffffffffffffffffff168273ffffffffffffffffffffffffffffffffffffffff1603611c095760006040517f64a0ae92000000000000000000000000000000000000000000000000000000008152600401611c009190612008565b60405180910390fd5b6000611c1783836000610d9c565b9050600073ffffffffffffffffffffffffffffffffffffffff168173ffffffffffffffffffffffffffffffffffffffff1614611c8b5760006040517f73c6ac6e000000000000000000000000000000000000000000000000000000008152600401611c829190612008565b60405180910390fd5b505050565b600080600090507a184f03e93ff9f4daa797ed6e38ed64bf6a1f0100000000000000008310611cee577a184f03e93ff9f4daa797ed6e38ed64bf6a1f0100000000000000008381611ce457611ce36126a9565b5b0492506040810190505b6d04ee2d6d415b85acef81000000008310611d2b576d04ee2d6d415b85acef81000000008381611d2157611d206126a9565b5b0492506020810190505b662386f26fc100008310611d5a57662386f26fc100008381611d5057611d4f6126a9565b5b0492506010810190505b6305f5e1008310611d83576305f5e1008381611d7957611d786126a9565b5b0492506008810190505b6127108310611da8576127108381611d9e57611d9d6126a9565b5b0492506004810190505b60648310611dcb5760648381611dc157611dc06126a9565b5b0492506002810190505b600a8310611dda576001810190505b80915050919050565b6000604051905090565b600080fd5b600080fd5b60007fffffffff0000000000000000000000000000000000000000000000000000000082169050919050565b611e2c81611df7565b8114611e3757600080fd5b50565b600081359050611e4981611e23565b92915050565b600060208284031215611e6557611e64611ded565b5b6000611e7384828501611e3a565b91505092915050565b60008115159050919050565b611e9181611e7c565b82525050565b6000602082019050611eac6000830184611e88565b92915050565b600081519050919050565b600082825260208201905092915050565b60005b83811015611eec578082015181840152602081019050611ed1565b60008484015250505050565b6000601f19601f8301169050919050565b6000611f1482611eb2565b611f1e8185611ebd565b9350611f2e818560208601611ece565b611f3781611ef8565b840191505092915050565b60006020820190508181036000830152611f5c8184611f09565b905092915050565b6000819050919050565b611f7781611f64565b8114611f8257600080fd5b50565b600081359050611f9481611f6e565b92915050565b600060208284031215611fb057611faf611ded565b5b6000611fbe84828501611f85565b91505092915050565b600073ffffffffffffffffffffffffffffffffffffffff82169050919050565b6000611ff282611fc7565b9050919050565b61200281611fe7565b82525050565b600060208201905061201d6000830184611ff9565b92915050565b61202c81611fe7565b811461203757600080fd5b50565b60008135905061204981612023565b92915050565b6000806040838503121561206657612065611ded565b5b60006120748582860161203a565b925050602061208585828601611f85565b9150509250929050565b6000806000606084860312156120a8576120a7611ded565b5b60006120b68682870161203a565b93505060206120c78682870161203a565b92505060406120d886828701611f85565b9150509250925092565b6000602082840312156120f8576120f7611ded565b5b60006121068482850161203a565b91505092915050565b61211881611f64565b82525050565b6000602082019050612133600083018461210f565b92915050565b61214281611e7c565b811461214d57600080fd5b50565b60008135905061215f81612139565b92915050565b6000806040838503121561217c5761217b611ded565b5b600061218a8582860161203a565b925050602061219b85828601612150565b9150509250929050565b600080fd5b600080fd5b7f4e487b7100000000000000000000000000000000000000000000000000000000600052604160045260246000fd5b6121e782611ef8565b810181811067ffffffffffffffff82111715612206576122056121af565b5b80604052505050565b6000612219611de3565b905061222582826121de565b919050565b600067ffffffffffffffff821115612245576122446121af565b5b61224e82611ef8565b9050602081019050919050565b82818337600083830152505050565b600061227d6122788461222a565b61220f565b905082815260208101848484011115612299576122986121aa565b5b6122a484828561225b565b509392505050565b600082601f8301126122c1576122c06121a5565b5b81356122d184826020860161226a565b91505092915050565b600080600080608085870312156122f4576122f3611ded565b5b60006123028782880161203a565b94505060206123138782880161203a565b935050604061232487828801611f85565b925050606085013567ffffffffffffffff81111561234557612344611df2565b5b612351878288016122ac565b91505092959194509250565b6000806040838503121561237457612373611ded565b5b60006123828582860161203a565b92505060206123938582860161203a565b9150509250929050565b7f4e487b7100000000000000000000000000000000000000000000000000000000600052602260045260246000fd5b600060028204905060018216806123e457607f821691505b6020821081036123f7576123f661239d565b5b50919050565b60006060820190506124126000830186611ff9565b61241f602083018561210f565b61242c6040830184611ff9565b949350505050565b7f4e487b7100000000000000000000000000000000000000000000000000000000600052601160045260246000fd5b600061246e82611f64565b91507fffffffffffffffffffffffffffffffffffffffffffffffffffffffffffffffff82036124a05761249f612434565b5b600182019050919050565b7f4e6f207469656e6573207065726d69736f2070617261207175656d617220657360008201527f746520746f6b656e000000000000000000000000000000000000000000000000602082015250565b6000612507602883611ebd565b9150612512826124ab565b604082019050919050565b60006020820190508181036000830152612536816124fa565b9050919050565b600081905092915050565b600061255382611eb2565b61255d818561253d565b935061256d818560208601611ece565b80840191505092915050565b60006125858285612548565b91506125918284612548565b91508190509392505050565b600081519050919050565b600082825260208201905092915050565b60006125c48261259d565b6125ce81856125a8565b93506125de818560208601611ece565b6125e781611ef8565b840191505092915050565b60006080820190506126076000830187611ff9565b6126146020830186611ff9565b612621604083018561210f565b818103606083015261263381846125b9565b905095945050505050565b60008151905061264d81611e23565b92915050565b60006020828403121561266957612668611ded565b5b60006126778482850161263e565b91505092915050565b60006040820190506126956000830185611ff9565b6126a2602083018461210f565b9392505050565b7f4e487b7100000000000000000000000000000000000000000000000000000000600052601260045260246000fdfea2646970667358221220fa06f5076a2c0ec945dccbd6e608da3fefc4381e6570e86ab1d6df3248f8eaac64736f6c63430008140033",
  "linkReferences": {},
  "deployedLinkReferences": {}
}