{
  "_format": "hh-sol-artifact-1",
  "contractName": "NFTMarketplace",
  "sourceName": "contracts/NFTMarketplace.sol",
  "abi": [
    {
      "inputs": [
        {
          "internalType": "address",
          "name": "initialOwner",
          "type": "address"
        }
      ],
      "stateMutability": "nonpayable",
      "type": "constructor"
    },
    {
      "inputs": [
        {
          "internalType": "address",
          "name": "owner",
          "type": "address"
        }
      ],
      "name": "OwnableInvalidOwner",
      "type": "error"
    },
    {
      "inputs": [
        {
          "internalType": "address",
          "name": "account",
          "type": "address"
        }
      ],
      "name": "OwnableUnauthorizedAccount",
      "type": "error"
    },
    {
      "anonymous": false,
      "inputs": [
        {
          "indexed": true,
          "internalType": "address",
          "name": "buyer",
          "type": "address"
        },
        {
          "indexed": true,
          "internalType": "address",
          "name": "nftContract",
          "type": "address"
        },
        {
          "indexed": true,
          "internalType": "uint256",
          "name": "tokenId",
          "type": "uint256"
        },
        {
          "indexed": false,
          "internalType": "uint256",
          "name": "price",
          "type": "uint256"
        }
      ],
      "name": "NFTBought",
      "type": "event"
    },
    {
      "anonymous": false,
      "inputs": [
        {
          "indexed": true,
          "internalType": "address",
          "name": "seller",
          "type": "address"
        },
        {
          "indexed": true,
          "internalType": "address",
          "name": "nftContract",
          "type": "address"
        },
        {
          "indexed": true,
          "internalType": "uint256",
          "name": "tokenId",
          "type": "uint256"
        },
        {
          "indexed": false,
          "internalType": "uint256",
          "name": "price",
          "type": "uint256"
        }
      ],
      "name": "NFTListed",
      "type": "event"
    },
    {
      "anonymous": false,
      "inputs": [
        {
          "indexed": true,
          "internalType": "address",
          "name": "seller",
          "type": "address"
        },
        {
          "indexed": true,
          "internalType": "address",
          "name": "nftContract",
          "type": "address"
        },
        {
          "indexed": true,
          "internalType": "uint256",
          "name": "tokenId",
          "type": "uint256"
        }
      ],
      "name": "NFTListingCancelled",
      "type": "event"
    },
    {
      "anonymous": false,
      "inputs": [
        {
          "indexed": true,
          "internalType": "address",
          "name": "previousOwner",
          "type": "address"
        },
        {
          "indexed": true,
          "internalType": "address",
          "name": "newOwner",
          "type": "address"
        }
      ],
      "name": "OwnershipTransferred",
      "type": "event"
    },
    {
      "inputs": [
        {
          "internalType": "uint256",
          "name": "listingId",
          "type": "uint256"
        }
      ],
      "name": "buyNFT",
      "outputs": [],
      "stateMutability": "payable",
      "type": "function"
    },
    {
      "inputs": [
        {
          "internalType": "uint256",
          "name": "listingId",
          "type": "uint256"
        }
      ],
      "name": "cancelListing",
      "outputs": [],
      "stateMutability": "nonpayable",
      "type": "function"
    },
    {
      "inputs": [
        {
          "internalType": "address",
          "name": "nftContract",
          "type": "address"
        },
        {
          "internalType": "uint256",
          "name": "tokenId",
          "type": "uint256"
        },
        {
          "internalType": "uint256",
          "name": "price",
          "type": "uint256"
        }
      ],
      "name": "listNFT",
      "outputs": [],
      "stateMutability": "nonpayable",
      "type": "function"
    },
    {
      "inputs": [],
      "name": "listingCounter",
      "outputs": [
        {
          "internalType": "uint256",
          "name": "",
          "type": "uint256"
        }
      ],
      "stateMutability": "view",
      "type": "function"
    },
    {
      "inputs": [
        {
          "internalType": "uint256",
          "name": "",
          "type": "uint256"
        }
      ],
      "name": "listings",
      "outputs": [
        {
          "internalType": "address",
          "name": "seller",
          "type": "address"
        },
        {
          "internalType": "address",
          "name": "nftContract",
          "type": "address"
        },
        {
          "internalType": "uint256",
          "name": "tokenId",
          "type": "uint256"
        },
        {
          "internalType": "uint256",
          "name": "price",
          "type": "uint256"
        }
      ],
      "stateMutability": "view",
      "type": "function"
    },
    {
      "inputs": [],
      "name": "owner",
      "outputs": [
        {
          "internalType": "address",
          "name": "",
          "type": "address"
        }
      ],
      "stateMutability": "view",
      "type": "function"
    },
    {
      "inputs": [],
      "name": "renounceOwnership",
      "outputs": [],
      "stateMutability": "nonpayable",
      "type": "function"
    },
    {
      "inputs": [
        {
          "internalType": "address",
          "name": "newOwner",
          "type": "address"
        }
      ],
      "name": "transferOwnership",
      "outputs": [],
      "stateMutability": "nonpayable",
      "type": "function"
    }
  ],
  "bytecode": "0x60806040523480156200001157600080fd5b5060405162001281380380620012818339818101604052810190620000379190620001fc565b80600073ffffffffffffffffffffffffffffffffffffffff168173ffffffffffffffffffffffffffffffffffffffff1603620000ad5760006040517f1e4fbdf7000000000000000000000000000000000000000000000000000000008152600401620000a491906200023f565b60405180910390fd5b620000be81620000ce60201b60201c565b506000600281905550506200025c565b60008060009054906101000a900473ffffffffffffffffffffffffffffffffffffffff169050816000806101000a81548173ffffffffffffffffffffffffffffffffffffffff021916908373ffffffffffffffffffffffffffffffffffffffff1602179055508173ffffffffffffffffffffffffffffffffffffffff168173ffffffffffffffffffffffffffffffffffffffff167f8be0079c531659141344cd1fd0a4f28419497f9722a3daafe3b4186f6b6457e060405160405180910390a35050565b600080fd5b600073ffffffffffffffffffffffffffffffffffffffff82169050919050565b6000620001c48262000197565b9050919050565b620001d681620001b7565b8114620001e257600080fd5b50565b600081519050620001f681620001cb565b92915050565b60006020828403121562000215576200021462000192565b5b60006200022584828501620001e5565b91505092915050565b6200023981620001b7565b82525050565b60006020820190506200025660008301846200022e565b92915050565b611015806200026c6000396000f3fe60806040526004361061007b5760003560e01c80638da5cb5b1161004e5780638da5cb5b14610107578063ad05f1b414610132578063de74e57b1461015b578063f2fde38b1461019b5761007b565b8063305a67a81461008057806351ed8288146100a95780636c2c9c7d146100c5578063715018a6146100f0575b600080fd5b34801561008c57600080fd5b506100a760048036038101906100a29190610ba6565b6101c4565b005b6100c360048036038101906100be9190610ba6565b6103f2565b005b3480156100d157600080fd5b506100da610712565b6040516100e79190610be2565b60405180910390f35b3480156100fc57600080fd5b50610105610718565b005b34801561011357600080fd5b5061011c61072c565b6040516101299190610c3e565b60405180910390f35b34801561013e57600080fd5b5061015960048036038101906101549190610c85565b610755565b005b34801561016757600080fd5b50610182600480360381019061017d9190610ba6565b610922565b6040516101929493929190610cd8565b60405180910390f35b3480156101a757600080fd5b506101c260048036038101906101bd9190610d1d565b610992565b005b6000600160008381526020019081526020016000206040518060800160405290816000820160009054906101000a900473ffffffffffffffffffffffffffffffffffffffff1673ffffffffffffffffffffffffffffffffffffffff1673ffffffffffffffffffffffffffffffffffffffff1681526020016001820160009054906101000a900473ffffffffffffffffffffffffffffffffffffffff1673ffffffffffffffffffffffffffffffffffffffff1673ffffffffffffffffffffffffffffffffffffffff1681526020016002820154815260200160038201548152505090503373ffffffffffffffffffffffffffffffffffffffff16816000015173ffffffffffffffffffffffffffffffffffffffff1614610318576040517f08c379a000000000000000000000000000000000000000000000000000000000815260040161030f90610dcd565b60405180910390fd5b8060400151816020015173ffffffffffffffffffffffffffffffffffffffff163373ffffffffffffffffffffffffffffffffffffffff167e256b650a319009288934cc7635a7e01e26bb412bbaa839589e41b52c30e86e60405160405180910390a460016000838152602001908152602001600020600080820160006101000a81549073ffffffffffffffffffffffffffffffffffffffff02191690556001820160006101000a81549073ffffffffffffffffffffffffffffffffffffffff02191690556002820160009055600382016000905550505050565b6000600160008381526020019081526020016000206040518060800160405290816000820160009054906101000a900473ffffffffffffffffffffffffffffffffffffffff1673ffffffffffffffffffffffffffffffffffffffff1673ffffffffffffffffffffffffffffffffffffffff1681526020016001820160009054906101000a900473ffffffffffffffffffffffffffffffffffffffff1673ffffffffffffffffffffffffffffffffffffffff1673ffffffffffffffffffffffffffffffffffffffff168152602001600282015481526020016003820154815250509050600081606001511161051b576040517f08c379a000000000000000000000000000000000000000000000000000000000815260040161051290610e39565b60405180910390fd5b8060600151341015610562576040517f08c379a000000000000000000000000000000000000000000000000000000000815260040161055990610ea5565b60405180910390fd5b806020015173ffffffffffffffffffffffffffffffffffffffff166342842e0e82600001513384604001516040518463ffffffff1660e01b81526004016105ab93929190610ec5565b600060405180830381600087803b1580156105c557600080fd5b505af11580156105d9573d6000803e3d6000fd5b50505050806000015173ffffffffffffffffffffffffffffffffffffffff166108fc349081150290604051600060405180830381858888f19350505050158015610627573d6000803e3d6000fd5b508060400151816020015173ffffffffffffffffffffffffffffffffffffffff163373ffffffffffffffffffffffffffffffffffffffff167f5a55b2d970d079d39ce4c5dc9ec6de52ebfc2bbcfc7466d62eea534ee873667384606001516040516106929190610be2565b60405180910390a460016000838152602001908152602001600020600080820160006101000a81549073ffffffffffffffffffffffffffffffffffffffff02191690556001820160006101000a81549073ffffffffffffffffffffffffffffffffffffffff02191690556002820160009055600382016000905550505050565b60025481565b610720610a18565b61072a6000610a9f565b565b60008060009054906101000a900473ffffffffffffffffffffffffffffffffffffffff16905090565b60008111610798576040517f08c379a000000000000000000000000000000000000000000000000000000000815260040161078f90610f48565b60405180910390fd5b60405180608001604052803373ffffffffffffffffffffffffffffffffffffffff1681526020018473ffffffffffffffffffffffffffffffffffffffff1681526020018381526020018281525060016000600254815260200190815260200160002060008201518160000160006101000a81548173ffffffffffffffffffffffffffffffffffffffff021916908373ffffffffffffffffffffffffffffffffffffffff16021790555060208201518160010160006101000a81548173ffffffffffffffffffffffffffffffffffffffff021916908373ffffffffffffffffffffffffffffffffffffffff1602179055506040820151816002015560608201518160030155905050818373ffffffffffffffffffffffffffffffffffffffff163373ffffffffffffffffffffffffffffffffffffffff167fbeab3a2bb824b124a8a1eb465eec003338d61b414db132d37e9b3a984fdcf010846040516108fd9190610be2565b60405180910390a46002600081548092919061091890610f97565b9190505550505050565b60016020528060005260406000206000915090508060000160009054906101000a900473ffffffffffffffffffffffffffffffffffffffff16908060010160009054906101000a900473ffffffffffffffffffffffffffffffffffffffff16908060020154908060030154905084565b61099a610a18565b600073ffffffffffffffffffffffffffffffffffffffff168173ffffffffffffffffffffffffffffffffffffffff1603610a0c5760006040517f1e4fbdf7000000000000000000000000000000000000000000000000000000008152600401610a039190610c3e565b60405180910390fd5b610a1581610a9f565b50565b610a20610b63565b73ffffffffffffffffffffffffffffffffffffffff16610a3e61072c565b73ffffffffffffffffffffffffffffffffffffffff1614610a9d57610a61610b63565b6040517f118cdaa7000000000000000000000000000000000000000000000000000000008152600401610a949190610c3e565b60405180910390fd5b565b60008060009054906101000a900473ffffffffffffffffffffffffffffffffffffffff169050816000806101000a81548173ffffffffffffffffffffffffffffffffffffffff021916908373ffffffffffffffffffffffffffffffffffffffff1602179055508173ffffffffffffffffffffffffffffffffffffffff168173ffffffffffffffffffffffffffffffffffffffff167f8be0079c531659141344cd1fd0a4f28419497f9722a3daafe3b4186f6b6457e060405160405180910390a35050565b600033905090565b600080fd5b6000819050919050565b610b8381610b70565b8114610b8e57600080fd5b50565b600081359050610ba081610b7a565b92915050565b600060208284031215610bbc57610bbb610b6b565b5b6000610bca84828501610b91565b91505092915050565b610bdc81610b70565b82525050565b6000602082019050610bf76000830184610bd3565b92915050565b600073ffffffffffffffffffffffffffffffffffffffff82169050919050565b6000610c2882610bfd565b9050919050565b610c3881610c1d565b82525050565b6000602082019050610c536000830184610c2f565b92915050565b610c6281610c1d565b8114610c6d57600080fd5b50565b600081359050610c7f81610c59565b92915050565b600080600060608486031215610c9e57610c9d610b6b565b5b6000610cac86828701610c70565b9350506020610cbd86828701610b91565b9250506040610cce86828701610b91565b9150509250925092565b6000608082019050610ced6000830187610c2f565b610cfa6020830186610c2f565b610d076040830185610bd3565b610d146060830184610bd3565b95945050505050565b600060208284031215610d3357610d32610b6b565b5b6000610d4184828501610c70565b91505092915050565b600082825260208201905092915050565b7f4f6e6c792073656c6c65722063616e2063616e63656c20746865206c6973746960008201527f6e67000000000000000000000000000000000000000000000000000000000000602082015250565b6000610db7602283610d4a565b9150610dc282610d5b565b604082019050919050565b60006020820190508181036000830152610de681610daa565b9050919050565b7f4e4654206973206e6f7420666f722073616c6500000000000000000000000000600082015250565b6000610e23601383610d4a565b9150610e2e82610ded565b602082019050919050565b60006020820190508181036000830152610e5281610e16565b9050919050565b7f496e73756666696369656e742066756e64730000000000000000000000000000600082015250565b6000610e8f601283610d4a565b9150610e9a82610e59565b602082019050919050565b60006020820190508181036000830152610ebe81610e82565b9050919050565b6000606082019050610eda6000830186610c2f565b610ee76020830185610c2f565b610ef46040830184610bd3565b949350505050565b7f5072696365206d7573742062652067726561746572207468616e207a65726f00600082015250565b6000610f32601f83610d4a565b9150610f3d82610efc565b602082019050919050565b60006020820190508181036000830152610f6181610f25565b9050919050565b7f4e487b7100000000000000000000000000000000000000000000000000000000600052601160045260246000fd5b6000610fa282610b70565b91507fffffffffffffffffffffffffffffffffffffffffffffffffffffffffffffffff8203610fd457610fd3610f68565b5b60018201905091905056fea26469706673582212203b3e9780e1fde5f4663e36a19dcc8c2f27bf6f494de859df2efb03514f57de9b64736f6c63430008140033",
  "linkReferences": {},
  "deployedLinkReferences": {}
}