{
	"data": {
		"bytecode": {
			"linkReferences": {},
			"object": "608060405234801561000f575f80fd5b5060405161109d38038061109d8339818101604052810190610031919061025f565b815f908161003f91906104bd565b503360045f6101000a81548173ffffffffffffffffffffffffffffffffffffffff021916908373ffffffffffffffffffffffffffffffffffffffff160217905550426005819055508060055461009591906105b9565b6006819055507ff8c022056754dbacca05aff710dc315a2fa7699ae9309fda403cd1e55c11d40f6005546006546040516100d09291906105fb565b60405180910390a15050610622565b5f604051905090565b5f80fd5b5f80fd5b5f80fd5b5f80fd5b5f601f19601f8301169050919050565b7f4e487b71000000000000000000000000000000000000000000000000000000005f52604160045260245ffd5b61013e826100f8565b810181811067ffffffffffffffff8211171561015d5761015c610108565b5b80604052505050565b5f61016f6100df565b905061017b8282610135565b919050565b5f67ffffffffffffffff82111561019a57610199610108565b5b6101a3826100f8565b9050602081019050919050565b8281835e5f83830152505050565b5f6101d06101cb84610180565b610166565b9050828152602081018484840111156101ec576101eb6100f4565b5b6101f78482856101b0565b509392505050565b5f82601f830112610213576102126100f0565b5b81516102238482602086016101be565b91505092915050565b5f819050919050565b61023e8161022c565b8114610248575f80fd5b50565b5f8151905061025981610235565b92915050565b5f8060408385031215610275576102746100e8565b5b5f83015167ffffffffffffffff811115610292576102916100ec565b5b61029e858286016101ff565b92505060206102af8582860161024b565b9150509250929050565b5f81519050919050565b7f4e487b71000000000000000000000000000000000000000000000000000000005f52602260045260245ffd5b5f600282049050600182168061030757607f821691505b60208210810361031a576103196102c3565b5b50919050565b5f819050815f5260205f209050919050565b5f6020601f8301049050919050565b5f82821b905092915050565b5f6008830261037c7fffffffffffffffffffffffffffffffffffffffffffffffffffffffffffffffff82610341565b6103868683610341565b95508019841693508086168417925050509392505050565b5f819050919050565b5f6103c16103bc6103b78461022c565b61039e565b61022c565b9050919050565b5f819050919050565b6103da836103a7565b6103ee6103e6826103c8565b84845461034d565b825550505050565b5f90565b6104026103f6565b61040d8184846103d1565b505050565b5b81811015610430576104255f826103fa565b600181019050610413565b5050565b601f8211156104755761044681610320565b61044f84610332565b8101602085101561045e578190505b61047261046a85610332565b830182610412565b50505b505050565b5f82821c905092915050565b5f6104955f198460080261047a565b1980831691505092915050565b5f6104ad8383610486565b9150826002028217905092915050565b6104c6826102b9565b67ffffffffffffffff8111156104df576104de610108565b5b6104e982546102f0565b6104f4828285610434565b5f60209050601f831160018114610525575f8415610513578287015190505b61051d85826104a2565b865550610584565b601f19841661053386610320565b5f5b8281101561055a57848901518255600182019150602085019450602081019050610535565b868310156105775784890151610573601f891682610486565b8355505b6001600288020188555050505b505050505050565b7f4e487b71000000000000000000000000000000000000000000000000000000005f52601160045260245ffd5b5f6105c38261022c565b91506105ce8361022c565b92508282019050808211156105e6576105e561058c565b5b92915050565b6105f58161022c565b82525050565b5f60408201905061060e5f8301856105ec565b61061b60208301846105ec565b9392505050565b610a6e8061062f5f395ff3fe608060405234801561000f575f80fd5b5060043610610091575f3560e01c8063753ec10311610064578063753ec1031461011d57806378e979251461013b5780638da5cb5b14610159578063a2fcbad714610177578063de2927891461019557610091565b806309eef43e146100955780633197cbb6146100c55780634b9f5c98146100e35780635c8d9541146100ff575b5f80fd5b6100af60048036038101906100aa919061063f565b6101b3565b6040516100bc9190610684565b60405180910390f35b6100cd6101d0565b6040516100da91906106b5565b60405180910390f35b6100fd60048036038101906100f891906106f8565b6101d6565b005b6101076103cd565b60405161011491906106b5565b60405180910390f35b6101256103d3565b6040516101329190610793565b60405180910390f35b61014361045e565b60405161015091906106b5565b60405180910390f35b610161610464565b60405161016e91906107c2565b60405180910390f35b61017f610489565b60405161018c91906106b5565b60405180910390f35b61019d61048f565b6040516101aa9190610793565b60405180910390f35b6001602052805f5260405f205f915054906101000a900460ff1681565b60065481565b60055442101561021b576040517f08c379a000000000000000000000000000000000000000000000000000000000815260040161021290610825565b60405180910390fd5b600654421115610260576040517f08c379a00000000000000000000000000000000000000000000000000000000081526004016102579061088d565b60405180910390fd5b60015f3373ffffffffffffffffffffffffffffffffffffffff1673ffffffffffffffffffffffffffffffffffffffff1681526020019081526020015f205f9054906101000a900460ff16156102ea576040517f08c379a00000000000000000000000000000000000000000000000000000000081526004016102e1906108f5565b60405180910390fd5b6001805f3373ffffffffffffffffffffffffffffffffffffffff1673ffffffffffffffffffffffffffffffffffffffff1681526020019081526020015f205f6101000a81548160ff021916908315150217905550801561036257600160025f8282546103569190610940565b9250508190555061037c565b600160035f8282546103749190610940565b925050819055505b3373ffffffffffffffffffffffffffffffffffffffff167fa32151c21b193dcf3d43d553597e960d429ef6cafad3492ee4790e41be1ce520826040516103c29190610684565b60405180910390a250565b60025481565b5f80546103df906109a0565b80601f016020809104026020016040519081016040528092919081815260200182805461040b906109a0565b80156104565780601f1061042d57610100808354040283529160200191610456565b820191905f5260205f20905b81548152906001019060200180831161043957829003601f168201915b505050505081565b60055481565b60045f9054906101000a900473ffffffffffffffffffffffffffffffffffffffff1681565b60035481565b606060065442116104d5576040517f08c379a00000000000000000000000000000000000000000000000000000000081526004016104cc90610a1a565b60405180910390fd5b60606003546002541115610520576040518060400160405280601d81526020017f4c612070726f707565737461206861207369646f206170726f6261646100000081525090506105a3565b6002546003541115610569576040518060400160405280601e81526020017f4c612070726f707565737461206861207369646f2072656368617a616461000081525090506105a2565b6040518060400160405280601d81526020017f4c6120766f746163696f6e207465726d696e6f20656e20656d7061746500000081525090505b5b7ff5250111a819ab87d27490e1837d465f4bc000cfd9316fc90fde27c791d8026d816040516105d29190610793565b60405180910390a18091505090565b5f80fd5b5f73ffffffffffffffffffffffffffffffffffffffff82169050919050565b5f61060e826105e5565b9050919050565b61061e81610604565b8114610628575f80fd5b50565b5f8135905061063981610615565b92915050565b5f60208284031215610654576106536105e1565b5b5f6106618482850161062b565b91505092915050565b5f8115159050919050565b61067e8161066a565b82525050565b5f6020820190506106975f830184610675565b92915050565b5f819050919050565b6106af8161069d565b82525050565b5f6020820190506106c85f8301846106a6565b92915050565b6106d78161066a565b81146106e1575f80fd5b50565b5f813590506106f2816106ce565b92915050565b5f6020828403121561070d5761070c6105e1565b5b5f61071a848285016106e4565b91505092915050565b5f81519050919050565b5f82825260208201905092915050565b8281835e5f83830152505050565b5f601f19601f8301169050919050565b5f61076582610723565b61076f818561072d565b935061077f81856020860161073d565b6107888161074b565b840191505092915050565b5f6020820190508181035f8301526107ab818461075b565b905092915050565b6107bc81610604565b82525050565b5f6020820190506107d55f8301846107b3565b92915050565b7f4c6120766f746163696f6e2061756e206e6f20686120636f6d656e7a61646f005f82015250565b5f61080f601f8361072d565b915061081a826107db565b602082019050919050565b5f6020820190508181035f83015261083c81610803565b9050919050565b7f4c6120766f746163696f6e206861207465726d696e61646f00000000000000005f82015250565b5f61087760188361072d565b915061088282610843565b602082019050919050565b5f6020820190508181035f8301526108a48161086b565b9050919050565b7f59612068617320766f7461646f000000000000000000000000000000000000005f82015250565b5f6108df600d8361072d565b91506108ea826108ab565b602082019050919050565b5f6020820190508181035f83015261090c816108d3565b9050919050565b7f4e487b71000000000000000000000000000000000000000000000000000000005f52601160045260245ffd5b5f61094a8261069d565b91506109558361069d565b925082820190508082111561096d5761096c610913565b5b92915050565b7f4e487b71000000000000000000000000000000000000000000000000000000005f52602260045260245ffd5b5f60028204905060018216806109b757607f821691505b6020821081036109ca576109c9610973565b5b50919050565b7f4c6120766f746163696f6e2061756e206e6f206861207465726d696e61646f005f82015250565b5f610a04601f8361072d565b9150610a0f826109d0565b602082019050919050565b5f6020820190508181035f830152610a31816109f8565b905091905056fea2646970667358221220c57798597ef9e9a5ef673c0a53c043d16efb3e90f53a23327772a2b6afff486864736f6c634300081a0033",
			"opcodes": "PUSH1 0x80 PUSH1 0x40 MSTORE CALLVALUE DUP1 ISZERO PUSH2 0xF JUMPI PUSH0 DUP1 REVERT JUMPDEST POP PUSH1 0x40 MLOAD PUSH2 0x109D CODESIZE SUB DUP1 PUSH2 0x109D DUP4 CODECOPY DUP2 DUP2 ADD PUSH1 0x40 MSTORE DUP2 ADD SWAP1 PUSH2 0x31 SWAP2 SWAP1 PUSH2 0x25F JUMP JUMPDEST DUP2 PUSH0 SWAP1 DUP2 PUSH2 0x3F SWAP2 SWAP1 PUSH2 0x4BD JUMP JUMPDEST POP CALLER PUSH1 0x4 PUSH0 PUSH2 0x100 EXP DUP2 SLOAD DUP2 PUSH20 0xFFFFFFFFFFFFFFFFFFFFFFFFFFFFFFFFFFFFFFFF MUL NOT AND SWAP1 DUP4 PUSH20 0xFFFFFFFFFFFFFFFFFFFFFFFFFFFFFFFFFFFFFFFF AND MUL OR SWAP1 SSTORE POP TIMESTAMP PUSH1 0x5 DUP2 SWAP1 SSTORE POP DUP1 PUSH1 0x5 SLOAD PUSH2 0x95 SWAP2 SWAP1 PUSH2 0x5B9 JUMP JUMPDEST PUSH1 0x6 DUP2 SWAP1 SSTORE POP PUSH32 0xF8C022056754DBACCA05AFF710DC315A2FA7699AE9309FDA403CD1E55C11D40F PUSH1 0x5 SLOAD PUSH1 0x6 SLOAD PUSH1 0x40 MLOAD PUSH2 0xD0 SWAP3 SWAP2 SWAP1 PUSH2 0x5FB JUMP JUMPDEST PUSH1 0x40 MLOAD DUP1 SWAP2 SUB SWAP1 LOG1 POP POP PUSH2 0x622 JUMP JUMPDEST PUSH0 PUSH1 0x40 MLOAD SWAP1 POP SWAP1 JUMP JUMPDEST PUSH0 DUP1 REVERT JUMPDEST PUSH0 DUP1 REVERT JUMPDEST PUSH0 DUP1 REVERT JUMPDEST PUSH0 DUP1 REVERT JUMPDEST PUSH0 PUSH1 0x1F NOT PUSH1 0x1F DUP4 ADD AND SWAP1 POP SWAP2 SWAP1 POP JUMP JUMPDEST PUSH32 0x4E487B7100000000000000000000000000000000000000000000000000000000 PUSH0 MSTORE PUSH1 0x41 PUSH1 0x4 MSTORE PUSH1 0x24 PUSH0 REVERT JUMPDEST PUSH2 0x13E DUP3 PUSH2 0xF8 JUMP JUMPDEST DUP2 ADD DUP2 DUP2 LT PUSH8 0xFFFFFFFFFFFFFFFF DUP3 GT OR ISZERO PUSH2 0x15D JUMPI PUSH2 0x15C PUSH2 0x108 JUMP JUMPDEST JUMPDEST DUP1 PUSH1 0x40 MSTORE POP POP POP JUMP JUMPDEST PUSH0 PUSH2 0x16F PUSH2 0xDF JUMP JUMPDEST SWAP1 POP PUSH2 0x17B DUP3 DUP3 PUSH2 0x135 JUMP JUMPDEST SWAP2 SWAP1 POP JUMP JUMPDEST PUSH0 PUSH8 0xFFFFFFFFFFFFFFFF DUP3 GT ISZERO PUSH2 0x19A JUMPI PUSH2 0x199 PUSH2 0x108 JUMP JUMPDEST JUMPDEST PUSH2 0x1A3 DUP3 PUSH2 0xF8 JUMP JUMPDEST SWAP1 POP PUSH1 0x20 DUP2 ADD SWAP1 POP SWAP2 SWAP1 POP JUMP JUMPDEST DUP3 DUP2 DUP4 MCOPY PUSH0 DUP4 DUP4 ADD MSTORE POP POP POP JUMP JUMPDEST PUSH0 PUSH2 0x1D0 PUSH2 0x1CB DUP5 PUSH2 0x180 JUMP JUMPDEST PUSH2 0x166 JUMP JUMPDEST SWAP1 POP DUP3 DUP2 MSTORE PUSH1 0x20 DUP2 ADD DUP5 DUP5 DUP5 ADD GT ISZERO PUSH2 0x1EC JUMPI PUSH2 0x1EB PUSH2 0xF4 JUMP JUMPDEST JUMPDEST PUSH2 0x1F7 DUP5 DUP3 DUP6 PUSH2 0x1B0 JUMP JUMPDEST POP SWAP4 SWAP3 POP POP POP JUMP JUMPDEST PUSH0 DUP3 PUSH1 0x1F DUP4 ADD SLT PUSH2 0x213 JUMPI PUSH2 0x212 PUSH2 0xF0 JUMP JUMPDEST JUMPDEST DUP2 MLOAD PUSH2 0x223 DUP5 DUP3 PUSH1 0x20 DUP7 ADD PUSH2 0x1BE JUMP JUMPDEST SWAP2 POP POP SWAP3 SWAP2 POP POP JUMP JUMPDEST PUSH0 DUP2 SWAP1 POP SWAP2 SWAP1 POP JUMP JUMPDEST PUSH2 0x23E DUP2 PUSH2 0x22C JUMP JUMPDEST DUP2 EQ PUSH2 0x248 JUMPI PUSH0 DUP1 REVERT JUMPDEST POP JUMP JUMPDEST PUSH0 DUP2 MLOAD SWAP1 POP PUSH2 0x259 DUP2 PUSH2 0x235 JUMP JUMPDEST SWAP3 SWAP2 POP POP JUMP JUMPDEST PUSH0 DUP1 PUSH1 0x40 DUP4 DUP6 SUB SLT ISZERO PUSH2 0x275 JUMPI PUSH2 0x274 PUSH2 0xE8 JUMP JUMPDEST JUMPDEST PUSH0 DUP4 ADD MLOAD PUSH8 0xFFFFFFFFFFFFFFFF DUP2 GT ISZERO PUSH2 0x292 JUMPI PUSH2 0x291 PUSH2 0xEC JUMP JUMPDEST JUMPDEST PUSH2 0x29E DUP6 DUP3 DUP7 ADD PUSH2 0x1FF JUMP JUMPDEST SWAP3 POP POP PUSH1 0x20 PUSH2 0x2AF DUP6 DUP3 DUP7 ADD PUSH2 0x24B JUMP JUMPDEST SWAP2 POP POP SWAP3 POP SWAP3 SWAP1 POP JUMP JUMPDEST PUSH0 DUP2 MLOAD SWAP1 POP SWAP2 SWAP1 POP JUMP JUMPDEST PUSH32 0x4E487B7100000000000000000000000000000000000000000000000000000000 PUSH0 MSTORE PUSH1 0x22 PUSH1 0x4 MSTORE PUSH1 0x24 PUSH0 REVERT JUMPDEST PUSH0 PUSH1 0x2 DUP3 DIV SWAP1 POP PUSH1 0x1 DUP3 AND DUP1 PUSH2 0x307 JUMPI PUSH1 0x7F DUP3 AND SWAP2 POP JUMPDEST PUSH1 0x20 DUP3 LT DUP2 SUB PUSH2 0x31A JUMPI PUSH2 0x319 PUSH2 0x2C3 JUMP JUMPDEST JUMPDEST POP SWAP2 SWAP1 POP JUMP JUMPDEST PUSH0 DUP2 SWAP1 POP DUP2 PUSH0 MSTORE PUSH1 0x20 PUSH0 KECCAK256 SWAP1 POP SWAP2 SWAP1 POP JUMP JUMPDEST PUSH0 PUSH1 0x20 PUSH1 0x1F DUP4 ADD DIV SWAP1 POP SWAP2 SWAP1 POP JUMP JUMPDEST PUSH0 DUP3 DUP3 SHL SWAP1 POP SWAP3 SWAP2 POP POP JUMP JUMPDEST PUSH0 PUSH1 0x8 DUP4 MUL PUSH2 0x37C PUSH32 0xFFFFFFFFFFFFFFFFFFFFFFFFFFFFFFFFFFFFFFFFFFFFFFFFFFFFFFFFFFFFFFFF DUP3 PUSH2 0x341 JUMP JUMPDEST PUSH2 0x386 DUP7 DUP4 PUSH2 0x341 JUMP JUMPDEST SWAP6 POP DUP1 NOT DUP5 AND SWAP4 POP DUP1 DUP7 AND DUP5 OR SWAP3 POP POP POP SWAP4 SWAP3 POP POP POP JUMP JUMPDEST PUSH0 DUP2 SWAP1 POP SWAP2 SWAP1 POP JUMP JUMPDEST PUSH0 PUSH2 0x3C1 PUSH2 0x3BC PUSH2 0x3B7 DUP5 PUSH2 0x22C JUMP JUMPDEST PUSH2 0x39E JUMP JUMPDEST PUSH2 0x22C JUMP JUMPDEST SWAP1 POP SWAP2 SWAP1 POP JUMP JUMPDEST PUSH0 DUP2 SWAP1 POP SWAP2 SWAP1 POP JUMP JUMPDEST PUSH2 0x3DA DUP4 PUSH2 0x3A7 JUMP JUMPDEST PUSH2 0x3EE PUSH2 0x3E6 DUP3 PUSH2 0x3C8 JUMP JUMPDEST DUP5 DUP5 SLOAD PUSH2 0x34D JUMP JUMPDEST DUP3 SSTORE POP POP POP POP JUMP JUMPDEST PUSH0 SWAP1 JUMP JUMPDEST PUSH2 0x402 PUSH2 0x3F6 JUMP JUMPDEST PUSH2 0x40D DUP2 DUP5 DUP5 PUSH2 0x3D1 JUMP JUMPDEST POP POP POP JUMP JUMPDEST JUMPDEST DUP2 DUP2 LT ISZERO PUSH2 0x430 JUMPI PUSH2 0x425 PUSH0 DUP3 PUSH2 0x3FA JUMP JUMPDEST PUSH1 0x1 DUP2 ADD SWAP1 POP PUSH2 0x413 JUMP JUMPDEST POP POP JUMP JUMPDEST PUSH1 0x1F DUP3 GT ISZERO PUSH2 0x475 JUMPI PUSH2 0x446 DUP2 PUSH2 0x320 JUMP JUMPDEST PUSH2 0x44F DUP5 PUSH2 0x332 JUMP JUMPDEST DUP2 ADD PUSH1 0x20 DUP6 LT ISZERO PUSH2 0x45E JUMPI DUP2 SWAP1 POP JUMPDEST PUSH2 0x472 PUSH2 0x46A DUP6 PUSH2 0x332 JUMP JUMPDEST DUP4 ADD DUP3 PUSH2 0x412 JUMP JUMPDEST POP POP JUMPDEST POP POP POP JUMP JUMPDEST PUSH0 DUP3 DUP3 SHR SWAP1 POP SWAP3 SWAP2 POP POP JUMP JUMPDEST PUSH0 PUSH2 0x495 PUSH0 NOT DUP5 PUSH1 0x8 MUL PUSH2 0x47A JUMP JUMPDEST NOT DUP1 DUP4 AND SWAP2 POP POP SWAP3 SWAP2 POP POP JUMP JUMPDEST PUSH0 PUSH2 0x4AD DUP4 DUP4 PUSH2 0x486 JUMP JUMPDEST SWAP2 POP DUP3 PUSH1 0x2 MUL DUP3 OR SWAP1 POP SWAP3 SWAP2 POP POP JUMP JUMPDEST PUSH2 0x4C6 DUP3 PUSH2 0x2B9 JUMP JUMPDEST PUSH8 0xFFFFFFFFFFFFFFFF DUP2 GT ISZERO PUSH2 0x4DF JUMPI PUSH2 0x4DE PUSH2 0x108 JUMP JUMPDEST JUMPDEST PUSH2 0x4E9 DUP3 SLOAD PUSH2 0x2F0 JUMP JUMPDEST PUSH2 0x4F4 DUP3 DUP3 DUP6 PUSH2 0x434 JUMP JUMPDEST PUSH0 PUSH1 0x20 SWAP1 POP PUSH1 0x1F DUP4 GT PUSH1 0x1 DUP2 EQ PUSH2 0x525 JUMPI PUSH0 DUP5 ISZERO PUSH2 0x513 JUMPI DUP3 DUP8 ADD MLOAD SWAP1 POP JUMPDEST PUSH2 0x51D DUP6 DUP3 PUSH2 0x4A2 JUMP JUMPDEST DUP7 SSTORE POP PUSH2 0x584 JUMP JUMPDEST PUSH1 0x1F NOT DUP5 AND PUSH2 0x533 DUP7 PUSH2 0x320 JUMP JUMPDEST PUSH0 JUMPDEST DUP3 DUP2 LT ISZERO PUSH2 0x55A JUMPI DUP5 DUP10 ADD MLOAD DUP3 SSTORE PUSH1 0x1 DUP3 ADD SWAP2 POP PUSH1 0x20 DUP6 ADD SWAP5 POP PUSH1 0x20 DUP2 ADD SWAP1 POP PUSH2 0x535 JUMP JUMPDEST DUP7 DUP4 LT ISZERO PUSH2 0x577 JUMPI DUP5 DUP10 ADD MLOAD PUSH2 0x573 PUSH1 0x1F DUP10 AND DUP3 PUSH2 0x486 JUMP JUMPDEST DUP4 SSTORE POP JUMPDEST PUSH1 0x1 PUSH1 0x2 DUP9 MUL ADD DUP9 SSTORE POP POP POP JUMPDEST POP POP POP POP POP POP JUMP JUMPDEST PUSH32 0x4E487B7100000000000000000000000000000000000000000000000000000000 PUSH0 MSTORE PUSH1 0x11 PUSH1 0x4 MSTORE PUSH1 0x24 PUSH0 REVERT JUMPDEST PUSH0 PUSH2 0x5C3 DUP3 PUSH2 0x22C JUMP JUMPDEST SWAP2 POP PUSH2 0x5CE DUP4 PUSH2 0x22C JUMP JUMPDEST SWAP3 POP DUP3 DUP3 ADD SWAP1 POP DUP1 DUP3 GT ISZERO PUSH2 0x5E6 JUMPI PUSH2 0x5E5 PUSH2 0x58C JUMP JUMPDEST JUMPDEST SWAP3 SWAP2 POP POP JUMP JUMPDEST PUSH2 0x5F5 DUP2 PUSH2 0x22C JUMP JUMPDEST DUP3 MSTORE POP POP JUMP JUMPDEST PUSH0 PUSH1 0x40 DUP3 ADD SWAP1 POP PUSH2 0x60E PUSH0 DUP4 ADD DUP6 PUSH2 0x5EC JUMP JUMPDEST PUSH2 0x61B PUSH1 0x20 DUP4 ADD DUP5 PUSH2 0x5EC JUMP JUMPDEST SWAP4 SWAP3 POP POP POP JUMP JUMPDEST PUSH2 0xA6E DUP1 PUSH2 0x62F PUSH0 CODECOPY PUSH0 RETURN INVALID PUSH1 0x80 PUSH1 0x40 MSTORE CALLVALUE DUP1 ISZERO PUSH2 0xF JUMPI PUSH0 DUP1 REVERT JUMPDEST POP PUSH1 0x4 CALLDATASIZE LT PUSH2 0x91 JUMPI PUSH0 CALLDATALOAD PUSH1 0xE0 SHR DUP1 PUSH4 0x753EC103 GT PUSH2 0x64 JUMPI DUP1 PUSH4 0x753EC103 EQ PUSH2 0x11D JUMPI DUP1 PUSH4 0x78E97925 EQ PUSH2 0x13B JUMPI DUP1 PUSH4 0x8DA5CB5B EQ PUSH2 0x159 JUMPI DUP1 PUSH4 0xA2FCBAD7 EQ PUSH2 0x177 JUMPI DUP1 PUSH4 0xDE292789 EQ PUSH2 0x195 JUMPI PUSH2 0x91 JUMP JUMPDEST DUP1 PUSH4 0x9EEF43E EQ PUSH2 0x95 JUMPI DUP1 PUSH4 0x3197CBB6 EQ PUSH2 0xC5 JUMPI DUP1 PUSH4 0x4B9F5C98 EQ PUSH2 0xE3 JUMPI DUP1 PUSH4 0x5C8D9541 EQ PUSH2 0xFF JUMPI JUMPDEST PUSH0 DUP1 REVERT JUMPDEST PUSH2 0xAF PUSH1 0x4 DUP1 CALLDATASIZE SUB DUP2 ADD SWAP1 PUSH2 0xAA SWAP2 SWAP1 PUSH2 0x63F JUMP JUMPDEST PUSH2 0x1B3 JUMP JUMPDEST PUSH1 0x40 MLOAD PUSH2 0xBC SWAP2 SWAP1 PUSH2 0x684 JUMP JUMPDEST PUSH1 0x40 MLOAD DUP1 SWAP2 SUB SWAP1 RETURN JUMPDEST PUSH2 0xCD PUSH2 0x1D0 JUMP JUMPDEST PUSH1 0x40 MLOAD PUSH2 0xDA SWAP2 SWAP1 PUSH2 0x6B5 JUMP JUMPDEST PUSH1 0x40 MLOAD DUP1 SWAP2 SUB SWAP1 RETURN JUMPDEST PUSH2 0xFD PUSH1 0x4 DUP1 CALLDATASIZE SUB DUP2 ADD SWAP1 PUSH2 0xF8 SWAP2 SWAP1 PUSH2 0x6F8 JUMP JUMPDEST PUSH2 0x1D6 JUMP JUMPDEST STOP JUMPDEST PUSH2 0x107 PUSH2 0x3CD JUMP JUMPDEST PUSH1 0x40 MLOAD PUSH2 0x114 SWAP2 SWAP1 PUSH2 0x6B5 JUMP JUMPDEST PUSH1 0x40 MLOAD DUP1 SWAP2 SUB SWAP1 RETURN JUMPDEST PUSH2 0x125 PUSH2 0x3D3 JUMP JUMPDEST PUSH1 0x40 MLOAD PUSH2 0x132 SWAP2 SWAP1 PUSH2 0x793 JUMP JUMPDEST PUSH1 0x40 MLOAD DUP1 SWAP2 SUB SWAP1 RETURN JUMPDEST PUSH2 0x143 PUSH2 0x45E JUMP JUMPDEST PUSH1 0x40 MLOAD PUSH2 0x150 SWAP2 SWAP1 PUSH2 0x6B5 JUMP JUMPDEST PUSH1 0x40 MLOAD DUP1 SWAP2 SUB SWAP1 RETURN JUMPDEST PUSH2 0x161 PUSH2 0x464 JUMP JUMPDEST PUSH1 0x40 MLOAD PUSH2 0x16E SWAP2 SWAP1 PUSH2 0x7C2 JUMP JUMPDEST PUSH1 0x40 MLOAD DUP1 SWAP2 SUB SWAP1 RETURN JUMPDEST PUSH2 0x17F PUSH2 0x489 JUMP JUMPDEST PUSH1 0x40 MLOAD PUSH2 0x18C SWAP2 SWAP1 PUSH2 0x6B5 JUMP JUMPDEST PUSH1 0x40 MLOAD DUP1 SWAP2 SUB SWAP1 RETURN JUMPDEST PUSH2 0x19D PUSH2 0x48F JUMP JUMPDEST PUSH1 0x40 MLOAD PUSH2 0x1AA SWAP2 SWAP1 PUSH2 0x793 JUMP JUMPDEST PUSH1 0x40 MLOAD DUP1 SWAP2 SUB SWAP1 RETURN JUMPDEST PUSH1 0x1 PUSH1 0x20 MSTORE DUP1 PUSH0 MSTORE PUSH1 0x40 PUSH0 KECCAK256 PUSH0 SWAP2 POP SLOAD SWAP1 PUSH2 0x100 EXP SWAP1 DIV PUSH1 0xFF AND DUP2 JUMP JUMPDEST PUSH1 0x6 SLOAD DUP2 JUMP JUMPDEST PUSH1 0x5 SLOAD TIMESTAMP LT ISZERO PUSH2 0x21B JUMPI PUSH1 0x40 MLOAD PUSH32 0x8C379A000000000000000000000000000000000000000000000000000000000 DUP2 MSTORE PUSH1 0x4 ADD PUSH2 0x212 SWAP1 PUSH2 0x825 JUMP JUMPDEST PUSH1 0x40 MLOAD DUP1 SWAP2 SUB SWAP1 REVERT JUMPDEST PUSH1 0x6 SLOAD TIMESTAMP GT ISZERO PUSH2 0x260 JUMPI PUSH1 0x40 MLOAD PUSH32 0x8C379A000000000000000000000000000000000000000000000000000000000 DUP2 MSTORE PUSH1 0x4 ADD PUSH2 0x257 SWAP1 PUSH2 0x88D JUMP JUMPDEST PUSH1 0x40 MLOAD DUP1 SWAP2 SUB SWAP1 REVERT JUMPDEST PUSH1 0x1 PUSH0 CALLER PUSH20 0xFFFFFFFFFFFFFFFFFFFFFFFFFFFFFFFFFFFFFFFF AND PUSH20 0xFFFFFFFFFFFFFFFFFFFFFFFFFFFFFFFFFFFFFFFF AND DUP2 MSTORE PUSH1 0x20 ADD SWAP1 DUP2 MSTORE PUSH1 0x20 ADD PUSH0 KECCAK256 PUSH0 SWAP1 SLOAD SWAP1 PUSH2 0x100 EXP SWAP1 DIV PUSH1 0xFF AND ISZERO PUSH2 0x2EA JUMPI PUSH1 0x40 MLOAD PUSH32 0x8C379A000000000000000000000000000000000000000000000000000000000 DUP2 MSTORE PUSH1 0x4 ADD PUSH2 0x2E1 SWAP1 PUSH2 0x8F5 JUMP JUMPDEST PUSH1 0x40 MLOAD DUP1 SWAP2 SUB SWAP1 REVERT JUMPDEST PUSH1 0x1 DUP1 PUSH0 CALLER PUSH20 0xFFFFFFFFFFFFFFFFFFFFFFFFFFFFFFFFFFFFFFFF AND PUSH20 0xFFFFFFFFFFFFFFFFFFFFFFFFFFFFFFFFFFFFFFFF AND DUP2 MSTORE PUSH1 0x20 ADD SWAP1 DUP2 MSTORE PUSH1 0x20 ADD PUSH0 KECCAK256 PUSH0 PUSH2 0x100 EXP DUP2 SLOAD DUP2 PUSH1 0xFF MUL NOT AND SWAP1 DUP4 ISZERO ISZERO MUL OR SWAP1 SSTORE POP DUP1 ISZERO PUSH2 0x362 JUMPI PUSH1 0x1 PUSH1 0x2 PUSH0 DUP3 DUP3 SLOAD PUSH2 0x356 SWAP2 SWAP1 PUSH2 0x940 JUMP JUMPDEST SWAP3 POP POP DUP2 SWAP1 SSTORE POP PUSH2 0x37C JUMP JUMPDEST PUSH1 0x1 PUSH1 0x3 PUSH0 DUP3 DUP3 SLOAD PUSH2 0x374 SWAP2 SWAP1 PUSH2 0x940 JUMP JUMPDEST SWAP3 POP POP DUP2 SWAP1 SSTORE POP JUMPDEST CALLER PUSH20 0xFFFFFFFFFFFFFFFFFFFFFFFFFFFFFFFFFFFFFFFF AND PUSH32 0xA32151C21B193DCF3D43D553597E960D429EF6CAFAD3492EE4790E41BE1CE520 DUP3 PUSH1 0x40 MLOAD PUSH2 0x3C2 SWAP2 SWAP1 PUSH2 0x684 JUMP JUMPDEST PUSH1 0x40 MLOAD DUP1 SWAP2 SUB SWAP1 LOG2 POP JUMP JUMPDEST PUSH1 0x2 SLOAD DUP2 JUMP JUMPDEST PUSH0 DUP1 SLOAD PUSH2 0x3DF SWAP1 PUSH2 0x9A0 JUMP JUMPDEST DUP1 PUSH1 0x1F ADD PUSH1 0x20 DUP1 SWAP2 DIV MUL PUSH1 0x20 ADD PUSH1 0x40 MLOAD SWAP1 DUP2 ADD PUSH1 0x40 MSTORE DUP1 SWAP3 SWAP2 SWAP1 DUP2 DUP2 MSTORE PUSH1 0x20 ADD DUP3 DUP1 SLOAD PUSH2 0x40B SWAP1 PUSH2 0x9A0 JUMP JUMPDEST DUP1 ISZERO PUSH2 0x456 JUMPI DUP1 PUSH1 0x1F LT PUSH2 0x42D JUMPI PUSH2 0x100 DUP1 DUP4 SLOAD DIV MUL DUP4 MSTORE SWAP2 PUSH1 0x20 ADD SWAP2 PUSH2 0x456 JUMP JUMPDEST DUP3 ADD SWAP2 SWAP1 PUSH0 MSTORE PUSH1 0x20 PUSH0 KECCAK256 SWAP1 JUMPDEST DUP2 SLOAD DUP2 MSTORE SWAP1 PUSH1 0x1 ADD SWAP1 PUSH1 0x20 ADD DUP1 DUP4 GT PUSH2 0x439 JUMPI DUP3 SWAP1 SUB PUSH1 0x1F AND DUP3 ADD SWAP2 JUMPDEST POP POP POP POP POP DUP2 JUMP JUMPDEST PUSH1 0x5 SLOAD DUP2 JUMP JUMPDEST PUSH1 0x4 PUSH0 SWAP1 SLOAD SWAP1 PUSH2 0x100 EXP SWAP1 DIV PUSH20 0xFFFFFFFFFFFFFFFFFFFFFFFFFFFFFFFFFFFFFFFF AND DUP2 JUMP JUMPDEST PUSH1 0x3 SLOAD DUP2 JUMP JUMPDEST PUSH1 0x60 PUSH1 0x6 SLOAD TIMESTAMP GT PUSH2 0x4D5 JUMPI PUSH1 0x40 MLOAD PUSH32 0x8C379A000000000000000000000000000000000000000000000000000000000 DUP2 MSTORE PUSH1 0x4 ADD PUSH2 0x4CC SWAP1 PUSH2 0xA1A JUMP JUMPDEST PUSH1 0x40 MLOAD DUP1 SWAP2 SUB SWAP1 REVERT JUMPDEST PUSH1 0x60 PUSH1 0x3 SLOAD PUSH1 0x2 SLOAD GT ISZERO PUSH2 0x520 JUMPI PUSH1 0x40 MLOAD DUP1 PUSH1 0x40 ADD PUSH1 0x40 MSTORE DUP1 PUSH1 0x1D DUP2 MSTORE PUSH1 0x20 ADD PUSH32 0x4C612070726F707565737461206861207369646F206170726F62616461000000 DUP2 MSTORE POP SWAP1 POP PUSH2 0x5A3 JUMP JUMPDEST PUSH1 0x2 SLOAD PUSH1 0x3 SLOAD GT ISZERO PUSH2 0x569 JUMPI PUSH1 0x40 MLOAD DUP1 PUSH1 0x40 ADD PUSH1 0x40 MSTORE DUP1 PUSH1 0x1E DUP2 MSTORE PUSH1 0x20 ADD PUSH32 0x4C612070726F707565737461206861207369646F2072656368617A6164610000 DUP2 MSTORE POP SWAP1 POP PUSH2 0x5A2 JUMP JUMPDEST PUSH1 0x40 MLOAD DUP1 PUSH1 0x40 ADD PUSH1 0x40 MSTORE DUP1 PUSH1 0x1D DUP2 MSTORE PUSH1 0x20 ADD PUSH32 0x4C6120766F746163696F6E207465726D696E6F20656E20656D70617465000000 DUP2 MSTORE POP SWAP1 POP JUMPDEST JUMPDEST PUSH32 0xF5250111A819AB87D27490E1837D465F4BC000CFD9316FC90FDE27C791D8026D DUP2 PUSH1 0x40 MLOAD PUSH2 0x5D2 SWAP2 SWAP1 PUSH2 0x793 JUMP JUMPDEST PUSH1 0x40 MLOAD DUP1 SWAP2 SUB SWAP1 LOG1 DUP1 SWAP2 POP POP SWAP1 JUMP JUMPDEST PUSH0 DUP1 REVERT JUMPDEST PUSH0 PUSH20 0xFFFFFFFFFFFFFFFFFFFFFFFFFFFFFFFFFFFFFFFF DUP3 AND SWAP1 POP SWAP2 SWAP1 POP JUMP JUMPDEST PUSH0 PUSH2 0x60E DUP3 PUSH2 0x5E5 JUMP JUMPDEST SWAP1 POP SWAP2 SWAP1 POP JUMP JUMPDEST PUSH2 0x61E DUP2 PUSH2 0x604 JUMP JUMPDEST DUP2 EQ PUSH2 0x628 JUMPI PUSH0 DUP1 REVERT JUMPDEST POP JUMP JUMPDEST PUSH0 DUP2 CALLDATALOAD SWAP1 POP PUSH2 0x639 DUP2 PUSH2 0x615 JUMP JUMPDEST SWAP3 SWAP2 POP POP JUMP JUMPDEST PUSH0 PUSH1 0x20 DUP3 DUP5 SUB SLT ISZERO PUSH2 0x654 JUMPI PUSH2 0x653 PUSH2 0x5E1 JUMP JUMPDEST JUMPDEST PUSH0 PUSH2 0x661 DUP5 DUP3 DUP6 ADD PUSH2 0x62B JUMP JUMPDEST SWAP2 POP POP SWAP3 SWAP2 POP POP JUMP JUMPDEST PUSH0 DUP2 ISZERO ISZERO SWAP1 POP SWAP2 SWAP1 POP JUMP JUMPDEST PUSH2 0x67E DUP2 PUSH2 0x66A JUMP JUMPDEST DUP3 MSTORE POP POP JUMP JUMPDEST PUSH0 PUSH1 0x20 DUP3 ADD SWAP1 POP PUSH2 0x697 PUSH0 DUP4 ADD DUP5 PUSH2 0x675 JUMP JUMPDEST SWAP3 SWAP2 POP POP JUMP JUMPDEST PUSH0 DUP2 SWAP1 POP SWAP2 SWAP1 POP JUMP JUMPDEST PUSH2 0x6AF DUP2 PUSH2 0x69D JUMP JUMPDEST DUP3 MSTORE POP POP JUMP JUMPDEST PUSH0 PUSH1 0x20 DUP3 ADD SWAP1 POP PUSH2 0x6C8 PUSH0 DUP4 ADD DUP5 PUSH2 0x6A6 JUMP JUMPDEST SWAP3 SWAP2 POP POP JUMP JUMPDEST PUSH2 0x6D7 DUP2 PUSH2 0x66A JUMP JUMPDEST DUP2 EQ PUSH2 0x6E1 JUMPI PUSH0 DUP1 REVERT JUMPDEST POP JUMP JUMPDEST PUSH0 DUP2 CALLDATALOAD SWAP1 POP PUSH2 0x6F2 DUP2 PUSH2 0x6CE JUMP JUMPDEST SWAP3 SWAP2 POP POP JUMP JUMPDEST PUSH0 PUSH1 0x20 DUP3 DUP5 SUB SLT ISZERO PUSH2 0x70D JUMPI PUSH2 0x70C PUSH2 0x5E1 JUMP JUMPDEST JUMPDEST PUSH0 PUSH2 0x71A DUP5 DUP3 DUP6 ADD PUSH2 0x6E4 JUMP JUMPDEST SWAP2 POP POP SWAP3 SWAP2 POP POP JUMP JUMPDEST PUSH0 DUP2 MLOAD SWAP1 POP SWAP2 SWAP1 POP JUMP JUMPDEST PUSH0 DUP3 DUP3 MSTORE PUSH1 0x20 DUP3 ADD SWAP1 POP SWAP3 SWAP2 POP POP JUMP JUMPDEST DUP3 DUP2 DUP4 MCOPY PUSH0 DUP4 DUP4 ADD MSTORE POP POP POP JUMP JUMPDEST PUSH0 PUSH1 0x1F NOT PUSH1 0x1F DUP4 ADD AND SWAP1 POP SWAP2 SWAP1 POP JUMP JUMPDEST PUSH0 PUSH2 0x765 DUP3 PUSH2 0x723 JUMP JUMPDEST PUSH2 0x76F DUP2 DUP6 PUSH2 0x72D JUMP JUMPDEST SWAP4 POP PUSH2 0x77F DUP2 DUP6 PUSH1 0x20 DUP7 ADD PUSH2 0x73D JUMP JUMPDEST PUSH2 0x788 DUP2 PUSH2 0x74B JUMP JUMPDEST DUP5 ADD SWAP2 POP POP SWAP3 SWAP2 POP POP JUMP JUMPDEST PUSH0 PUSH1 0x20 DUP3 ADD SWAP1 POP DUP2 DUP2 SUB PUSH0 DUP4 ADD MSTORE PUSH2 0x7AB DUP2 DUP5 PUSH2 0x75B JUMP JUMPDEST SWAP1 POP SWAP3 SWAP2 POP POP JUMP JUMPDEST PUSH2 0x7BC DUP2 PUSH2 0x604 JUMP JUMPDEST DUP3 MSTORE POP POP JUMP JUMPDEST PUSH0 PUSH1 0x20 DUP3 ADD SWAP1 POP PUSH2 0x7D5 PUSH0 DUP4 ADD DUP5 PUSH2 0x7B3 JUMP JUMPDEST SWAP3 SWAP2 POP POP JUMP JUMPDEST PUSH32 0x4C6120766F746163696F6E2061756E206E6F20686120636F6D656E7A61646F00 PUSH0 DUP3 ADD MSTORE POP JUMP JUMPDEST PUSH0 PUSH2 0x80F PUSH1 0x1F DUP4 PUSH2 0x72D JUMP JUMPDEST SWAP2 POP PUSH2 0x81A DUP3 PUSH2 0x7DB JUMP JUMPDEST PUSH1 0x20 DUP3 ADD SWAP1 POP SWAP2 SWAP1 POP JUMP JUMPDEST PUSH0 PUSH1 0x20 DUP3 ADD SWAP1 POP DUP2 DUP2 SUB PUSH0 DUP4 ADD MSTORE PUSH2 0x83C DUP2 PUSH2 0x803 JUMP JUMPDEST SWAP1 POP SWAP2 SWAP1 POP JUMP JUMPDEST PUSH32 0x4C6120766F746163696F6E206861207465726D696E61646F0000000000000000 PUSH0 DUP3 ADD MSTORE POP JUMP JUMPDEST PUSH0 PUSH2 0x877 PUSH1 0x18 DUP4 PUSH2 0x72D JUMP JUMPDEST SWAP2 POP PUSH2 0x882 DUP3 PUSH2 0x843 JUMP JUMPDEST PUSH1 0x20 DUP3 ADD SWAP1 POP SWAP2 SWAP1 POP JUMP JUMPDEST PUSH0 PUSH1 0x20 DUP3 ADD SWAP1 POP DUP2 DUP2 SUB PUSH0 DUP4 ADD MSTORE PUSH2 0x8A4 DUP2 PUSH2 0x86B JUMP JUMPDEST SWAP1 POP SWAP2 SWAP1 POP JUMP JUMPDEST PUSH32 0x59612068617320766F7461646F00000000000000000000000000000000000000 PUSH0 DUP3 ADD MSTORE POP JUMP JUMPDEST PUSH0 PUSH2 0x8DF PUSH1 0xD DUP4 PUSH2 0x72D JUMP JUMPDEST SWAP2 POP PUSH2 0x8EA DUP3 PUSH2 0x8AB JUMP JUMPDEST PUSH1 0x20 DUP3 ADD SWAP1 POP SWAP2 SWAP1 POP JUMP JUMPDEST PUSH0 PUSH1 0x20 DUP3 ADD SWAP1 POP DUP2 DUP2 SUB PUSH0 DUP4 ADD MSTORE PUSH2 0x90C DUP2 PUSH2 0x8D3 JUMP JUMPDEST SWAP1 POP SWAP2 SWAP1 POP JUMP JUMPDEST PUSH32 0x4E487B7100000000000000000000000000000000000000000000000000000000 PUSH0 MSTORE PUSH1 0x11 PUSH1 0x4 MSTORE PUSH1 0x24 PUSH0 REVERT JUMPDEST PUSH0 PUSH2 0x94A DUP3 PUSH2 0x69D JUMP JUMPDEST SWAP2 POP PUSH2 0x955 DUP4 PUSH2 0x69D JUMP JUMPDEST SWAP3 POP DUP3 DUP3 ADD SWAP1 POP DUP1 DUP3 GT ISZERO PUSH2 0x96D JUMPI PUSH2 0x96C PUSH2 0x913 JUMP JUMPDEST JUMPDEST SWAP3 SWAP2 POP POP JUMP JUMPDEST PUSH32 0x4E487B7100000000000000000000000000000000000000000000000000000000 PUSH0 MSTORE PUSH1 0x22 PUSH1 0x4 MSTORE PUSH1 0x24 PUSH0 REVERT JUMPDEST PUSH0 PUSH1 0x2 DUP3 DIV SWAP1 POP PUSH1 0x1 DUP3 AND DUP1 PUSH2 0x9B7 JUMPI PUSH1 0x7F DUP3 AND SWAP2 POP JUMPDEST PUSH1 0x20 DUP3 LT DUP2 SUB PUSH2 0x9CA JUMPI PUSH2 0x9C9 PUSH2 0x973 JUMP JUMPDEST JUMPDEST POP SWAP2 SWAP1 POP JUMP JUMPDEST PUSH32 0x4C6120766F746163696F6E2061756E206E6F206861207465726D696E61646F00 PUSH0 DUP3 ADD MSTORE POP JUMP JUMPDEST PUSH0 PUSH2 0xA04 PUSH1 0x1F DUP4 PUSH2 0x72D JUMP JUMPDEST SWAP2 POP PUSH2 0xA0F DUP3 PUSH2 0x9D0 JUMP JUMPDEST PUSH1 0x20 DUP3 ADD SWAP1 POP SWAP2 SWAP1 POP JUMP JUMPDEST PUSH0 PUSH1 0x20 DUP3 ADD SWAP1 POP DUP2 DUP2 SUB PUSH0 DUP4 ADD MSTORE PUSH2 0xA31 DUP2 PUSH2 0x9F8 JUMP JUMPDEST SWAP1 POP SWAP2 SWAP1 POP JUMP INVALID LOG2 PUSH5 0x6970667358 0x22 SLT KECCAK256 0xC5 PUSH24 0x98597EF9E9A5EF673C0A53C043D16EFB3E90F53A23327772 LOG2 0xB6 0xAF SELFDESTRUCT BASEFEE PUSH9 0x64736F6C634300081A STOP CALLER "
		},
		"gasEstimates": {
			"creation": {
				"codeDepositCost": "534000",
				"executionCost": "infinite",
				"totalCost": "infinite"
			},
			"external": {
				"endTime()": "2448",
				"getResult()": "infinite",
				"hasVoted(address)": "2834",
				"noCount()": "2491",
				"owner()": "2552",
				"proposal()": "infinite",
				"startTime()": "2447",
				"vote(bool)": "infinite",
				"yesCount()": "2492"
			}
		},
		"methodIdentifiers": {
			"endTime()": "3197cbb6",
			"getResult()": "de292789",
			"hasVoted(address)": "09eef43e",
			"noCount()": "a2fcbad7",
			"owner()": "8da5cb5b",
			"proposal()": "753ec103",
			"startTime()": "78e97925",
			"vote(bool)": "4b9f5c98",
			"yesCount()": "5c8d9541"
		}
	},
	"abi": [
		{
			"inputs": [
				{
					"internalType": "string",
					"name": "_proposal",
					"type": "string"
				},
				{
					"internalType": "uint256",
					"name": "_votingDurationInSeconds",
					"type": "uint256"
				}
			],
			"stateMutability": "nonpayable",
			"type": "constructor"
		},
		{
			"anonymous": false,
			"inputs": [
				{
					"indexed": false,
					"internalType": "string",
					"name": "outcome",
					"type": "string"
				}
			],
			"name": "Result",
			"type": "event"
		},
		{
			"anonymous": false,
			"inputs": [
				{
					"indexed": true,
					"internalType": "address",
					"name": "voter",
					"type": "address"
				},
				{
					"indexed": false,
					"internalType": "bool",
					"name": "vote",
					"type": "bool"
				}
			],
			"name": "VoteCast",
			"type": "event"
		},
		{
			"anonymous": false,
			"inputs": [
				{
					"indexed": false,
					"internalType": "uint256",
					"name": "yesCount",
					"type": "uint256"
				},
				{
					"indexed": false,
					"internalType": "uint256",
					"name": "noCount",
					"type": "uint256"
				}
			],
			"name": "VotingEnded",
			"type": "event"
		},
		{
			"anonymous": false,
			"inputs": [
				{
					"indexed": false,
					"internalType": "uint256",
					"name": "startTime",
					"type": "uint256"
				},
				{
					"indexed": false,
					"internalType": "uint256",
					"name": "endTime",
					"type": "uint256"
				}
			],
			"name": "VotingStarted",
			"type": "event"
		},
		{
			"inputs": [],
			"name": "endTime",
			"outputs": [
				{
					"internalType": "uint256",
					"name": "",
					"type": "uint256"
				}
			],
			"stateMutability": "view",
			"type": "function"
		},
		{
			"inputs": [],
			"name": "getResult",
			"outputs": [
				{
					"internalType": "string",
					"name": "",
					"type": "string"
				}
			],
			"stateMutability": "nonpayable",
			"type": "function"
		},
		{
			"inputs": [
				{
					"internalType": "address",
					"name": "",
					"type": "address"
				}
			],
			"name": "hasVoted",
			"outputs": [
				{
					"internalType": "bool",
					"name": "",
					"type": "bool"
				}
			],
			"stateMutability": "view",
			"type": "function"
		},
		{
			"inputs": [],
			"name": "noCount",
			"outputs": [
				{
					"internalType": "uint256",
					"name": "",
					"type": "uint256"
				}
			],
			"stateMutability": "view",
			"type": "function"
		},
		{
			"inputs": [],
			"name": "owner",
			"outputs": [
				{
					"internalType": "address",
					"name": "",
					"type": "address"
				}
			],
			"stateMutability": "view",
			"type": "function"
		},
		{
			"inputs": [],
			"name": "proposal",
			"outputs": [
				{
					"internalType": "string",
					"name": "",
					"type": "string"
				}
			],
			"stateMutability": "view",
			"type": "function"
		},
		{
			"inputs": [],
			"name": "startTime",
			"outputs": [
				{
					"internalType": "uint256",
					"name": "",
					"type": "uint256"
				}
			],
			"stateMutability": "view",
			"type": "function"
		},
		{
			"inputs": [
				{
					"internalType": "bool",
					"name": "_vote",
					"type": "bool"
				}
			],
			"name": "vote",
			"outputs": [],
			"stateMutability": "nonpayable",
			"type": "function"
		},
		{
			"inputs": [],
			"name": "yesCount",
			"outputs": [
				{
					"internalType": "uint256",
					"name": "",
					"type": "uint256"
				}
			],
			"stateMutability": "view",
			"type": "function"
		}
	]
}