{
  "_format": "hh-sol-artifact-1",
  "contractName": "NFTMarketPlace",
  "sourceName": "contracts/NFTMarketPlace.sol",
  "abi": [
    {
      "inputs": [],
      "stateMutability": "nonpayable",
      "type": "constructor"
    },
    {
      "inputs": [
        {
          "internalType": "address",
          "name": "owner",
          "type": "address"
        }
      ],
      "name": "OwnableInvalidOwner",
      "type": "error"
    },
    {
      "inputs": [
        {
          "internalType": "address",
          "name": "account",
          "type": "address"
        }
      ],
      "name": "OwnableUnauthorizedAccount",
      "type": "error"
    },
    {
      "anonymous": false,
      "inputs": [
        {
          "indexed": true,
          "internalType": "address",
          "name": "previousOwner",
          "type": "address"
        },
        {
          "indexed": true,
          "internalType": "address",
          "name": "newOwner",
          "type": "address"
        }
      ],
      "name": "OwnershipTransferred",
      "type": "event"
    },
    {
      "inputs": [
        {
          "internalType": "uint256",
          "name": "listingId",
          "type": "uint256"
        }
      ],
      "name": "buyNFT",
      "outputs": [],
      "stateMutability": "payable",
      "type": "function"
    },
    {
      "inputs": [],
      "name": "getListings",
      "outputs": [
        {
          "components": [
            {
              "internalType": "uint256",
              "name": "tokenId",
              "type": "uint256"
            },
            {
              "internalType": "address",
              "name": "tokenAddress",
              "type": "address"
            },
            {
              "internalType": "address",
              "name": "seller",
              "type": "address"
            },
            {
              "internalType": "uint256",
              "name": "price",
              "type": "uint256"
            },
            {
              "internalType": "bool",
              "name": "sold",
              "type": "bool"
            }
          ],
          "internalType": "struct NFTMarketPlace.Listing[]",
          "name": "",
          "type": "tuple[]"
        }
      ],
      "stateMutability": "view",
      "type": "function"
    },
    {
      "inputs": [
        {
          "internalType": "address",
          "name": "tokenAddress",
          "type": "address"
        },
        {
          "internalType": "uint256",
          "name": "tokenId",
          "type": "uint256"
        },
        {
          "internalType": "uint256",
          "name": "price",
          "type": "uint256"
        }
      ],
      "name": "listNFT",
      "outputs": [],
      "stateMutability": "nonpayable",
      "type": "function"
    },
    {
      "inputs": [
        {
          "internalType": "uint256",
          "name": "",
          "type": "uint256"
        }
      ],
      "name": "listings",
      "outputs": [
        {
          "internalType": "uint256",
          "name": "tokenId",
          "type": "uint256"
        },
        {
          "internalType": "address",
          "name": "tokenAddress",
          "type": "address"
        },
        {
          "internalType": "address",
          "name": "seller",
          "type": "address"
        },
        {
          "internalType": "uint256",
          "name": "price",
          "type": "uint256"
        },
        {
          "internalType": "bool",
          "name": "sold",
          "type": "bool"
        }
      ],
      "stateMutability": "view",
      "type": "function"
    },
    {
      "inputs": [],
      "name": "owner",
      "outputs": [
        {
          "internalType": "address",
          "name": "",
          "type": "address"
        }
      ],
      "stateMutability": "view",
      "type": "function"
    },
    {
      "inputs": [],
      "name": "renounceOwnership",
      "outputs": [],
      "stateMutability": "nonpayable",
      "type": "function"
    },
    {
      "inputs": [
        {
          "internalType": "address",
          "name": "newOwner",
          "type": "address"
        }
      ],
      "name": "transferOwnership",
      "outputs": [],
      "stateMutability": "nonpayable",
      "type": "function"
    }
  ],
  "bytecode": "0x608060405234801561001057600080fd5b5033600073ffffffffffffffffffffffffffffffffffffffff168173ffffffffffffffffffffffffffffffffffffffff16036100845760006040517f1e4fbdf700000000000000000000000000000000000000000000000000000000815260040161007b919061019e565b60405180910390fd5b6100938161009960201b60201c565b506101b9565b60008060009054906101000a900473ffffffffffffffffffffffffffffffffffffffff169050816000806101000a81548173ffffffffffffffffffffffffffffffffffffffff021916908373ffffffffffffffffffffffffffffffffffffffff1602179055508173ffffffffffffffffffffffffffffffffffffffff168173ffffffffffffffffffffffffffffffffffffffff167f8be0079c531659141344cd1fd0a4f28419497f9722a3daafe3b4186f6b6457e060405160405180910390a35050565b600073ffffffffffffffffffffffffffffffffffffffff82169050919050565b60006101888261015d565b9050919050565b6101988161017d565b82525050565b60006020820190506101b3600083018461018f565b92915050565b61114c80620001c96000396000f3fe6080604052600436106100705760003560e01c8063ad05f1b41161004e578063ad05f1b4146100d3578063de74e57b146100fc578063f1b2d6a31461013d578063f2fde38b1461016857610070565b806351ed828814610075578063715018a6146100915780638da5cb5b146100a8575b600080fd5b61008f600480360381019061008a9190610aac565b610191565b005b34801561009d57600080fd5b506100a661039c565b005b3480156100b457600080fd5b506100bd6103b0565b6040516100ca9190610b1a565b60405180910390f35b3480156100df57600080fd5b506100fa60048036038101906100f59190610b61565b6103d9565b005b34801561010857600080fd5b50610123600480360381019061011e9190610aac565b6106cb565b604051610134959493929190610bde565b60405180910390f35b34801561014957600080fd5b5061015261075e565b60405161015f9190610d75565b60405180910390f35b34801561017457600080fd5b5061018f600480360381019061018a9190610d97565b610898565b005b6000600182815481106101a7576101a6610dc4565b5b906000526020600020906005020190508060040160009054906101000a900460ff1615610209576040517f08c379a000000000000000000000000000000000000000000000000000000000815260040161020090610e50565b60405180910390fd5b8060030154341461024f576040517f08c379a000000000000000000000000000000000000000000000000000000000815260040161024690610ee2565b60405180910390fd5b60018160040160006101000a81548160ff02191690831515021790555060008160010160009054906101000a900473ffffffffffffffffffffffffffffffffffffffff1690508073ffffffffffffffffffffffffffffffffffffffff166342842e0e8360020160009054906101000a900473ffffffffffffffffffffffffffffffffffffffff163385600001546040518463ffffffff1660e01b81526004016102fa93929190610f02565b600060405180830381600087803b15801561031457600080fd5b505af1158015610328573d6000803e3d6000fd5b505050508160020160009054906101000a900473ffffffffffffffffffffffffffffffffffffffff1673ffffffffffffffffffffffffffffffffffffffff166108fc349081150290604051600060405180830381858888f19350505050158015610396573d6000803e3d6000fd5b50505050565b6103a461091e565b6103ae60006109a5565b565b60008060009054906101000a900473ffffffffffffffffffffffffffffffffffffffff16905090565b60008390503373ffffffffffffffffffffffffffffffffffffffff168173ffffffffffffffffffffffffffffffffffffffff16636352211e856040518263ffffffff1660e01b815260040161042e9190610f39565b602060405180830381865afa15801561044b573d6000803e3d6000fd5b505050506040513d601f19601f8201168201806040525081019061046f9190610f69565b73ffffffffffffffffffffffffffffffffffffffff16146104c5576040517f08c379a00000000000000000000000000000000000000000000000000000000081526004016104bc90610fe2565b60405180910390fd5b8073ffffffffffffffffffffffffffffffffffffffff1663e985e9c533306040518363ffffffff1660e01b8152600401610500929190611002565b602060405180830381865afa15801561051d573d6000803e3d6000fd5b505050506040513d601f19601f820116820180604052508101906105419190611057565b610580576040517f08c379a0000000000000000000000000000000000000000000000000000000008152600401610577906110f6565b60405180910390fd5b60016040518060a001604052808581526020018673ffffffffffffffffffffffffffffffffffffffff1681526020013373ffffffffffffffffffffffffffffffffffffffff1681526020018481526020016000151581525090806001815401808255809150506001900390600052602060002090600502016000909190919091506000820151816000015560208201518160010160006101000a81548173ffffffffffffffffffffffffffffffffffffffff021916908373ffffffffffffffffffffffffffffffffffffffff16021790555060408201518160020160006101000a81548173ffffffffffffffffffffffffffffffffffffffff021916908373ffffffffffffffffffffffffffffffffffffffff1602179055506060820151816003015560808201518160040160006101000a81548160ff021916908315150217905550505050505050565b600181815481106106db57600080fd5b90600052602060002090600502016000915090508060000154908060010160009054906101000a900473ffffffffffffffffffffffffffffffffffffffff16908060020160009054906101000a900473ffffffffffffffffffffffffffffffffffffffff16908060030154908060040160009054906101000a900460ff16905085565b60606001805480602002602001604051908101604052809291908181526020016000905b8282101561088f57838290600052602060002090600502016040518060a0016040529081600082015481526020016001820160009054906101000a900473ffffffffffffffffffffffffffffffffffffffff1673ffffffffffffffffffffffffffffffffffffffff1673ffffffffffffffffffffffffffffffffffffffff1681526020016002820160009054906101000a900473ffffffffffffffffffffffffffffffffffffffff1673ffffffffffffffffffffffffffffffffffffffff1673ffffffffffffffffffffffffffffffffffffffff168152602001600382015481526020016004820160009054906101000a900460ff16151515158152505081526020019060010190610782565b50505050905090565b6108a061091e565b600073ffffffffffffffffffffffffffffffffffffffff168173ffffffffffffffffffffffffffffffffffffffff16036109125760006040517f1e4fbdf70000000000000000000000000000000000000000000000000000000081526004016109099190610b1a565b60405180910390fd5b61091b816109a5565b50565b610926610a69565b73ffffffffffffffffffffffffffffffffffffffff166109446103b0565b73ffffffffffffffffffffffffffffffffffffffff16146109a357610967610a69565b6040517f118cdaa700000000000000000000000000000000000000000000000000000000815260040161099a9190610b1a565b60405180910390fd5b565b60008060009054906101000a900473ffffffffffffffffffffffffffffffffffffffff169050816000806101000a81548173ffffffffffffffffffffffffffffffffffffffff021916908373ffffffffffffffffffffffffffffffffffffffff1602179055508173ffffffffffffffffffffffffffffffffffffffff168173ffffffffffffffffffffffffffffffffffffffff167f8be0079c531659141344cd1fd0a4f28419497f9722a3daafe3b4186f6b6457e060405160405180910390a35050565b600033905090565b600080fd5b6000819050919050565b610a8981610a76565b8114610a9457600080fd5b50565b600081359050610aa681610a80565b92915050565b600060208284031215610ac257610ac1610a71565b5b6000610ad084828501610a97565b91505092915050565b600073ffffffffffffffffffffffffffffffffffffffff82169050919050565b6000610b0482610ad9565b9050919050565b610b1481610af9565b82525050565b6000602082019050610b2f6000830184610b0b565b92915050565b610b3e81610af9565b8114610b4957600080fd5b50565b600081359050610b5b81610b35565b92915050565b600080600060608486031215610b7a57610b79610a71565b5b6000610b8886828701610b4c565b9350506020610b9986828701610a97565b9250506040610baa86828701610a97565b9150509250925092565b610bbd81610a76565b82525050565b60008115159050919050565b610bd881610bc3565b82525050565b600060a082019050610bf36000830188610bb4565b610c006020830187610b0b565b610c0d6040830186610b0b565b610c1a6060830185610bb4565b610c276080830184610bcf565b9695505050505050565b600081519050919050565b600082825260208201905092915050565b6000819050602082019050919050565b610c6681610a76565b82525050565b610c7581610af9565b82525050565b610c8481610bc3565b82525050565b60a082016000820151610ca06000850182610c5d565b506020820151610cb36020850182610c6c565b506040820151610cc66040850182610c6c565b506060820151610cd96060850182610c5d565b506080820151610cec6080850182610c7b565b50505050565b6000610cfe8383610c8a565b60a08301905092915050565b6000602082019050919050565b6000610d2282610c31565b610d2c8185610c3c565b9350610d3783610c4d565b8060005b83811015610d68578151610d4f8882610cf2565b9750610d5a83610d0a565b925050600181019050610d3b565b5085935050505092915050565b60006020820190508181036000830152610d8f8184610d17565b905092915050565b600060208284031215610dad57610dac610a71565b5b6000610dbb84828501610b4c565b91505092915050565b7f4e487b7100000000000000000000000000000000000000000000000000000000600052603260045260246000fd5b600082825260208201905092915050565b7f456c204e4654207961206861207369646f2076656e6469646f00000000000000600082015250565b6000610e3a601983610df3565b9150610e4582610e04565b602082019050919050565b60006020820190508181036000830152610e6981610e2d565b9050919050565b7f456c2070726563696f20656e766961646f206e6f20636f696e6369646520636f60008201527f6e20656c2070726563696f2064656c204e465400000000000000000000000000602082015250565b6000610ecc603383610df3565b9150610ed782610e70565b604082019050919050565b60006020820190508181036000830152610efb81610ebf565b9050919050565b6000606082019050610f176000830186610b0b565b610f246020830185610b0b565b610f316040830184610bb4565b949350505050565b6000602082019050610f4e6000830184610bb4565b92915050565b600081519050610f6381610b35565b92915050565b600060208284031215610f7f57610f7e610a71565b5b6000610f8d84828501610f54565b91505092915050565b7f4e6f206572657320656c2070726f706965746172696f2064656c204e46540000600082015250565b6000610fcc601e83610df3565b9150610fd782610f96565b602082019050919050565b60006020820190508181036000830152610ffb81610fbf565b9050919050565b60006040820190506110176000830185610b0b565b6110246020830184610b0b565b9392505050565b61103481610bc3565b811461103f57600080fd5b50565b6000815190506110518161102b565b92915050565b60006020828403121561106d5761106c610a71565b5b600061107b84828501611042565b91505092915050565b7f456c20636f6e747261746f206e6f2065737461206170726f6261646f2070617260008201527f61207472616e73666572697220656c204e465400000000000000000000000000602082015250565b60006110e0603383610df3565b91506110eb82611084565b604082019050919050565b6000602082019050818103600083015261110f816110d3565b905091905056fea26469706673582212207416d279b6390f682eeea03bc7f802aeb370164bb49d9889b9d00b9adb3e5f6964736f6c63430008140033",
  "linkReferences": {},
  "deployedLinkReferences": {}
}